{
  "_format": "hh-sol-artifact-1",
  "contractName": "DoomsDay",
  "sourceName": "contracts/DoomsDay.sol",
  "abi": [
    {
      "inputs": [
        {
          "internalType": "string",
          "name": "stringURI",
          "type": "string"
        }
      ],
      "stateMutability": "nonpayable",
      "type": "constructor"
    },
    {
      "inputs": [],
      "name": "NotAuthorized",
      "type": "error"
    },
    {
      "anonymous": false,
      "inputs": [
        {
          "indexed": true,
          "internalType": "address",
          "name": "account",
          "type": "address"
        },
        {
          "indexed": true,
          "internalType": "address",
          "name": "operator",
          "type": "address"
        },
        {
          "indexed": false,
          "internalType": "bool",
          "name": "approved",
          "type": "bool"
        }
      ],
      "name": "ApprovalForAll",
      "type": "event"
    },
    {
      "anonymous": false,
      "inputs": [
        {
          "indexed": true,
          "internalType": "bytes32",
          "name": "role",
          "type": "bytes32"
        },
        {
          "indexed": true,
          "internalType": "bytes32",
          "name": "previousAdminRole",
          "type": "bytes32"
        },
        {
          "indexed": true,
          "internalType": "bytes32",
          "name": "newAdminRole",
          "type": "bytes32"
        }
      ],
      "name": "RoleAdminChanged",
      "type": "event"
    },
    {
      "anonymous": false,
      "inputs": [
        {
          "indexed": true,
          "internalType": "bytes32",
          "name": "role",
          "type": "bytes32"
        },
        {
          "indexed": true,
          "internalType": "address",
          "name": "account",
          "type": "address"
        },
        {
          "indexed": true,
          "internalType": "address",
          "name": "sender",
          "type": "address"
        }
      ],
      "name": "RoleGranted",
      "type": "event"
    },
    {
      "anonymous": false,
      "inputs": [
        {
          "indexed": true,
          "internalType": "bytes32",
          "name": "role",
          "type": "bytes32"
        },
        {
          "indexed": true,
          "internalType": "address",
          "name": "account",
          "type": "address"
        },
        {
          "indexed": true,
          "internalType": "address",
          "name": "sender",
          "type": "address"
        }
      ],
      "name": "RoleRevoked",
      "type": "event"
    },
    {
      "anonymous": false,
      "inputs": [
        {
          "indexed": true,
          "internalType": "address",
          "name": "operator",
          "type": "address"
        },
        {
          "indexed": true,
          "internalType": "address",
          "name": "from",
          "type": "address"
        },
        {
          "indexed": true,
          "internalType": "address",
          "name": "to",
          "type": "address"
        },
        {
          "indexed": false,
          "internalType": "uint256[]",
          "name": "ids",
          "type": "uint256[]"
        },
        {
          "indexed": false,
          "internalType": "uint256[]",
          "name": "values",
          "type": "uint256[]"
        }
      ],
      "name": "TransferBatch",
      "type": "event"
    },
    {
      "anonymous": false,
      "inputs": [
        {
          "indexed": true,
          "internalType": "address",
          "name": "operator",
          "type": "address"
        },
        {
          "indexed": true,
          "internalType": "address",
          "name": "from",
          "type": "address"
        },
        {
          "indexed": true,
          "internalType": "address",
          "name": "to",
          "type": "address"
        },
        {
          "indexed": false,
          "internalType": "uint256",
          "name": "id",
          "type": "uint256"
        },
        {
          "indexed": false,
          "internalType": "uint256",
          "name": "value",
          "type": "uint256"
        }
      ],
      "name": "TransferSingle",
      "type": "event"
    },
    {
      "anonymous": false,
      "inputs": [
        {
          "indexed": false,
          "internalType": "string",
          "name": "value",
          "type": "string"
        },
        {
          "indexed": true,
          "internalType": "uint256",
          "name": "id",
          "type": "uint256"
        }
      ],
      "name": "URI",
      "type": "event"
    },
    {
      "inputs": [],
      "name": "DEFAULT_ADMIN_ROLE",
      "outputs": [
        {
          "internalType": "bytes32",
          "name": "",
          "type": "bytes32"
        }
      ],
      "stateMutability": "view",
      "type": "function"
    },
    {
      "inputs": [
        {
          "internalType": "uint256",
          "name": "tokenId",
          "type": "uint256"
        },
        {
          "internalType": "address[]",
          "name": "winners",
          "type": "address[]"
        },
        {
          "internalType": "uint256",
          "name": "amount",
          "type": "uint256"
        }
      ],
      "name": "addWhitelist",
      "outputs": [],
      "stateMutability": "nonpayable",
      "type": "function"
    },
    {
      "inputs": [
        {
          "internalType": "address",
          "name": "account",
          "type": "address"
        },
        {
          "internalType": "uint256",
          "name": "id",
          "type": "uint256"
        }
      ],
      "name": "balanceOf",
      "outputs": [
        {
          "internalType": "uint256",
          "name": "",
          "type": "uint256"
        }
      ],
      "stateMutability": "view",
      "type": "function"
    },
    {
      "inputs": [
        {
          "internalType": "address[]",
          "name": "accounts",
          "type": "address[]"
        },
        {
          "internalType": "uint256[]",
          "name": "ids",
          "type": "uint256[]"
        }
      ],
      "name": "balanceOfBatch",
      "outputs": [
        {
          "internalType": "uint256[]",
          "name": "",
          "type": "uint256[]"
        }
      ],
      "stateMutability": "view",
      "type": "function"
    },
    {
      "inputs": [
        {
          "internalType": "bytes32",
          "name": "role",
          "type": "bytes32"
        }
      ],
      "name": "getRoleAdmin",
      "outputs": [
        {
          "internalType": "bytes32",
          "name": "",
          "type": "bytes32"
        }
      ],
      "stateMutability": "view",
      "type": "function"
    },
    {
      "inputs": [
        {
          "internalType": "bytes32",
          "name": "role",
          "type": "bytes32"
        },
        {
          "internalType": "address",
          "name": "account",
          "type": "address"
        }
      ],
      "name": "grantRole",
      "outputs": [],
      "stateMutability": "nonpayable",
      "type": "function"
    },
    {
      "inputs": [
        {
          "internalType": "bytes32",
          "name": "role",
          "type": "bytes32"
        },
        {
          "internalType": "address",
          "name": "account",
          "type": "address"
        }
      ],
      "name": "hasRole",
      "outputs": [
        {
          "internalType": "bool",
          "name": "",
          "type": "bool"
        }
      ],
      "stateMutability": "view",
      "type": "function"
    },
    {
      "inputs": [
        {
          "internalType": "address",
          "name": "account",
          "type": "address"
        },
        {
          "internalType": "address",
          "name": "operator",
          "type": "address"
        }
      ],
      "name": "isApprovedForAll",
      "outputs": [
        {
          "internalType": "bool",
          "name": "",
          "type": "bool"
        }
      ],
      "stateMutability": "view",
      "type": "function"
    },
    {
      "inputs": [
        {
          "internalType": "uint256",
          "name": "tokenId",
          "type": "uint256"
        },
        {
          "internalType": "address",
          "name": "user",
          "type": "address"
        }
      ],
      "name": "isWhitelisted",
      "outputs": [
        {
          "internalType": "uint256",
          "name": "",
          "type": "uint256"
        }
      ],
      "stateMutability": "view",
      "type": "function"
    },
    {
      "inputs": [
        {
          "internalType": "uint256",
          "name": "tokenId",
          "type": "uint256"
        },
        {
          "internalType": "bytes",
          "name": "data",
          "type": "bytes"
        }
      ],
      "name": "mint",
      "outputs": [],
      "stateMutability": "nonpayable",
      "type": "function"
    },
    {
      "inputs": [],
      "name": "name",
      "outputs": [
        {
          "internalType": "string",
          "name": "",
          "type": "string"
        }
      ],
      "stateMutability": "view",
      "type": "function"
    },
    {
      "inputs": [
        {
          "internalType": "bytes32",
          "name": "role",
          "type": "bytes32"
        },
        {
          "internalType": "address",
          "name": "account",
          "type": "address"
        }
      ],
      "name": "renounceRole",
      "outputs": [],
      "stateMutability": "nonpayable",
      "type": "function"
    },
    {
      "inputs": [
        {
          "internalType": "bytes32",
          "name": "role",
          "type": "bytes32"
        },
        {
          "internalType": "address",
          "name": "account",
          "type": "address"
        }
      ],
      "name": "revokeRole",
      "outputs": [],
      "stateMutability": "nonpayable",
      "type": "function"
    },
    {
      "inputs": [
        {
          "internalType": "address",
          "name": "from",
          "type": "address"
        },
        {
          "internalType": "address",
          "name": "to",
          "type": "address"
        },
        {
          "internalType": "uint256[]",
          "name": "ids",
          "type": "uint256[]"
        },
        {
          "internalType": "uint256[]",
          "name": "amounts",
          "type": "uint256[]"
        },
        {
          "internalType": "bytes",
          "name": "data",
          "type": "bytes"
        }
      ],
      "name": "safeBatchTransferFrom",
      "outputs": [],
      "stateMutability": "nonpayable",
      "type": "function"
    },
    {
      "inputs": [
        {
          "internalType": "address",
          "name": "from",
          "type": "address"
        },
        {
          "internalType": "address",
          "name": "to",
          "type": "address"
        },
        {
          "internalType": "uint256",
          "name": "id",
          "type": "uint256"
        },
        {
          "internalType": "uint256",
          "name": "amount",
          "type": "uint256"
        },
        {
          "internalType": "bytes",
          "name": "data",
          "type": "bytes"
        }
      ],
      "name": "safeTransferFrom",
      "outputs": [],
      "stateMutability": "nonpayable",
      "type": "function"
    },
    {
      "inputs": [
        {
          "internalType": "address",
          "name": "operator",
          "type": "address"
        },
        {
          "internalType": "bool",
          "name": "approved",
          "type": "bool"
        }
      ],
      "name": "setApprovalForAll",
      "outputs": [],
      "stateMutability": "nonpayable",
      "type": "function"
    },
    {
      "inputs": [
        {
          "internalType": "string",
          "name": "newuri",
          "type": "string"
        }
      ],
      "name": "setURI",
      "outputs": [],
      "stateMutability": "nonpayable",
      "type": "function"
    },
    {
      "inputs": [
        {
          "internalType": "bytes4",
          "name": "interfaceId",
          "type": "bytes4"
        }
      ],
      "name": "supportsInterface",
      "outputs": [
        {
          "internalType": "bool",
          "name": "",
          "type": "bool"
        }
      ],
      "stateMutability": "view",
      "type": "function"
    },
    {
      "inputs": [],
      "name": "symbol",
      "outputs": [
        {
          "internalType": "string",
          "name": "",
          "type": "string"
        }
      ],
      "stateMutability": "view",
      "type": "function"
    },
    {
      "inputs": [
        {
          "internalType": "uint256",
          "name": "",
          "type": "uint256"
        }
      ],
      "name": "uri",
      "outputs": [
        {
          "internalType": "string",
          "name": "",
          "type": "string"
        }
      ],
      "stateMutability": "view",
      "type": "function"
    }
  ],
  "bytecode": "0x6080604052604051806060016040528060288152602001620043e060289139600490816200002e9190620004f1565b506040518060400160405280600481526020017f474d56530000000000000000000000000000000000000000000000000000000081525060059081620000759190620004f1565b503480156200008357600080fd5b5060405162004408380380620044088339818101604052810190620000a9919062000746565b80620000bb81620000e760201b60201c565b50620000e06000801b620000d4620000fc60201b60201c565b6200010460201b60201c565b5062000797565b8060029081620000f89190620004f1565b5050565b600033905090565b6200011682826200011a60201b60201c565b5050565b6200012c82826200020c60201b60201c565b620002085760016003600084815260200190815260200160002060000160008373ffffffffffffffffffffffffffffffffffffffff1673ffffffffffffffffffffffffffffffffffffffff16815260200190815260200160002060006101000a81548160ff021916908315150217905550620001ad620000fc60201b60201c565b73ffffffffffffffffffffffffffffffffffffffff168173ffffffffffffffffffffffffffffffffffffffff16837f2f8788117e7eff1d82e926ec794901d17c78024a50270940304540a733656f0d60405160405180910390a45b5050565b60006003600084815260200190815260200160002060000160008373ffffffffffffffffffffffffffffffffffffffff1673ffffffffffffffffffffffffffffffffffffffff16815260200190815260200160002060009054906101000a900460ff16905092915050565b600081519050919050565b7f4e487b7100000000000000000000000000000000000000000000000000000000600052604160045260246000fd5b7f4e487b7100000000000000000000000000000000000000000000000000000000600052602260045260246000fd5b60006002820490506001821680620002f957607f821691505b6020821081036200030f576200030e620002b1565b5b50919050565b60008190508160005260206000209050919050565b60006020601f8301049050919050565b600082821b905092915050565b600060088302620003797fffffffffffffffffffffffffffffffffffffffffffffffffffffffffffffffff826200033a565b6200038586836200033a565b95508019841693508086168417925050509392505050565b6000819050919050565b6000819050919050565b6000620003d2620003cc620003c6846200039d565b620003a7565b6200039d565b9050919050565b6000819050919050565b620003ee83620003b1565b62000406620003fd82620003d9565b84845462000347565b825550505050565b600090565b6200041d6200040e565b6200042a818484620003e3565b505050565b5b8181101562000452576200044660008262000413565b60018101905062000430565b5050565b601f821115620004a1576200046b8162000315565b62000476846200032a565b8101602085101562000486578190505b6200049e62000495856200032a565b8301826200042f565b50505b505050565b600082821c905092915050565b6000620004c660001984600802620004a6565b1980831691505092915050565b6000620004e18383620004b3565b9150826002028217905092915050565b620004fc8262000277565b67ffffffffffffffff81111562000518576200051762000282565b5b620005248254620002e0565b6200053182828562000456565b600060209050601f83116001811462000569576000841562000554578287015190505b620005608582620004d3565b865550620005d0565b601f198416620005798662000315565b60005b82811015620005a3578489015182556001820191506020850194506020810190506200057c565b86831015620005c35784890151620005bf601f891682620004b3565b8355505b6001600288020188555050505b505050505050565b6000604051905090565b600080fd5b600080fd5b600080fd5b600080fd5b6000601f19601f8301169050919050565b6200061282620005f6565b810181811067ffffffffffffffff8211171562000634576200063362000282565b5b80604052505050565b600062000649620005d8565b905062000657828262000607565b919050565b600067ffffffffffffffff8211156200067a576200067962000282565b5b6200068582620005f6565b9050602081019050919050565b60005b83811015620006b257808201518184015260208101905062000695565b83811115620006c2576000848401525b50505050565b6000620006df620006d9846200065c565b6200063d565b905082815260208101848484011115620006fe57620006fd620005f1565b5b6200070b84828562000692565b509392505050565b600082601f8301126200072b576200072a620005ec565b5b81516200073d848260208601620006c8565b91505092915050565b6000602082840312156200075f576200075e620005e2565b5b600082015167ffffffffffffffff81111562000780576200077f620005e7565b5b6200078e8482850162000713565b91505092915050565b613c3980620007a76000396000f3fe608060405234801561001057600080fd5b506004361061012b5760003560e01c80637d22c35c116100ad578063caac0e3b11610071578063caac0e3b14610366578063d547741f14610382578063db7fd4081461039e578063e985e9c5146103ba578063f242432a146103ea5761012b565b80637d22c35c146102ae57806391d14854146102de57806395d89b411461030e578063a217fddf1461032c578063a22cb4651461034a5761012b565b8063248a9ca3116100f4578063248a9ca3146101fa5780632eb2c2d61461022a5780632f2ff15d1461024657806336568abe146102625780634e1273f41461027e5761012b565b8062fdd58e1461013057806301ffc9a71461016057806302fe53051461019057806306fdde03146101ac5780630e89341c146101ca575b600080fd5b61014a600480360381019061014591906121d9565b610406565b6040516101579190612228565b60405180910390f35b61017a6004803603810190610175919061229b565b6104ce565b60405161018791906122e3565b60405180910390f35b6101aa60048036038101906101a59190612444565b6104e0565b005b6101b46104fa565b6040516101c19190612515565b60405180910390f35b6101e460048036038101906101df9190612537565b610588565b6040516101f19190612515565b60405180910390f35b610214600480360381019061020f919061259a565b61061c565b60405161022191906125d6565b60405180910390f35b610244600480360381019061023f919061275a565b61063c565b005b610260600480360381019061025b9190612829565b6106dd565b005b61027c60048036038101906102779190612829565b6106fe565b005b6102986004803603810190610293919061292c565b610781565b6040516102a59190612a62565b60405180910390f35b6102c860048036038101906102c39190612a84565b61089a565b6040516102d59190612228565b60405180910390f35b6102f860048036038101906102f39190612829565b6108f5565b60405161030591906122e3565b60405180910390f35b610316610960565b6040516103239190612515565b60405180910390f35b6103346109ee565b60405161034191906125d6565b60405180910390f35b610364600480360381019061035f9190612af0565b6109f5565b005b610380600480360381019061037b9190612b8b565b610a0b565b005b61039c60048036038101906103979190612829565b610abb565b005b6103b860048036038101906103b39190612bff565b610adc565b005b6103d460048036038101906103cf9190612c5b565b610c38565b6040516103e191906122e3565b60405180910390f35b61040460048036038101906103ff9190612c9b565b610ccc565b005b60008073ffffffffffffffffffffffffffffffffffffffff168373ffffffffffffffffffffffffffffffffffffffff1603610476576040517f08c379a000000000000000000000000000000000000000000000000000000000815260040161046d90612da4565b60405180910390fd5b60008083815260200190815260200160002060008473ffffffffffffffffffffffffffffffffffffffff1673ffffffffffffffffffffffffffffffffffffffff16815260200190815260200160002054905092915050565b60006104d982610d6d565b9050919050565b6000801b6104ed81610de7565b6104f682610dfb565b5050565b6004805461050790612df3565b80601f016020809104026020016040519081016040528092919081815260200182805461053390612df3565b80156105805780601f1061055557610100808354040283529160200191610580565b820191906000526020600020905b81548152906001019060200180831161056357829003601f168201915b505050505081565b60606002805461059790612df3565b80601f01602080910402602001604051908101604052809291908181526020018280546105c390612df3565b80156106105780601f106105e557610100808354040283529160200191610610565b820191906000526020600020905b8154815290600101906020018083116105f357829003601f168201915b50505050509050919050565b600060036000838152602001908152602001600020600101549050919050565b610644610e0e565b73ffffffffffffffffffffffffffffffffffffffff168573ffffffffffffffffffffffffffffffffffffffff16148061068a575061068985610684610e0e565b610c38565b5b6106c9576040517f08c379a00000000000000000000000000000000000000000000000000000000081526004016106c090612e96565b60405180910390fd5b6106d68585858585610e16565b5050505050565b6106e68261061c565b6106ef81610de7565b6106f98383611137565b505050565b610706610e0e565b73ffffffffffffffffffffffffffffffffffffffff168173ffffffffffffffffffffffffffffffffffffffff1614610773576040517f08c379a000000000000000000000000000000000000000000000000000000000815260040161076a90612f28565b60405180910390fd5b61077d8282611218565b5050565b606081518351146107c7576040517f08c379a00000000000000000000000000000000000000000000000000000000081526004016107be90612fba565b60405180910390fd5b6000835167ffffffffffffffff8111156107e4576107e3612319565b5b6040519080825280602002602001820160405280156108125781602001602082028036833780820191505090505b50905060005b845181101561088f5761085f85828151811061083757610836612fda565b5b602002602001015185838151811061085257610851612fda565b5b6020026020010151610406565b82828151811061087257610871612fda565b5b6020026020010181815250508061088890613038565b9050610818565b508091505092915050565b60006006600084815260200190815260200160002060008373ffffffffffffffffffffffffffffffffffffffff1673ffffffffffffffffffffffffffffffffffffffff16815260200190815260200160002054905092915050565b60006003600084815260200190815260200160002060000160008373ffffffffffffffffffffffffffffffffffffffff1673ffffffffffffffffffffffffffffffffffffffff16815260200190815260200160002060009054906101000a900460ff16905092915050565b6005805461096d90612df3565b80601f016020809104026020016040519081016040528092919081815260200182805461099990612df3565b80156109e65780601f106109bb576101008083540402835291602001916109e6565b820191906000526020600020905b8154815290600101906020018083116109c957829003601f168201915b505050505081565b6000801b81565b610a07610a00610e0e565b83836112fa565b5050565b6000801b610a1881610de7565b600084849050905060005b81811015610ab25783600660008981526020019081526020016000206000888885818110610a5457610a53612fda565b5b9050602002016020810190610a699190613080565b73ffffffffffffffffffffffffffffffffffffffff1673ffffffffffffffffffffffffffffffffffffffff16815260200190815260200160002081905550806001019050610a23565b50505050505050565b610ac48261061c565b610acd81610de7565b610ad78383611218565b505050565b6000600660008481526020019081526020016000206000610afb610e0e565b73ffffffffffffffffffffffffffffffffffffffff1673ffffffffffffffffffffffffffffffffffffffff1681526020019081526020016000205403610b6d576040517fea8e4eb500000000000000000000000000000000000000000000000000000000815260040160405180910390fd5b610bd7610b78610e0e565b83600660008681526020019081526020016000206000610b96610e0e565b73ffffffffffffffffffffffffffffffffffffffff1673ffffffffffffffffffffffffffffffffffffffff1681526020019081526020016000205484611466565b6000600660008481526020019081526020016000206000610bf6610e0e565b73ffffffffffffffffffffffffffffffffffffffff1673ffffffffffffffffffffffffffffffffffffffff168152602001908152602001600020819055505050565b6000600160008473ffffffffffffffffffffffffffffffffffffffff1673ffffffffffffffffffffffffffffffffffffffff16815260200190815260200160002060008373ffffffffffffffffffffffffffffffffffffffff1673ffffffffffffffffffffffffffffffffffffffff16815260200190815260200160002060009054906101000a900460ff16905092915050565b610cd4610e0e565b73ffffffffffffffffffffffffffffffffffffffff168573ffffffffffffffffffffffffffffffffffffffff161480610d1a5750610d1985610d14610e0e565b610c38565b5b610d59576040517f08c379a0000000000000000000000000000000000000000000000000000000008152600401610d5090612e96565b60405180910390fd5b610d668585858585611616565b5050505050565b60007f7965db0b000000000000000000000000000000000000000000000000000000007bffffffffffffffffffffffffffffffffffffffffffffffffffffffff1916827bffffffffffffffffffffffffffffffffffffffffffffffffffffffff19161480610de05750610ddf826118b1565b5b9050919050565b610df881610df3610e0e565b611993565b50565b8060029081610e0a9190613259565b5050565b600033905090565b8151835114610e5a576040517f08c379a0000000000000000000000000000000000000000000000000000000008152600401610e519061339d565b60405180910390fd5b600073ffffffffffffffffffffffffffffffffffffffff168473ffffffffffffffffffffffffffffffffffffffff1603610ec9576040517f08c379a0000000000000000000000000000000000000000000000000000000008152600401610ec09061342f565b60405180910390fd5b6000610ed3610e0e565b9050610ee3818787878787611a30565b60005b8451811015611094576000858281518110610f0457610f03612fda565b5b602002602001015190506000858381518110610f2357610f22612fda565b5b60200260200101519050600080600084815260200190815260200160002060008b73ffffffffffffffffffffffffffffffffffffffff1673ffffffffffffffffffffffffffffffffffffffff16815260200190815260200160002054905081811015610fc4576040517f08c379a0000000000000000000000000000000000000000000000000000000008152600401610fbb906134c1565b60405180910390fd5b81810360008085815260200190815260200160002060008c73ffffffffffffffffffffffffffffffffffffffff1673ffffffffffffffffffffffffffffffffffffffff168152602001908152602001600020819055508160008085815260200190815260200160002060008b73ffffffffffffffffffffffffffffffffffffffff1673ffffffffffffffffffffffffffffffffffffffff168152602001908152602001600020600082825461107991906134e1565b925050819055505050508061108d90613038565b9050610ee6565b508473ffffffffffffffffffffffffffffffffffffffff168673ffffffffffffffffffffffffffffffffffffffff168273ffffffffffffffffffffffffffffffffffffffff167f4a39dc06d4c0dbc64b70af90fd698a233a518aa5d07e595d983b8c0526c8f7fb878760405161110b929190613537565b60405180910390a4611121818787878787611a38565b61112f818787878787611a40565b505050505050565b61114182826108f5565b6112145760016003600084815260200190815260200160002060000160008373ffffffffffffffffffffffffffffffffffffffff1673ffffffffffffffffffffffffffffffffffffffff16815260200190815260200160002060006101000a81548160ff0219169083151502179055506111b9610e0e565b73ffffffffffffffffffffffffffffffffffffffff168173ffffffffffffffffffffffffffffffffffffffff16837f2f8788117e7eff1d82e926ec794901d17c78024a50270940304540a733656f0d60405160405180910390a45b5050565b61122282826108f5565b156112f65760006003600084815260200190815260200160002060000160008373ffffffffffffffffffffffffffffffffffffffff1673ffffffffffffffffffffffffffffffffffffffff16815260200190815260200160002060006101000a81548160ff02191690831515021790555061129b610e0e565b73ffffffffffffffffffffffffffffffffffffffff168173ffffffffffffffffffffffffffffffffffffffff16837ff6391f5c32d9c69d2a47ea670b442974b53935d1edc7fd64eb21e047a839171b60405160405180910390a45b5050565b8173ffffffffffffffffffffffffffffffffffffffff168373ffffffffffffffffffffffffffffffffffffffff1603611368576040517f08c379a000000000000000000000000000000000000000000000000000000000815260040161135f906135e0565b60405180910390fd5b80600160008573ffffffffffffffffffffffffffffffffffffffff1673ffffffffffffffffffffffffffffffffffffffff16815260200190815260200160002060008473ffffffffffffffffffffffffffffffffffffffff1673ffffffffffffffffffffffffffffffffffffffff16815260200190815260200160002060006101000a81548160ff0219169083151502179055508173ffffffffffffffffffffffffffffffffffffffff168373ffffffffffffffffffffffffffffffffffffffff167f17307eab39ab6107e8899845ad3d59bd9653f200f220920489ca2b5937696c318360405161145991906122e3565b60405180910390a3505050565b600073ffffffffffffffffffffffffffffffffffffffff168473ffffffffffffffffffffffffffffffffffffffff16036114d5576040517f08c379a00000000000000000000000000000000000000000000000000000000081526004016114cc90613672565b60405180910390fd5b60006114df610e0e565b905060006114ec85611c17565b905060006114f985611c17565b905061150a83600089858589611a30565b8460008088815260200190815260200160002060008973ffffffffffffffffffffffffffffffffffffffff1673ffffffffffffffffffffffffffffffffffffffff168152602001908152602001600020600082825461156991906134e1565b925050819055508673ffffffffffffffffffffffffffffffffffffffff16600073ffffffffffffffffffffffffffffffffffffffff168473ffffffffffffffffffffffffffffffffffffffff167fc3d58168c5ae7397731d063d5bbf3d657854427343f4c083240f7aacaa2d0f6289896040516115e7929190613692565b60405180910390a46115fe83600089858589611a38565b61160d83600089898989611c91565b50505050505050565b600073ffffffffffffffffffffffffffffffffffffffff168473ffffffffffffffffffffffffffffffffffffffff1603611685576040517f08c379a000000000000000000000000000000000000000000000000000000000815260040161167c9061342f565b60405180910390fd5b600061168f610e0e565b9050600061169c85611c17565b905060006116a985611c17565b90506116b9838989858589611a30565b600080600088815260200190815260200160002060008a73ffffffffffffffffffffffffffffffffffffffff1673ffffffffffffffffffffffffffffffffffffffff16815260200190815260200160002054905085811015611750576040517f08c379a0000000000000000000000000000000000000000000000000000000008152600401611747906134c1565b60405180910390fd5b85810360008089815260200190815260200160002060008b73ffffffffffffffffffffffffffffffffffffffff1673ffffffffffffffffffffffffffffffffffffffff168152602001908152602001600020819055508560008089815260200190815260200160002060008a73ffffffffffffffffffffffffffffffffffffffff1673ffffffffffffffffffffffffffffffffffffffff168152602001908152602001600020600082825461180591906134e1565b925050819055508773ffffffffffffffffffffffffffffffffffffffff168973ffffffffffffffffffffffffffffffffffffffff168573ffffffffffffffffffffffffffffffffffffffff167fc3d58168c5ae7397731d063d5bbf3d657854427343f4c083240f7aacaa2d0f628a8a604051611882929190613692565b60405180910390a4611898848a8a86868a611a38565b6118a6848a8a8a8a8a611c91565b505050505050505050565b60007fd9b67a26000000000000000000000000000000000000000000000000000000007bffffffffffffffffffffffffffffffffffffffffffffffffffffffff1916827bffffffffffffffffffffffffffffffffffffffffffffffffffffffff1916148061197c57507f0e89341c000000000000000000000000000000000000000000000000000000007bffffffffffffffffffffffffffffffffffffffffffffffffffffffff1916827bffffffffffffffffffffffffffffffffffffffffffffffffffffffff1916145b8061198c575061198b82611e68565b5b9050919050565b61199d82826108f5565b611a2c576119c28173ffffffffffffffffffffffffffffffffffffffff166014611ed2565b6119d08360001c6020611ed2565b6040516020016119e192919061378f565b6040516020818303038152906040526040517f08c379a0000000000000000000000000000000000000000000000000000000008152600401611a239190612515565b60405180910390fd5b5050565b505050505050565b505050505050565b611a5f8473ffffffffffffffffffffffffffffffffffffffff1661210e565b15611c0f578373ffffffffffffffffffffffffffffffffffffffff1663bc197c8187878686866040518663ffffffff1660e01b8152600401611aa595949392919061382d565b6020604051808303816000875af1925050508015611ae157506040513d601f19601f82011682018060405250810190611ade91906138aa565b60015b611b8657611aed6138e4565b806308c379a003611b495750611b01613906565b80611b0c5750611b4b565b806040517f08c379a0000000000000000000000000000000000000000000000000000000008152600401611b409190612515565b60405180910390fd5b505b6040517f08c379a0000000000000000000000000000000000000000000000000000000008152600401611b7d90613a08565b60405180910390fd5b63bc197c8160e01b7bffffffffffffffffffffffffffffffffffffffffffffffffffffffff1916817bffffffffffffffffffffffffffffffffffffffffffffffffffffffff191614611c0d576040517f08c379a0000000000000000000000000000000000000000000000000000000008152600401611c0490613a9a565b60405180910390fd5b505b505050505050565b60606000600167ffffffffffffffff811115611c3657611c35612319565b5b604051908082528060200260200182016040528015611c645781602001602082028036833780820191505090505b5090508281600081518110611c7c57611c7b612fda565b5b60200260200101818152505080915050919050565b611cb08473ffffffffffffffffffffffffffffffffffffffff1661210e565b15611e60578373ffffffffffffffffffffffffffffffffffffffff1663f23a6e6187878686866040518663ffffffff1660e01b8152600401611cf6959493929190613aba565b6020604051808303816000875af1925050508015611d3257506040513d601f19601f82011682018060405250810190611d2f91906138aa565b60015b611dd757611d3e6138e4565b806308c379a003611d9a5750611d52613906565b80611d5d5750611d9c565b806040517f08c379a0000000000000000000000000000000000000000000000000000000008152600401611d919190612515565b60405180910390fd5b505b6040517f08c379a0000000000000000000000000000000000000000000000000000000008152600401611dce90613a08565b60405180910390fd5b63f23a6e6160e01b7bffffffffffffffffffffffffffffffffffffffffffffffffffffffff1916817bffffffffffffffffffffffffffffffffffffffffffffffffffffffff191614611e5e576040517f08c379a0000000000000000000000000000000000000000000000000000000008152600401611e5590613a9a565b60405180910390fd5b505b505050505050565b60007f01ffc9a7000000000000000000000000000000000000000000000000000000007bffffffffffffffffffffffffffffffffffffffffffffffffffffffff1916827bffffffffffffffffffffffffffffffffffffffffffffffffffffffff1916149050919050565b606060006002836002611ee59190613b14565b611eef91906134e1565b67ffffffffffffffff811115611f0857611f07612319565b5b6040519080825280601f01601f191660200182016040528015611f3a5781602001600182028036833780820191505090505b5090507f300000000000000000000000000000000000000000000000000000000000000081600081518110611f7257611f71612fda565b5b60200101907effffffffffffffffffffffffffffffffffffffffffffffffffffffffffffff1916908160001a9053507f780000000000000000000000000000000000000000000000000000000000000081600181518110611fd657611fd5612fda565b5b60200101907effffffffffffffffffffffffffffffffffffffffffffffffffffffffffffff1916908160001a905350600060018460026120169190613b14565b61202091906134e1565b90505b60018111156120c0577f3031323334353637383961626364656600000000000000000000000000000000600f86166010811061206257612061612fda565b5b1a60f81b82828151811061207957612078612fda565b5b60200101907effffffffffffffffffffffffffffffffffffffffffffffffffffffffffffff1916908160001a905350600485901c9450806120b990613b6e565b9050612023565b5060008414612104576040517f08c379a00000000000000000000000000000000000000000000000000000000081526004016120fb90613be3565b60405180910390fd5b8091505092915050565b6000808273ffffffffffffffffffffffffffffffffffffffff163b119050919050565b6000604051905090565b600080fd5b600080fd5b600073ffffffffffffffffffffffffffffffffffffffff82169050919050565b600061217082612145565b9050919050565b61218081612165565b811461218b57600080fd5b50565b60008135905061219d81612177565b92915050565b6000819050919050565b6121b6816121a3565b81146121c157600080fd5b50565b6000813590506121d3816121ad565b92915050565b600080604083850312156121f0576121ef61213b565b5b60006121fe8582860161218e565b925050602061220f858286016121c4565b9150509250929050565b612222816121a3565b82525050565b600060208201905061223d6000830184612219565b92915050565b60007fffffffff0000000000000000000000000000000000000000000000000000000082169050919050565b61227881612243565b811461228357600080fd5b50565b6000813590506122958161226f565b92915050565b6000602082840312156122b1576122b061213b565b5b60006122bf84828501612286565b91505092915050565b60008115159050919050565b6122dd816122c8565b82525050565b60006020820190506122f860008301846122d4565b92915050565b600080fd5b600080fd5b6000601f19601f8301169050919050565b7f4e487b7100000000000000000000000000000000000000000000000000000000600052604160045260246000fd5b61235182612308565b810181811067ffffffffffffffff821117156123705761236f612319565b5b80604052505050565b6000612383612131565b905061238f8282612348565b919050565b600067ffffffffffffffff8211156123af576123ae612319565b5b6123b882612308565b9050602081019050919050565b82818337600083830152505050565b60006123e76123e284612394565b612379565b90508281526020810184848401111561240357612402612303565b5b61240e8482856123c5565b509392505050565b600082601f83011261242b5761242a6122fe565b5b813561243b8482602086016123d4565b91505092915050565b60006020828403121561245a5761245961213b565b5b600082013567ffffffffffffffff81111561247857612477612140565b5b61248484828501612416565b91505092915050565b600081519050919050565b600082825260208201905092915050565b60005b838110156124c75780820151818401526020810190506124ac565b838111156124d6576000848401525b50505050565b60006124e78261248d565b6124f18185612498565b93506125018185602086016124a9565b61250a81612308565b840191505092915050565b6000602082019050818103600083015261252f81846124dc565b905092915050565b60006020828403121561254d5761254c61213b565b5b600061255b848285016121c4565b91505092915050565b6000819050919050565b61257781612564565b811461258257600080fd5b50565b6000813590506125948161256e565b92915050565b6000602082840312156125b0576125af61213b565b5b60006125be84828501612585565b91505092915050565b6125d081612564565b82525050565b60006020820190506125eb60008301846125c7565b92915050565b600067ffffffffffffffff82111561260c5761260b612319565b5b602082029050602081019050919050565b600080fd5b6000612635612630846125f1565b612379565b905080838252602082019050602084028301858111156126585761265761261d565b5b835b81811015612681578061266d88826121c4565b84526020840193505060208101905061265a565b5050509392505050565b600082601f8301126126a05761269f6122fe565b5b81356126b0848260208601612622565b91505092915050565b600067ffffffffffffffff8211156126d4576126d3612319565b5b6126dd82612308565b9050602081019050919050565b60006126fd6126f8846126b9565b612379565b90508281526020810184848401111561271957612718612303565b5b6127248482856123c5565b509392505050565b600082601f830112612741576127406122fe565b5b81356127518482602086016126ea565b91505092915050565b600080600080600060a086880312156127765761277561213b565b5b60006127848882890161218e565b95505060206127958882890161218e565b945050604086013567ffffffffffffffff8111156127b6576127b5612140565b5b6127c28882890161268b565b935050606086013567ffffffffffffffff8111156127e3576127e2612140565b5b6127ef8882890161268b565b925050608086013567ffffffffffffffff8111156128105761280f612140565b5b61281c8882890161272c565b9150509295509295909350565b600080604083850312156128405761283f61213b565b5b600061284e85828601612585565b925050602061285f8582860161218e565b9150509250929050565b600067ffffffffffffffff82111561288457612883612319565b5b602082029050602081019050919050565b60006128a86128a384612869565b612379565b905080838252602082019050602084028301858111156128cb576128ca61261d565b5b835b818110156128f457806128e0888261218e565b8452602084019350506020810190506128cd565b5050509392505050565b600082601f830112612913576129126122fe565b5b8135612923848260208601612895565b91505092915050565b600080604083850312156129435761294261213b565b5b600083013567ffffffffffffffff81111561296157612960612140565b5b61296d858286016128fe565b925050602083013567ffffffffffffffff81111561298e5761298d612140565b5b61299a8582860161268b565b9150509250929050565b600081519050919050565b600082825260208201905092915050565b6000819050602082019050919050565b6129d9816121a3565b82525050565b60006129eb83836129d0565b60208301905092915050565b6000602082019050919050565b6000612a0f826129a4565b612a1981856129af565b9350612a24836129c0565b8060005b83811015612a55578151612a3c88826129df565b9750612a47836129f7565b925050600181019050612a28565b5085935050505092915050565b60006020820190508181036000830152612a7c8184612a04565b905092915050565b60008060408385031215612a9b57612a9a61213b565b5b6000612aa9858286016121c4565b9250506020612aba8582860161218e565b9150509250929050565b612acd816122c8565b8114612ad857600080fd5b50565b600081359050612aea81612ac4565b92915050565b60008060408385031215612b0757612b0661213b565b5b6000612b158582860161218e565b9250506020612b2685828601612adb565b9150509250929050565b600080fd5b60008083601f840112612b4b57612b4a6122fe565b5b8235905067ffffffffffffffff811115612b6857612b67612b30565b5b602083019150836020820283011115612b8457612b8361261d565b5b9250929050565b60008060008060608587031215612ba557612ba461213b565b5b6000612bb3878288016121c4565b945050602085013567ffffffffffffffff811115612bd457612bd3612140565b5b612be087828801612b35565b93509350506040612bf3878288016121c4565b91505092959194509250565b60008060408385031215612c1657612c1561213b565b5b6000612c24858286016121c4565b925050602083013567ffffffffffffffff811115612c4557612c44612140565b5b612c518582860161272c565b9150509250929050565b60008060408385031215612c7257612c7161213b565b5b6000612c808582860161218e565b9250506020612c918582860161218e565b9150509250929050565b600080600080600060a08688031215612cb757612cb661213b565b5b6000612cc58882890161218e565b9550506020612cd68882890161218e565b9450506040612ce7888289016121c4565b9350506060612cf8888289016121c4565b925050608086013567ffffffffffffffff811115612d1957612d18612140565b5b612d258882890161272c565b9150509295509295909350565b7f455243313135353a2061646472657373207a65726f206973206e6f742061207660008201527f616c6964206f776e657200000000000000000000000000000000000000000000602082015250565b6000612d8e602a83612498565b9150612d9982612d32565b604082019050919050565b60006020820190508181036000830152612dbd81612d81565b9050919050565b7f4e487b7100000000000000000000000000000000000000000000000000000000600052602260045260246000fd5b60006002820490506001821680612e0b57607f821691505b602082108103612e1e57612e1d612dc4565b5b50919050565b7f455243313135353a2063616c6c6572206973206e6f7420746f6b656e206f776e60008201527f6572206e6f7220617070726f7665640000000000000000000000000000000000602082015250565b6000612e80602f83612498565b9150612e8b82612e24565b604082019050919050565b60006020820190508181036000830152612eaf81612e73565b9050919050565b7f416363657373436f6e74726f6c3a2063616e206f6e6c792072656e6f756e636560008201527f20726f6c657320666f722073656c660000000000000000000000000000000000602082015250565b6000612f12602f83612498565b9150612f1d82612eb6565b604082019050919050565b60006020820190508181036000830152612f4181612f05565b9050919050565b7f455243313135353a206163636f756e747320616e6420696473206c656e67746860008201527f206d69736d617463680000000000000000000000000000000000000000000000602082015250565b6000612fa4602983612498565b9150612faf82612f48565b604082019050919050565b60006020820190508181036000830152612fd381612f97565b9050919050565b7f4e487b7100000000000000000000000000000000000000000000000000000000600052603260045260246000fd5b7f4e487b7100000000000000000000000000000000000000000000000000000000600052601160045260246000fd5b6000613043826121a3565b91507fffffffffffffffffffffffffffffffffffffffffffffffffffffffffffffffff820361307557613074613009565b5b600182019050919050565b6000602082840312156130965761309561213b565b5b60006130a48482850161218e565b91505092915050565b60008190508160005260206000209050919050565b60006020601f8301049050919050565b600082821b905092915050565b60006008830261310f7fffffffffffffffffffffffffffffffffffffffffffffffffffffffffffffffff826130d2565b61311986836130d2565b95508019841693508086168417925050509392505050565b6000819050919050565b600061315661315161314c846121a3565b613131565b6121a3565b9050919050565b6000819050919050565b6131708361313b565b61318461317c8261315d565b8484546130df565b825550505050565b600090565b61319961318c565b6131a4818484613167565b505050565b5b818110156131c8576131bd600082613191565b6001810190506131aa565b5050565b601f82111561320d576131de816130ad565b6131e7846130c2565b810160208510156131f6578190505b61320a613202856130c2565b8301826131a9565b50505b505050565b600082821c905092915050565b600061323060001984600802613212565b1980831691505092915050565b6000613249838361321f565b9150826002028217905092915050565b6132628261248d565b67ffffffffffffffff81111561327b5761327a612319565b5b6132858254612df3565b6132908282856131cc565b600060209050601f8311600181146132c357600084156132b1578287015190505b6132bb858261323d565b865550613323565b601f1984166132d1866130ad565b60005b828110156132f9578489015182556001820191506020850194506020810190506132d4565b868310156133165784890151613312601f89168261321f565b8355505b6001600288020188555050505b505050505050565b7f455243313135353a2069647320616e6420616d6f756e7473206c656e6774682060008201527f6d69736d61746368000000000000000000000000000000000000000000000000602082015250565b6000613387602883612498565b91506133928261332b565b604082019050919050565b600060208201905081810360008301526133b68161337a565b9050919050565b7f455243313135353a207472616e7366657220746f20746865207a65726f20616460008201527f6472657373000000000000000000000000000000000000000000000000000000602082015250565b6000613419602583612498565b9150613424826133bd565b604082019050919050565b600060208201905081810360008301526134488161340c565b9050919050565b7f455243313135353a20696e73756666696369656e742062616c616e636520666f60008201527f72207472616e7366657200000000000000000000000000000000000000000000602082015250565b60006134ab602a83612498565b91506134b68261344f565b604082019050919050565b600060208201905081810360008301526134da8161349e565b9050919050565b60006134ec826121a3565b91506134f7836121a3565b9250827fffffffffffffffffffffffffffffffffffffffffffffffffffffffffffffffff0382111561352c5761352b613009565b5b828201905092915050565b600060408201905081810360008301526135518185612a04565b905081810360208301526135658184612a04565b90509392505050565b7f455243313135353a2073657474696e6720617070726f76616c2073746174757360008201527f20666f722073656c660000000000000000000000000000000000000000000000602082015250565b60006135ca602983612498565b91506135d58261356e565b604082019050919050565b600060208201905081810360008301526135f9816135bd565b9050919050565b7f455243313135353a206d696e7420746f20746865207a65726f2061646472657360008201527f7300000000000000000000000000000000000000000000000000000000000000602082015250565b600061365c602183612498565b915061366782613600565b604082019050919050565b6000602082019050818103600083015261368b8161364f565b9050919050565b60006040820190506136a76000830185612219565b6136b46020830184612219565b9392505050565b600081905092915050565b7f416363657373436f6e74726f6c3a206163636f756e7420000000000000000000600082015250565b60006136fc6017836136bb565b9150613707826136c6565b601782019050919050565b600061371d8261248d565b61372781856136bb565b93506137378185602086016124a9565b80840191505092915050565b7f206973206d697373696e6720726f6c6520000000000000000000000000000000600082015250565b60006137796011836136bb565b915061378482613743565b601182019050919050565b600061379a826136ef565b91506137a68285613712565b91506137b18261376c565b91506137bd8284613712565b91508190509392505050565b6137d281612165565b82525050565b600081519050919050565b600082825260208201905092915050565b60006137ff826137d8565b61380981856137e3565b93506138198185602086016124a9565b61382281612308565b840191505092915050565b600060a08201905061384260008301886137c9565b61384f60208301876137c9565b81810360408301526138618186612a04565b905081810360608301526138758185612a04565b9050818103608083015261388981846137f4565b90509695505050505050565b6000815190506138a48161226f565b92915050565b6000602082840312156138c0576138bf61213b565b5b60006138ce84828501613895565b91505092915050565b60008160e01c9050919050565b600060033d11156139035760046000803e6139006000516138d7565b90505b90565b600060443d1061399357613918612131565b60043d036004823e80513d602482011167ffffffffffffffff82111715613940575050613993565b808201805167ffffffffffffffff81111561395e5750505050613993565b80602083010160043d03850181111561397b575050505050613993565b61398a82602001850186612348565b82955050505050505b90565b7f455243313135353a207472616e7366657220746f206e6f6e204552433131353560008201527f526563656976657220696d706c656d656e746572000000000000000000000000602082015250565b60006139f2603483612498565b91506139fd82613996565b604082019050919050565b60006020820190508181036000830152613a21816139e5565b9050919050565b7f455243313135353a204552433131353552656365697665722072656a6563746560008201527f6420746f6b656e73000000000000000000000000000000000000000000000000602082015250565b6000613a84602883612498565b9150613a8f82613a28565b604082019050919050565b60006020820190508181036000830152613ab381613a77565b9050919050565b600060a082019050613acf60008301886137c9565b613adc60208301876137c9565b613ae96040830186612219565b613af66060830185612219565b8181036080830152613b0881846137f4565b90509695505050505050565b6000613b1f826121a3565b9150613b2a836121a3565b9250817fffffffffffffffffffffffffffffffffffffffffffffffffffffffffffffffff0483118215151615613b6357613b62613009565b5b828202905092915050565b6000613b79826121a3565b915060008203613b8c57613b8b613009565b5b600182039050919050565b7f537472696e67733a20686578206c656e67746820696e73756666696369656e74600082015250565b6000613bcd602083612498565b9150613bd882613b97565b602082019050919050565b60006020820190508181036000830152613bfc81613bc0565b905091905056fea264697066735822122063589a899747dbf0734d5466b0bcccd6e3f0db2bc36ae4333d3ebae9c429761064736f6c634300080f0033446f6f6d736461793a20416476656e7475726520496e746f2054686520476c6f6f6d797665727365",
  "linkReferences": {},
  "deployedLinkReferences": {}
}