{
  "_format": "hh-sol-artifact-1",
  "contractName": "DoomsDay",
  "sourceName": "contracts/DoomsDay.sol",
  "abi": [
    {
      "inputs": [
        {
          "internalType": "string",
          "name": "uri",
          "type": "string"
        }
      ],
      "stateMutability": "nonpayable",
      "type": "constructor"
    },
    {
      "inputs": [],
      "name": "NotAuthorized",
      "type": "error"
    },
    {
      "anonymous": false,
      "inputs": [
        {
          "indexed": true,
          "internalType": "address",
          "name": "account",
          "type": "address"
        },
        {
          "indexed": true,
          "internalType": "address",
          "name": "operator",
          "type": "address"
        },
        {
          "indexed": false,
          "internalType": "bool",
          "name": "approved",
          "type": "bool"
        }
      ],
      "name": "ApprovalForAll",
      "type": "event"
    },
    {
      "anonymous": false,
      "inputs": [
        {
          "indexed": true,
          "internalType": "bytes32",
          "name": "role",
          "type": "bytes32"
        },
        {
          "indexed": true,
          "internalType": "bytes32",
          "name": "previousAdminRole",
          "type": "bytes32"
        },
        {
          "indexed": true,
          "internalType": "bytes32",
          "name": "newAdminRole",
          "type": "bytes32"
        }
      ],
      "name": "RoleAdminChanged",
      "type": "event"
    },
    {
      "anonymous": false,
      "inputs": [
        {
          "indexed": true,
          "internalType": "bytes32",
          "name": "role",
          "type": "bytes32"
        },
        {
          "indexed": true,
          "internalType": "address",
          "name": "account",
          "type": "address"
        },
        {
          "indexed": true,
          "internalType": "address",
          "name": "sender",
          "type": "address"
        }
      ],
      "name": "RoleGranted",
      "type": "event"
    },
    {
      "anonymous": false,
      "inputs": [
        {
          "indexed": true,
          "internalType": "bytes32",
          "name": "role",
          "type": "bytes32"
        },
        {
          "indexed": true,
          "internalType": "address",
          "name": "account",
          "type": "address"
        },
        {
          "indexed": true,
          "internalType": "address",
          "name": "sender",
          "type": "address"
        }
      ],
      "name": "RoleRevoked",
      "type": "event"
    },
    {
      "anonymous": false,
      "inputs": [
        {
          "indexed": true,
          "internalType": "address",
          "name": "operator",
          "type": "address"
        },
        {
          "indexed": true,
          "internalType": "address",
          "name": "from",
          "type": "address"
        },
        {
          "indexed": true,
          "internalType": "address",
          "name": "to",
          "type": "address"
        },
        {
          "indexed": false,
          "internalType": "uint256[]",
          "name": "ids",
          "type": "uint256[]"
        },
        {
          "indexed": false,
          "internalType": "uint256[]",
          "name": "values",
          "type": "uint256[]"
        }
      ],
      "name": "TransferBatch",
      "type": "event"
    },
    {
      "anonymous": false,
      "inputs": [
        {
          "indexed": true,
          "internalType": "address",
          "name": "operator",
          "type": "address"
        },
        {
          "indexed": true,
          "internalType": "address",
          "name": "from",
          "type": "address"
        },
        {
          "indexed": true,
          "internalType": "address",
          "name": "to",
          "type": "address"
        },
        {
          "indexed": false,
          "internalType": "uint256",
          "name": "id",
          "type": "uint256"
        },
        {
          "indexed": false,
          "internalType": "uint256",
          "name": "value",
          "type": "uint256"
        }
      ],
      "name": "TransferSingle",
      "type": "event"
    },
    {
      "anonymous": false,
      "inputs": [
        {
          "indexed": false,
          "internalType": "string",
          "name": "value",
          "type": "string"
        },
        {
          "indexed": true,
          "internalType": "uint256",
          "name": "id",
          "type": "uint256"
        }
      ],
      "name": "URI",
      "type": "event"
    },
    {
      "inputs": [],
      "name": "DEFAULT_ADMIN_ROLE",
      "outputs": [
        {
          "internalType": "bytes32",
          "name": "",
          "type": "bytes32"
        }
      ],
      "stateMutability": "view",
      "type": "function"
    },
    {
      "inputs": [
        {
          "internalType": "uint256",
          "name": "tokenId",
          "type": "uint256"
        },
        {
          "internalType": "address[]",
          "name": "winners",
          "type": "address[]"
        }
      ],
      "name": "addWhitelist",
      "outputs": [],
      "stateMutability": "nonpayable",
      "type": "function"
    },
    {
      "inputs": [
        {
          "internalType": "address",
          "name": "account",
          "type": "address"
        },
        {
          "internalType": "uint256",
          "name": "id",
          "type": "uint256"
        }
      ],
      "name": "balanceOf",
      "outputs": [
        {
          "internalType": "uint256",
          "name": "",
          "type": "uint256"
        }
      ],
      "stateMutability": "view",
      "type": "function"
    },
    {
      "inputs": [
        {
          "internalType": "address[]",
          "name": "accounts",
          "type": "address[]"
        },
        {
          "internalType": "uint256[]",
          "name": "ids",
          "type": "uint256[]"
        }
      ],
      "name": "balanceOfBatch",
      "outputs": [
        {
          "internalType": "uint256[]",
          "name": "",
          "type": "uint256[]"
        }
      ],
      "stateMutability": "view",
      "type": "function"
    },
    {
      "inputs": [
        {
          "internalType": "bytes32",
          "name": "role",
          "type": "bytes32"
        }
      ],
      "name": "getRoleAdmin",
      "outputs": [
        {
          "internalType": "bytes32",
          "name": "",
          "type": "bytes32"
        }
      ],
      "stateMutability": "view",
      "type": "function"
    },
    {
      "inputs": [
        {
          "internalType": "bytes32",
          "name": "role",
          "type": "bytes32"
        },
        {
          "internalType": "address",
          "name": "account",
          "type": "address"
        }
      ],
      "name": "grantRole",
      "outputs": [],
      "stateMutability": "nonpayable",
      "type": "function"
    },
    {
      "inputs": [
        {
          "internalType": "bytes32",
          "name": "role",
          "type": "bytes32"
        },
        {
          "internalType": "address",
          "name": "account",
          "type": "address"
        }
      ],
      "name": "hasRole",
      "outputs": [
        {
          "internalType": "bool",
          "name": "",
          "type": "bool"
        }
      ],
      "stateMutability": "view",
      "type": "function"
    },
    {
      "inputs": [
        {
          "internalType": "address",
          "name": "account",
          "type": "address"
        },
        {
          "internalType": "address",
          "name": "operator",
          "type": "address"
        }
      ],
      "name": "isApprovedForAll",
      "outputs": [
        {
          "internalType": "bool",
          "name": "",
          "type": "bool"
        }
      ],
      "stateMutability": "view",
      "type": "function"
    },
    {
      "inputs": [
        {
          "internalType": "uint256",
          "name": "tokenId",
          "type": "uint256"
        },
        {
          "internalType": "bytes",
          "name": "data",
          "type": "bytes"
        }
      ],
      "name": "mint",
      "outputs": [],
      "stateMutability": "nonpayable",
      "type": "function"
    },
    {
      "inputs": [],
      "name": "name",
      "outputs": [
        {
          "internalType": "string",
          "name": "",
          "type": "string"
        }
      ],
      "stateMutability": "view",
      "type": "function"
    },
    {
      "inputs": [
        {
          "internalType": "bytes32",
          "name": "role",
          "type": "bytes32"
        },
        {
          "internalType": "address",
          "name": "account",
          "type": "address"
        }
      ],
      "name": "renounceRole",
      "outputs": [],
      "stateMutability": "nonpayable",
      "type": "function"
    },
    {
      "inputs": [
        {
          "internalType": "bytes32",
          "name": "role",
          "type": "bytes32"
        },
        {
          "internalType": "address",
          "name": "account",
          "type": "address"
        }
      ],
      "name": "revokeRole",
      "outputs": [],
      "stateMutability": "nonpayable",
      "type": "function"
    },
    {
      "inputs": [
        {
          "internalType": "address",
          "name": "from",
          "type": "address"
        },
        {
          "internalType": "address",
          "name": "to",
          "type": "address"
        },
        {
          "internalType": "uint256[]",
          "name": "ids",
          "type": "uint256[]"
        },
        {
          "internalType": "uint256[]",
          "name": "amounts",
          "type": "uint256[]"
        },
        {
          "internalType": "bytes",
          "name": "data",
          "type": "bytes"
        }
      ],
      "name": "safeBatchTransferFrom",
      "outputs": [],
      "stateMutability": "nonpayable",
      "type": "function"
    },
    {
      "inputs": [
        {
          "internalType": "address",
          "name": "from",
          "type": "address"
        },
        {
          "internalType": "address",
          "name": "to",
          "type": "address"
        },
        {
          "internalType": "uint256",
          "name": "id",
          "type": "uint256"
        },
        {
          "internalType": "uint256",
          "name": "amount",
          "type": "uint256"
        },
        {
          "internalType": "bytes",
          "name": "data",
          "type": "bytes"
        }
      ],
      "name": "safeTransferFrom",
      "outputs": [],
      "stateMutability": "nonpayable",
      "type": "function"
    },
    {
      "inputs": [
        {
          "internalType": "address",
          "name": "operator",
          "type": "address"
        },
        {
          "internalType": "bool",
          "name": "approved",
          "type": "bool"
        }
      ],
      "name": "setApprovalForAll",
      "outputs": [],
      "stateMutability": "nonpayable",
      "type": "function"
    },
    {
      "inputs": [
        {
          "internalType": "string",
          "name": "newuri",
          "type": "string"
        }
      ],
      "name": "setURI",
      "outputs": [],
      "stateMutability": "nonpayable",
      "type": "function"
    },
    {
      "inputs": [
        {
          "internalType": "bytes4",
          "name": "interfaceId",
          "type": "bytes4"
        }
      ],
      "name": "supportsInterface",
      "outputs": [
        {
          "internalType": "bool",
          "name": "",
          "type": "bool"
        }
      ],
      "stateMutability": "view",
      "type": "function"
    },
    {
      "inputs": [],
      "name": "symbol",
      "outputs": [
        {
          "internalType": "string",
          "name": "",
          "type": "string"
        }
      ],
      "stateMutability": "view",
      "type": "function"
    },
    {
      "inputs": [
        {
          "internalType": "uint256",
          "name": "",
          "type": "uint256"
        }
      ],
      "name": "uri",
      "outputs": [
        {
          "internalType": "string",
          "name": "",
          "type": "string"
        }
      ],
      "stateMutability": "view",
      "type": "function"
    }
  ],
  "bytecode": "0x60806040526040518060600160405280602881526020016200426060289139600490816200002e9190620004f1565b506040518060400160405280600481526020017f474d56530000000000000000000000000000000000000000000000000000000081525060059081620000759190620004f1565b503480156200008357600080fd5b5060405162004288380380620042888339818101604052810190620000a9919062000746565b80620000bb81620000e760201b60201c565b50620000e06000801b620000d4620000fc60201b60201c565b6200010460201b60201c565b5062000797565b8060029081620000f89190620004f1565b5050565b600033905090565b6200011682826200011a60201b60201c565b5050565b6200012c82826200020c60201b60201c565b620002085760016003600084815260200190815260200160002060000160008373ffffffffffffffffffffffffffffffffffffffff1673ffffffffffffffffffffffffffffffffffffffff16815260200190815260200160002060006101000a81548160ff021916908315150217905550620001ad620000fc60201b60201c565b73ffffffffffffffffffffffffffffffffffffffff168173ffffffffffffffffffffffffffffffffffffffff16837f2f8788117e7eff1d82e926ec794901d17c78024a50270940304540a733656f0d60405160405180910390a45b5050565b60006003600084815260200190815260200160002060000160008373ffffffffffffffffffffffffffffffffffffffff1673ffffffffffffffffffffffffffffffffffffffff16815260200190815260200160002060009054906101000a900460ff16905092915050565b600081519050919050565b7f4e487b7100000000000000000000000000000000000000000000000000000000600052604160045260246000fd5b7f4e487b7100000000000000000000000000000000000000000000000000000000600052602260045260246000fd5b60006002820490506001821680620002f957607f821691505b6020821081036200030f576200030e620002b1565b5b50919050565b60008190508160005260206000209050919050565b60006020601f8301049050919050565b600082821b905092915050565b600060088302620003797fffffffffffffffffffffffffffffffffffffffffffffffffffffffffffffffff826200033a565b6200038586836200033a565b95508019841693508086168417925050509392505050565b6000819050919050565b6000819050919050565b6000620003d2620003cc620003c6846200039d565b620003a7565b6200039d565b9050919050565b6000819050919050565b620003ee83620003b1565b62000406620003fd82620003d9565b84845462000347565b825550505050565b600090565b6200041d6200040e565b6200042a818484620003e3565b505050565b5b8181101562000452576200044660008262000413565b60018101905062000430565b5050565b601f821115620004a1576200046b8162000315565b62000476846200032a565b8101602085101562000486578190505b6200049e62000495856200032a565b8301826200042f565b50505b505050565b600082821c905092915050565b6000620004c660001984600802620004a6565b1980831691505092915050565b6000620004e18383620004b3565b9150826002028217905092915050565b620004fc8262000277565b67ffffffffffffffff81111562000518576200051762000282565b5b620005248254620002e0565b6200053182828562000456565b600060209050601f83116001811462000569576000841562000554578287015190505b620005608582620004d3565b865550620005d0565b601f198416620005798662000315565b60005b82811015620005a3578489015182556001820191506020850194506020810190506200057c565b86831015620005c35784890151620005bf601f891682620004b3565b8355505b6001600288020188555050505b505050505050565b6000604051905090565b600080fd5b600080fd5b600080fd5b600080fd5b6000601f19601f8301169050919050565b6200061282620005f6565b810181811067ffffffffffffffff8211171562000634576200063362000282565b5b80604052505050565b600062000649620005d8565b905062000657828262000607565b919050565b600067ffffffffffffffff8211156200067a576200067962000282565b5b6200068582620005f6565b9050602081019050919050565b60005b83811015620006b257808201518184015260208101905062000695565b83811115620006c2576000848401525b50505050565b6000620006df620006d9846200065c565b6200063d565b905082815260208101848484011115620006fe57620006fd620005f1565b5b6200070b84828562000692565b509392505050565b600082601f8301126200072b576200072a620005ec565b5b81516200073d848260208601620006c8565b91505092915050565b6000602082840312156200075f576200075e620005e2565b5b600082015167ffffffffffffffff81111562000780576200077f620005e7565b5b6200078e8482850162000713565b91505092915050565b613ab980620007a76000396000f3fe608060405234801561001057600080fd5b50600436106101205760003560e01c80634e1273f4116100ad578063a22cb46511610071578063a22cb4651461032b578063d547741f14610347578063db7fd40814610363578063e985e9c51461037f578063f242432a146103af57610120565b80634e1273f4146102735780638aa1e44e146102a357806391d14854146102bf57806395d89b41146102ef578063a217fddf1461030d57610120565b80630e89341c116100f45780630e89341c146101bf578063248a9ca3146101ef5780632eb2c2d61461021f5780632f2ff15d1461023b57806336568abe1461025757610120565b8062fdd58e1461012557806301ffc9a71461015557806302fe53051461018557806306fdde03146101a1575b600080fd5b61013f600480360381019061013a91906120ad565b6103cb565b60405161014c91906120fc565b60405180910390f35b61016f600480360381019061016a919061216f565b610493565b60405161017c91906121b7565b60405180910390f35b61019f600480360381019061019a9190612318565b6104a5565b005b6101a96104bf565b6040516101b691906123e9565b60405180910390f35b6101d960048036038101906101d4919061240b565b61054d565b6040516101e691906123e9565b60405180910390f35b6102096004803603810190610204919061246e565b6105e1565b60405161021691906124aa565b60405180910390f35b6102396004803603810190610234919061262e565b610601565b005b610255600480360381019061025091906126fd565b6106a2565b005b610271600480360381019061026c91906126fd565b6106c3565b005b61028d60048036038101906102889190612800565b610746565b60405161029a9190612936565b60405180910390f35b6102bd60048036038101906102b891906129b3565b61085f565b005b6102d960048036038101906102d491906126fd565b610922565b6040516102e691906121b7565b60405180910390f35b6102f761098d565b60405161030491906123e9565b60405180910390f35b610315610a1b565b60405161032291906124aa565b60405180910390f35b61034560048036038101906103409190612a3f565b610a22565b005b610361600480360381019061035c91906126fd565b610a38565b005b61037d60048036038101906103789190612a7f565b610a59565b005b61039960048036038101906103949190612adb565b610b0c565b6040516103a691906121b7565b60405180910390f35b6103c960048036038101906103c49190612b1b565b610ba0565b005b60008073ffffffffffffffffffffffffffffffffffffffff168373ffffffffffffffffffffffffffffffffffffffff160361043b576040517f08c379a000000000000000000000000000000000000000000000000000000000815260040161043290612c24565b60405180910390fd5b60008083815260200190815260200160002060008473ffffffffffffffffffffffffffffffffffffffff1673ffffffffffffffffffffffffffffffffffffffff16815260200190815260200160002054905092915050565b600061049e82610c41565b9050919050565b6000801b6104b281610cbb565b6104bb82610ccf565b5050565b600480546104cc90612c73565b80601f01602080910402602001604051908101604052809291908181526020018280546104f890612c73565b80156105455780601f1061051a57610100808354040283529160200191610545565b820191906000526020600020905b81548152906001019060200180831161052857829003601f168201915b505050505081565b60606002805461055c90612c73565b80601f016020809104026020016040519081016040528092919081815260200182805461058890612c73565b80156105d55780601f106105aa576101008083540402835291602001916105d5565b820191906000526020600020905b8154815290600101906020018083116105b857829003601f168201915b50505050509050919050565b600060036000838152602001908152602001600020600101549050919050565b610609610ce2565b73ffffffffffffffffffffffffffffffffffffffff168573ffffffffffffffffffffffffffffffffffffffff16148061064f575061064e85610649610ce2565b610b0c565b5b61068e576040517f08c379a000000000000000000000000000000000000000000000000000000000815260040161068590612d16565b60405180910390fd5b61069b8585858585610cea565b5050505050565b6106ab826105e1565b6106b481610cbb565b6106be838361100b565b505050565b6106cb610ce2565b73ffffffffffffffffffffffffffffffffffffffff168173ffffffffffffffffffffffffffffffffffffffff1614610738576040517f08c379a000000000000000000000000000000000000000000000000000000000815260040161072f90612da8565b60405180910390fd5b61074282826110ec565b5050565b6060815183511461078c576040517f08c379a000000000000000000000000000000000000000000000000000000000815260040161078390612e3a565b60405180910390fd5b6000835167ffffffffffffffff8111156107a9576107a86121ed565b5b6040519080825280602002602001820160405280156107d75781602001602082028036833780820191505090505b50905060005b8451811015610854576108248582815181106107fc576107fb612e5a565b5b602002602001015185838151811061081757610816612e5a565b5b60200260200101516103cb565b82828151811061083757610836612e5a565b5b6020026020010181815250508061084d90612eb8565b90506107dd565b508091505092915050565b6000801b61086c81610cbb565b600083839050905060005b8181101561091a5760016006600088815260200190815260200160002060008787858181106108a9576108a8612e5a565b5b90506020020160208101906108be9190612f00565b73ffffffffffffffffffffffffffffffffffffffff1673ffffffffffffffffffffffffffffffffffffffff16815260200190815260200160002060006101000a81548160ff021916908315150217905550806001019050610877565b505050505050565b60006003600084815260200190815260200160002060000160008373ffffffffffffffffffffffffffffffffffffffff1673ffffffffffffffffffffffffffffffffffffffff16815260200190815260200160002060009054906101000a900460ff16905092915050565b6005805461099a90612c73565b80601f01602080910402602001604051908101604052809291908181526020018280546109c690612c73565b8015610a135780601f106109e857610100808354040283529160200191610a13565b820191906000526020600020905b8154815290600101906020018083116109f657829003601f168201915b505050505081565b6000801b81565b610a34610a2d610ce2565b83836111ce565b5050565b610a41826105e1565b610a4a81610cbb565b610a5483836110ec565b505050565b600660008381526020019081526020016000206000610a76610ce2565b73ffffffffffffffffffffffffffffffffffffffff1673ffffffffffffffffffffffffffffffffffffffff16815260200190815260200160002060009054906101000a900460ff16610af4576040517fea8e4eb500000000000000000000000000000000000000000000000000000000815260040160405180910390fd5b610b08610aff610ce2565b8360018461133a565b5050565b6000600160008473ffffffffffffffffffffffffffffffffffffffff1673ffffffffffffffffffffffffffffffffffffffff16815260200190815260200160002060008373ffffffffffffffffffffffffffffffffffffffff1673ffffffffffffffffffffffffffffffffffffffff16815260200190815260200160002060009054906101000a900460ff16905092915050565b610ba8610ce2565b73ffffffffffffffffffffffffffffffffffffffff168573ffffffffffffffffffffffffffffffffffffffff161480610bee5750610bed85610be8610ce2565b610b0c565b5b610c2d576040517f08c379a0000000000000000000000000000000000000000000000000000000008152600401610c2490612d16565b60405180910390fd5b610c3a85858585856114ea565b5050505050565b60007f7965db0b000000000000000000000000000000000000000000000000000000007bffffffffffffffffffffffffffffffffffffffffffffffffffffffff1916827bffffffffffffffffffffffffffffffffffffffffffffffffffffffff19161480610cb45750610cb382611785565b5b9050919050565b610ccc81610cc7610ce2565b611867565b50565b8060029081610cde91906130d9565b5050565b600033905090565b8151835114610d2e576040517f08c379a0000000000000000000000000000000000000000000000000000000008152600401610d259061321d565b60405180910390fd5b600073ffffffffffffffffffffffffffffffffffffffff168473ffffffffffffffffffffffffffffffffffffffff1603610d9d576040517f08c379a0000000000000000000000000000000000000000000000000000000008152600401610d94906132af565b60405180910390fd5b6000610da7610ce2565b9050610db7818787878787611904565b60005b8451811015610f68576000858281518110610dd857610dd7612e5a565b5b602002602001015190506000858381518110610df757610df6612e5a565b5b60200260200101519050600080600084815260200190815260200160002060008b73ffffffffffffffffffffffffffffffffffffffff1673ffffffffffffffffffffffffffffffffffffffff16815260200190815260200160002054905081811015610e98576040517f08c379a0000000000000000000000000000000000000000000000000000000008152600401610e8f90613341565b60405180910390fd5b81810360008085815260200190815260200160002060008c73ffffffffffffffffffffffffffffffffffffffff1673ffffffffffffffffffffffffffffffffffffffff168152602001908152602001600020819055508160008085815260200190815260200160002060008b73ffffffffffffffffffffffffffffffffffffffff1673ffffffffffffffffffffffffffffffffffffffff1681526020019081526020016000206000828254610f4d9190613361565b9250508190555050505080610f6190612eb8565b9050610dba565b508473ffffffffffffffffffffffffffffffffffffffff168673ffffffffffffffffffffffffffffffffffffffff168273ffffffffffffffffffffffffffffffffffffffff167f4a39dc06d4c0dbc64b70af90fd698a233a518aa5d07e595d983b8c0526c8f7fb8787604051610fdf9291906133b7565b60405180910390a4610ff581878787878761190c565b611003818787878787611914565b505050505050565b6110158282610922565b6110e85760016003600084815260200190815260200160002060000160008373ffffffffffffffffffffffffffffffffffffffff1673ffffffffffffffffffffffffffffffffffffffff16815260200190815260200160002060006101000a81548160ff02191690831515021790555061108d610ce2565b73ffffffffffffffffffffffffffffffffffffffff168173ffffffffffffffffffffffffffffffffffffffff16837f2f8788117e7eff1d82e926ec794901d17c78024a50270940304540a733656f0d60405160405180910390a45b5050565b6110f68282610922565b156111ca5760006003600084815260200190815260200160002060000160008373ffffffffffffffffffffffffffffffffffffffff1673ffffffffffffffffffffffffffffffffffffffff16815260200190815260200160002060006101000a81548160ff02191690831515021790555061116f610ce2565b73ffffffffffffffffffffffffffffffffffffffff168173ffffffffffffffffffffffffffffffffffffffff16837ff6391f5c32d9c69d2a47ea670b442974b53935d1edc7fd64eb21e047a839171b60405160405180910390a45b5050565b8173ffffffffffffffffffffffffffffffffffffffff168373ffffffffffffffffffffffffffffffffffffffff160361123c576040517f08c379a000000000000000000000000000000000000000000000000000000000815260040161123390613460565b60405180910390fd5b80600160008573ffffffffffffffffffffffffffffffffffffffff1673ffffffffffffffffffffffffffffffffffffffff16815260200190815260200160002060008473ffffffffffffffffffffffffffffffffffffffff1673ffffffffffffffffffffffffffffffffffffffff16815260200190815260200160002060006101000a81548160ff0219169083151502179055508173ffffffffffffffffffffffffffffffffffffffff168373ffffffffffffffffffffffffffffffffffffffff167f17307eab39ab6107e8899845ad3d59bd9653f200f220920489ca2b5937696c318360405161132d91906121b7565b60405180910390a3505050565b600073ffffffffffffffffffffffffffffffffffffffff168473ffffffffffffffffffffffffffffffffffffffff16036113a9576040517f08c379a00000000000000000000000000000000000000000000000000000000081526004016113a0906134f2565b60405180910390fd5b60006113b3610ce2565b905060006113c085611aeb565b905060006113cd85611aeb565b90506113de83600089858589611904565b8460008088815260200190815260200160002060008973ffffffffffffffffffffffffffffffffffffffff1673ffffffffffffffffffffffffffffffffffffffff168152602001908152602001600020600082825461143d9190613361565b925050819055508673ffffffffffffffffffffffffffffffffffffffff16600073ffffffffffffffffffffffffffffffffffffffff168473ffffffffffffffffffffffffffffffffffffffff167fc3d58168c5ae7397731d063d5bbf3d657854427343f4c083240f7aacaa2d0f6289896040516114bb929190613512565b60405180910390a46114d28360008985858961190c565b6114e183600089898989611b65565b50505050505050565b600073ffffffffffffffffffffffffffffffffffffffff168473ffffffffffffffffffffffffffffffffffffffff1603611559576040517f08c379a0000000000000000000000000000000000000000000000000000000008152600401611550906132af565b60405180910390fd5b6000611563610ce2565b9050600061157085611aeb565b9050600061157d85611aeb565b905061158d838989858589611904565b600080600088815260200190815260200160002060008a73ffffffffffffffffffffffffffffffffffffffff1673ffffffffffffffffffffffffffffffffffffffff16815260200190815260200160002054905085811015611624576040517f08c379a000000000000000000000000000000000000000000000000000000000815260040161161b90613341565b60405180910390fd5b85810360008089815260200190815260200160002060008b73ffffffffffffffffffffffffffffffffffffffff1673ffffffffffffffffffffffffffffffffffffffff168152602001908152602001600020819055508560008089815260200190815260200160002060008a73ffffffffffffffffffffffffffffffffffffffff1673ffffffffffffffffffffffffffffffffffffffff16815260200190815260200160002060008282546116d99190613361565b925050819055508773ffffffffffffffffffffffffffffffffffffffff168973ffffffffffffffffffffffffffffffffffffffff168573ffffffffffffffffffffffffffffffffffffffff167fc3d58168c5ae7397731d063d5bbf3d657854427343f4c083240f7aacaa2d0f628a8a604051611756929190613512565b60405180910390a461176c848a8a86868a61190c565b61177a848a8a8a8a8a611b65565b505050505050505050565b60007fd9b67a26000000000000000000000000000000000000000000000000000000007bffffffffffffffffffffffffffffffffffffffffffffffffffffffff1916827bffffffffffffffffffffffffffffffffffffffffffffffffffffffff1916148061185057507f0e89341c000000000000000000000000000000000000000000000000000000007bffffffffffffffffffffffffffffffffffffffffffffffffffffffff1916827bffffffffffffffffffffffffffffffffffffffffffffffffffffffff1916145b80611860575061185f82611d3c565b5b9050919050565b6118718282610922565b611900576118968173ffffffffffffffffffffffffffffffffffffffff166014611da6565b6118a48360001c6020611da6565b6040516020016118b592919061360f565b6040516020818303038152906040526040517f08c379a00000000000000000000000000000000000000000000000000000000081526004016118f791906123e9565b60405180910390fd5b5050565b505050505050565b505050505050565b6119338473ffffffffffffffffffffffffffffffffffffffff16611fe2565b15611ae3578373ffffffffffffffffffffffffffffffffffffffff1663bc197c8187878686866040518663ffffffff1660e01b81526004016119799594939291906136ad565b6020604051808303816000875af19250505080156119b557506040513d601f19601f820116820180604052508101906119b2919061372a565b60015b611a5a576119c1613764565b806308c379a003611a1d57506119d5613786565b806119e05750611a1f565b806040517f08c379a0000000000000000000000000000000000000000000000000000000008152600401611a1491906123e9565b60405180910390fd5b505b6040517f08c379a0000000000000000000000000000000000000000000000000000000008152600401611a5190613888565b60405180910390fd5b63bc197c8160e01b7bffffffffffffffffffffffffffffffffffffffffffffffffffffffff1916817bffffffffffffffffffffffffffffffffffffffffffffffffffffffff191614611ae1576040517f08c379a0000000000000000000000000000000000000000000000000000000008152600401611ad89061391a565b60405180910390fd5b505b505050505050565b60606000600167ffffffffffffffff811115611b0a57611b096121ed565b5b604051908082528060200260200182016040528015611b385781602001602082028036833780820191505090505b5090508281600081518110611b5057611b4f612e5a565b5b60200260200101818152505080915050919050565b611b848473ffffffffffffffffffffffffffffffffffffffff16611fe2565b15611d34578373ffffffffffffffffffffffffffffffffffffffff1663f23a6e6187878686866040518663ffffffff1660e01b8152600401611bca95949392919061393a565b6020604051808303816000875af1925050508015611c0657506040513d601f19601f82011682018060405250810190611c03919061372a565b60015b611cab57611c12613764565b806308c379a003611c6e5750611c26613786565b80611c315750611c70565b806040517f08c379a0000000000000000000000000000000000000000000000000000000008152600401611c6591906123e9565b60405180910390fd5b505b6040517f08c379a0000000000000000000000000000000000000000000000000000000008152600401611ca290613888565b60405180910390fd5b63f23a6e6160e01b7bffffffffffffffffffffffffffffffffffffffffffffffffffffffff1916817bffffffffffffffffffffffffffffffffffffffffffffffffffffffff191614611d32576040517f08c379a0000000000000000000000000000000000000000000000000000000008152600401611d299061391a565b60405180910390fd5b505b505050505050565b60007f01ffc9a7000000000000000000000000000000000000000000000000000000007bffffffffffffffffffffffffffffffffffffffffffffffffffffffff1916827bffffffffffffffffffffffffffffffffffffffffffffffffffffffff1916149050919050565b606060006002836002611db99190613994565b611dc39190613361565b67ffffffffffffffff811115611ddc57611ddb6121ed565b5b6040519080825280601f01601f191660200182016040528015611e0e5781602001600182028036833780820191505090505b5090507f300000000000000000000000000000000000000000000000000000000000000081600081518110611e4657611e45612e5a565b5b60200101907effffffffffffffffffffffffffffffffffffffffffffffffffffffffffffff1916908160001a9053507f780000000000000000000000000000000000000000000000000000000000000081600181518110611eaa57611ea9612e5a565b5b60200101907effffffffffffffffffffffffffffffffffffffffffffffffffffffffffffff1916908160001a90535060006001846002611eea9190613994565b611ef49190613361565b90505b6001811115611f94577f3031323334353637383961626364656600000000000000000000000000000000600f861660108110611f3657611f35612e5a565b5b1a60f81b828281518110611f4d57611f4c612e5a565b5b60200101907effffffffffffffffffffffffffffffffffffffffffffffffffffffffffffff1916908160001a905350600485901c945080611f8d906139ee565b9050611ef7565b5060008414611fd8576040517f08c379a0000000000000000000000000000000000000000000000000000000008152600401611fcf90613a63565b60405180910390fd5b8091505092915050565b6000808273ffffffffffffffffffffffffffffffffffffffff163b119050919050565b6000604051905090565b600080fd5b600080fd5b600073ffffffffffffffffffffffffffffffffffffffff82169050919050565b600061204482612019565b9050919050565b61205481612039565b811461205f57600080fd5b50565b6000813590506120718161204b565b92915050565b6000819050919050565b61208a81612077565b811461209557600080fd5b50565b6000813590506120a781612081565b92915050565b600080604083850312156120c4576120c361200f565b5b60006120d285828601612062565b92505060206120e385828601612098565b9150509250929050565b6120f681612077565b82525050565b600060208201905061211160008301846120ed565b92915050565b60007fffffffff0000000000000000000000000000000000000000000000000000000082169050919050565b61214c81612117565b811461215757600080fd5b50565b60008135905061216981612143565b92915050565b6000602082840312156121855761218461200f565b5b60006121938482850161215a565b91505092915050565b60008115159050919050565b6121b18161219c565b82525050565b60006020820190506121cc60008301846121a8565b92915050565b600080fd5b600080fd5b6000601f19601f8301169050919050565b7f4e487b7100000000000000000000000000000000000000000000000000000000600052604160045260246000fd5b612225826121dc565b810181811067ffffffffffffffff82111715612244576122436121ed565b5b80604052505050565b6000612257612005565b9050612263828261221c565b919050565b600067ffffffffffffffff821115612283576122826121ed565b5b61228c826121dc565b9050602081019050919050565b82818337600083830152505050565b60006122bb6122b684612268565b61224d565b9050828152602081018484840111156122d7576122d66121d7565b5b6122e2848285612299565b509392505050565b600082601f8301126122ff576122fe6121d2565b5b813561230f8482602086016122a8565b91505092915050565b60006020828403121561232e5761232d61200f565b5b600082013567ffffffffffffffff81111561234c5761234b612014565b5b612358848285016122ea565b91505092915050565b600081519050919050565b600082825260208201905092915050565b60005b8381101561239b578082015181840152602081019050612380565b838111156123aa576000848401525b50505050565b60006123bb82612361565b6123c5818561236c565b93506123d581856020860161237d565b6123de816121dc565b840191505092915050565b6000602082019050818103600083015261240381846123b0565b905092915050565b6000602082840312156124215761242061200f565b5b600061242f84828501612098565b91505092915050565b6000819050919050565b61244b81612438565b811461245657600080fd5b50565b60008135905061246881612442565b92915050565b6000602082840312156124845761248361200f565b5b600061249284828501612459565b91505092915050565b6124a481612438565b82525050565b60006020820190506124bf600083018461249b565b92915050565b600067ffffffffffffffff8211156124e0576124df6121ed565b5b602082029050602081019050919050565b600080fd5b6000612509612504846124c5565b61224d565b9050808382526020820190506020840283018581111561252c5761252b6124f1565b5b835b8181101561255557806125418882612098565b84526020840193505060208101905061252e565b5050509392505050565b600082601f830112612574576125736121d2565b5b81356125848482602086016124f6565b91505092915050565b600067ffffffffffffffff8211156125a8576125a76121ed565b5b6125b1826121dc565b9050602081019050919050565b60006125d16125cc8461258d565b61224d565b9050828152602081018484840111156125ed576125ec6121d7565b5b6125f8848285612299565b509392505050565b600082601f830112612615576126146121d2565b5b81356126258482602086016125be565b91505092915050565b600080600080600060a0868803121561264a5761264961200f565b5b600061265888828901612062565b955050602061266988828901612062565b945050604086013567ffffffffffffffff81111561268a57612689612014565b5b6126968882890161255f565b935050606086013567ffffffffffffffff8111156126b7576126b6612014565b5b6126c38882890161255f565b925050608086013567ffffffffffffffff8111156126e4576126e3612014565b5b6126f088828901612600565b9150509295509295909350565b600080604083850312156127145761271361200f565b5b600061272285828601612459565b925050602061273385828601612062565b9150509250929050565b600067ffffffffffffffff821115612758576127576121ed565b5b602082029050602081019050919050565b600061277c6127778461273d565b61224d565b9050808382526020820190506020840283018581111561279f5761279e6124f1565b5b835b818110156127c857806127b48882612062565b8452602084019350506020810190506127a1565b5050509392505050565b600082601f8301126127e7576127e66121d2565b5b81356127f7848260208601612769565b91505092915050565b600080604083850312156128175761281661200f565b5b600083013567ffffffffffffffff81111561283557612834612014565b5b612841858286016127d2565b925050602083013567ffffffffffffffff81111561286257612861612014565b5b61286e8582860161255f565b9150509250929050565b600081519050919050565b600082825260208201905092915050565b6000819050602082019050919050565b6128ad81612077565b82525050565b60006128bf83836128a4565b60208301905092915050565b6000602082019050919050565b60006128e382612878565b6128ed8185612883565b93506128f883612894565b8060005b8381101561292957815161291088826128b3565b975061291b836128cb565b9250506001810190506128fc565b5085935050505092915050565b6000602082019050818103600083015261295081846128d8565b905092915050565b600080fd5b60008083601f840112612973576129726121d2565b5b8235905067ffffffffffffffff8111156129905761298f612958565b5b6020830191508360208202830111156129ac576129ab6124f1565b5b9250929050565b6000806000604084860312156129cc576129cb61200f565b5b60006129da86828701612098565b935050602084013567ffffffffffffffff8111156129fb576129fa612014565b5b612a078682870161295d565b92509250509250925092565b612a1c8161219c565b8114612a2757600080fd5b50565b600081359050612a3981612a13565b92915050565b60008060408385031215612a5657612a5561200f565b5b6000612a6485828601612062565b9250506020612a7585828601612a2a565b9150509250929050565b60008060408385031215612a9657612a9561200f565b5b6000612aa485828601612098565b925050602083013567ffffffffffffffff811115612ac557612ac4612014565b5b612ad185828601612600565b9150509250929050565b60008060408385031215612af257612af161200f565b5b6000612b0085828601612062565b9250506020612b1185828601612062565b9150509250929050565b600080600080600060a08688031215612b3757612b3661200f565b5b6000612b4588828901612062565b9550506020612b5688828901612062565b9450506040612b6788828901612098565b9350506060612b7888828901612098565b925050608086013567ffffffffffffffff811115612b9957612b98612014565b5b612ba588828901612600565b9150509295509295909350565b7f455243313135353a2061646472657373207a65726f206973206e6f742061207660008201527f616c6964206f776e657200000000000000000000000000000000000000000000602082015250565b6000612c0e602a8361236c565b9150612c1982612bb2565b604082019050919050565b60006020820190508181036000830152612c3d81612c01565b9050919050565b7f4e487b7100000000000000000000000000000000000000000000000000000000600052602260045260246000fd5b60006002820490506001821680612c8b57607f821691505b602082108103612c9e57612c9d612c44565b5b50919050565b7f455243313135353a2063616c6c6572206973206e6f7420746f6b656e206f776e60008201527f6572206e6f7220617070726f7665640000000000000000000000000000000000602082015250565b6000612d00602f8361236c565b9150612d0b82612ca4565b604082019050919050565b60006020820190508181036000830152612d2f81612cf3565b9050919050565b7f416363657373436f6e74726f6c3a2063616e206f6e6c792072656e6f756e636560008201527f20726f6c657320666f722073656c660000000000000000000000000000000000602082015250565b6000612d92602f8361236c565b9150612d9d82612d36565b604082019050919050565b60006020820190508181036000830152612dc181612d85565b9050919050565b7f455243313135353a206163636f756e747320616e6420696473206c656e67746860008201527f206d69736d617463680000000000000000000000000000000000000000000000602082015250565b6000612e2460298361236c565b9150612e2f82612dc8565b604082019050919050565b60006020820190508181036000830152612e5381612e17565b9050919050565b7f4e487b7100000000000000000000000000000000000000000000000000000000600052603260045260246000fd5b7f4e487b7100000000000000000000000000000000000000000000000000000000600052601160045260246000fd5b6000612ec382612077565b91507fffffffffffffffffffffffffffffffffffffffffffffffffffffffffffffffff8203612ef557612ef4612e89565b5b600182019050919050565b600060208284031215612f1657612f1561200f565b5b6000612f2484828501612062565b91505092915050565b60008190508160005260206000209050919050565b60006020601f8301049050919050565b600082821b905092915050565b600060088302612f8f7fffffffffffffffffffffffffffffffffffffffffffffffffffffffffffffffff82612f52565b612f998683612f52565b95508019841693508086168417925050509392505050565b6000819050919050565b6000612fd6612fd1612fcc84612077565b612fb1565b612077565b9050919050565b6000819050919050565b612ff083612fbb565b613004612ffc82612fdd565b848454612f5f565b825550505050565b600090565b61301961300c565b613024818484612fe7565b505050565b5b818110156130485761303d600082613011565b60018101905061302a565b5050565b601f82111561308d5761305e81612f2d565b61306784612f42565b81016020851015613076578190505b61308a61308285612f42565b830182613029565b50505b505050565b600082821c905092915050565b60006130b060001984600802613092565b1980831691505092915050565b60006130c9838361309f565b9150826002028217905092915050565b6130e282612361565b67ffffffffffffffff8111156130fb576130fa6121ed565b5b6131058254612c73565b61311082828561304c565b600060209050601f8311600181146131435760008415613131578287015190505b61313b85826130bd565b8655506131a3565b601f19841661315186612f2d565b60005b8281101561317957848901518255600182019150602085019450602081019050613154565b868310156131965784890151613192601f89168261309f565b8355505b6001600288020188555050505b505050505050565b7f455243313135353a2069647320616e6420616d6f756e7473206c656e6774682060008201527f6d69736d61746368000000000000000000000000000000000000000000000000602082015250565b600061320760288361236c565b9150613212826131ab565b604082019050919050565b60006020820190508181036000830152613236816131fa565b9050919050565b7f455243313135353a207472616e7366657220746f20746865207a65726f20616460008201527f6472657373000000000000000000000000000000000000000000000000000000602082015250565b600061329960258361236c565b91506132a48261323d565b604082019050919050565b600060208201905081810360008301526132c88161328c565b9050919050565b7f455243313135353a20696e73756666696369656e742062616c616e636520666f60008201527f72207472616e7366657200000000000000000000000000000000000000000000602082015250565b600061332b602a8361236c565b9150613336826132cf565b604082019050919050565b6000602082019050818103600083015261335a8161331e565b9050919050565b600061336c82612077565b915061337783612077565b9250827fffffffffffffffffffffffffffffffffffffffffffffffffffffffffffffffff038211156133ac576133ab612e89565b5b828201905092915050565b600060408201905081810360008301526133d181856128d8565b905081810360208301526133e581846128d8565b90509392505050565b7f455243313135353a2073657474696e6720617070726f76616c2073746174757360008201527f20666f722073656c660000000000000000000000000000000000000000000000602082015250565b600061344a60298361236c565b9150613455826133ee565b604082019050919050565b600060208201905081810360008301526134798161343d565b9050919050565b7f455243313135353a206d696e7420746f20746865207a65726f2061646472657360008201527f7300000000000000000000000000000000000000000000000000000000000000602082015250565b60006134dc60218361236c565b91506134e782613480565b604082019050919050565b6000602082019050818103600083015261350b816134cf565b9050919050565b600060408201905061352760008301856120ed565b61353460208301846120ed565b9392505050565b600081905092915050565b7f416363657373436f6e74726f6c3a206163636f756e7420000000000000000000600082015250565b600061357c60178361353b565b915061358782613546565b601782019050919050565b600061359d82612361565b6135a7818561353b565b93506135b781856020860161237d565b80840191505092915050565b7f206973206d697373696e6720726f6c6520000000000000000000000000000000600082015250565b60006135f960118361353b565b9150613604826135c3565b601182019050919050565b600061361a8261356f565b91506136268285613592565b9150613631826135ec565b915061363d8284613592565b91508190509392505050565b61365281612039565b82525050565b600081519050919050565b600082825260208201905092915050565b600061367f82613658565b6136898185613663565b935061369981856020860161237d565b6136a2816121dc565b840191505092915050565b600060a0820190506136c26000830188613649565b6136cf6020830187613649565b81810360408301526136e181866128d8565b905081810360608301526136f581856128d8565b905081810360808301526137098184613674565b90509695505050505050565b60008151905061372481612143565b92915050565b6000602082840312156137405761373f61200f565b5b600061374e84828501613715565b91505092915050565b60008160e01c9050919050565b600060033d11156137835760046000803e613780600051613757565b90505b90565b600060443d1061381357613798612005565b60043d036004823e80513d602482011167ffffffffffffffff821117156137c0575050613813565b808201805167ffffffffffffffff8111156137de5750505050613813565b80602083010160043d0385018111156137fb575050505050613813565b61380a8260200185018661221c565b82955050505050505b90565b7f455243313135353a207472616e7366657220746f206e6f6e204552433131353560008201527f526563656976657220696d706c656d656e746572000000000000000000000000602082015250565b600061387260348361236c565b915061387d82613816565b604082019050919050565b600060208201905081810360008301526138a181613865565b9050919050565b7f455243313135353a204552433131353552656365697665722072656a6563746560008201527f6420746f6b656e73000000000000000000000000000000000000000000000000602082015250565b600061390460288361236c565b915061390f826138a8565b604082019050919050565b60006020820190508181036000830152613933816138f7565b9050919050565b600060a08201905061394f6000830188613649565b61395c6020830187613649565b61396960408301866120ed565b61397660608301856120ed565b81810360808301526139888184613674565b90509695505050505050565b600061399f82612077565b91506139aa83612077565b9250817fffffffffffffffffffffffffffffffffffffffffffffffffffffffffffffffff04831182151516156139e3576139e2612e89565b5b828202905092915050565b60006139f982612077565b915060008203613a0c57613a0b612e89565b5b600182039050919050565b7f537472696e67733a20686578206c656e67746820696e73756666696369656e74600082015250565b6000613a4d60208361236c565b9150613a5882613a17565b602082019050919050565b60006020820190508181036000830152613a7c81613a40565b905091905056fea2646970667358221220a134ef86d4550d2f0fcc9c595932b6fbbe0d0ecc9b9379afbd219315c0ee7e3e64736f6c634300080f0033446f6f6d736461793a20416476656e7475726520496e746f2054686520476c6f6f6d797665727365",
  "linkReferences": {},
  "deployedLinkReferences": {}
}