{
  "_format": "hh-sol-artifact-1",
  "contractName": "DoomsDay",
  "sourceName": "contracts/DoomsDay.sol",
  "abi": [
    {
      "inputs": [
        {
          "internalType": "string",
          "name": "stringURI",
          "type": "string"
        }
      ],
      "stateMutability": "nonpayable",
      "type": "constructor"
    },
    {
      "inputs": [],
      "name": "NotAuthorized",
      "type": "error"
    },
    {
      "anonymous": false,
      "inputs": [
        {
          "indexed": true,
          "internalType": "address",
          "name": "account",
          "type": "address"
        },
        {
          "indexed": true,
          "internalType": "address",
          "name": "operator",
          "type": "address"
        },
        {
          "indexed": false,
          "internalType": "bool",
          "name": "approved",
          "type": "bool"
        }
      ],
      "name": "ApprovalForAll",
      "type": "event"
    },
    {
      "anonymous": false,
      "inputs": [
        {
          "indexed": true,
          "internalType": "bytes32",
          "name": "role",
          "type": "bytes32"
        },
        {
          "indexed": true,
          "internalType": "bytes32",
          "name": "previousAdminRole",
          "type": "bytes32"
        },
        {
          "indexed": true,
          "internalType": "bytes32",
          "name": "newAdminRole",
          "type": "bytes32"
        }
      ],
      "name": "RoleAdminChanged",
      "type": "event"
    },
    {
      "anonymous": false,
      "inputs": [
        {
          "indexed": true,
          "internalType": "bytes32",
          "name": "role",
          "type": "bytes32"
        },
        {
          "indexed": true,
          "internalType": "address",
          "name": "account",
          "type": "address"
        },
        {
          "indexed": true,
          "internalType": "address",
          "name": "sender",
          "type": "address"
        }
      ],
      "name": "RoleGranted",
      "type": "event"
    },
    {
      "anonymous": false,
      "inputs": [
        {
          "indexed": true,
          "internalType": "bytes32",
          "name": "role",
          "type": "bytes32"
        },
        {
          "indexed": true,
          "internalType": "address",
          "name": "account",
          "type": "address"
        },
        {
          "indexed": true,
          "internalType": "address",
          "name": "sender",
          "type": "address"
        }
      ],
      "name": "RoleRevoked",
      "type": "event"
    },
    {
      "anonymous": false,
      "inputs": [
        {
          "indexed": true,
          "internalType": "address",
          "name": "operator",
          "type": "address"
        },
        {
          "indexed": true,
          "internalType": "address",
          "name": "from",
          "type": "address"
        },
        {
          "indexed": true,
          "internalType": "address",
          "name": "to",
          "type": "address"
        },
        {
          "indexed": false,
          "internalType": "uint256[]",
          "name": "ids",
          "type": "uint256[]"
        },
        {
          "indexed": false,
          "internalType": "uint256[]",
          "name": "values",
          "type": "uint256[]"
        }
      ],
      "name": "TransferBatch",
      "type": "event"
    },
    {
      "anonymous": false,
      "inputs": [
        {
          "indexed": true,
          "internalType": "address",
          "name": "operator",
          "type": "address"
        },
        {
          "indexed": true,
          "internalType": "address",
          "name": "from",
          "type": "address"
        },
        {
          "indexed": true,
          "internalType": "address",
          "name": "to",
          "type": "address"
        },
        {
          "indexed": false,
          "internalType": "uint256",
          "name": "id",
          "type": "uint256"
        },
        {
          "indexed": false,
          "internalType": "uint256",
          "name": "value",
          "type": "uint256"
        }
      ],
      "name": "TransferSingle",
      "type": "event"
    },
    {
      "anonymous": false,
      "inputs": [
        {
          "indexed": false,
          "internalType": "string",
          "name": "value",
          "type": "string"
        },
        {
          "indexed": true,
          "internalType": "uint256",
          "name": "id",
          "type": "uint256"
        }
      ],
      "name": "URI",
      "type": "event"
    },
    {
      "inputs": [],
      "name": "DEFAULT_ADMIN_ROLE",
      "outputs": [
        {
          "internalType": "bytes32",
          "name": "",
          "type": "bytes32"
        }
      ],
      "stateMutability": "view",
      "type": "function"
    },
    {
      "inputs": [
        {
          "internalType": "uint256",
          "name": "tokenId",
          "type": "uint256"
        },
        {
          "internalType": "address[]",
          "name": "winners",
          "type": "address[]"
        },
        {
          "internalType": "uint256",
          "name": "amount",
          "type": "uint256"
        }
      ],
      "name": "addWhitelist",
      "outputs": [],
      "stateMutability": "nonpayable",
      "type": "function"
    },
    {
      "inputs": [
        {
          "internalType": "address",
          "name": "account",
          "type": "address"
        },
        {
          "internalType": "uint256",
          "name": "id",
          "type": "uint256"
        }
      ],
      "name": "balanceOf",
      "outputs": [
        {
          "internalType": "uint256",
          "name": "",
          "type": "uint256"
        }
      ],
      "stateMutability": "view",
      "type": "function"
    },
    {
      "inputs": [
        {
          "internalType": "address[]",
          "name": "accounts",
          "type": "address[]"
        },
        {
          "internalType": "uint256[]",
          "name": "ids",
          "type": "uint256[]"
        }
      ],
      "name": "balanceOfBatch",
      "outputs": [
        {
          "internalType": "uint256[]",
          "name": "",
          "type": "uint256[]"
        }
      ],
      "stateMutability": "view",
      "type": "function"
    },
    {
      "inputs": [
        {
          "internalType": "bytes32",
          "name": "role",
          "type": "bytes32"
        }
      ],
      "name": "getRoleAdmin",
      "outputs": [
        {
          "internalType": "bytes32",
          "name": "",
          "type": "bytes32"
        }
      ],
      "stateMutability": "view",
      "type": "function"
    },
    {
      "inputs": [
        {
          "internalType": "bytes32",
          "name": "role",
          "type": "bytes32"
        },
        {
          "internalType": "address",
          "name": "account",
          "type": "address"
        }
      ],
      "name": "grantRole",
      "outputs": [],
      "stateMutability": "nonpayable",
      "type": "function"
    },
    {
      "inputs": [
        {
          "internalType": "bytes32",
          "name": "role",
          "type": "bytes32"
        },
        {
          "internalType": "address",
          "name": "account",
          "type": "address"
        }
      ],
      "name": "hasRole",
      "outputs": [
        {
          "internalType": "bool",
          "name": "",
          "type": "bool"
        }
      ],
      "stateMutability": "view",
      "type": "function"
    },
    {
      "inputs": [
        {
          "internalType": "address",
          "name": "account",
          "type": "address"
        },
        {
          "internalType": "address",
          "name": "operator",
          "type": "address"
        }
      ],
      "name": "isApprovedForAll",
      "outputs": [
        {
          "internalType": "bool",
          "name": "",
          "type": "bool"
        }
      ],
      "stateMutability": "view",
      "type": "function"
    },
    {
      "inputs": [
        {
          "internalType": "uint256",
          "name": "tokenId",
          "type": "uint256"
        },
        {
          "internalType": "address",
          "name": "user",
          "type": "address"
        }
      ],
      "name": "isWhitelisted",
      "outputs": [
        {
          "internalType": "uint256",
          "name": "",
          "type": "uint256"
        }
      ],
      "stateMutability": "view",
      "type": "function"
    },
    {
      "inputs": [
        {
          "internalType": "uint256",
          "name": "tokenId",
          "type": "uint256"
        },
        {
          "internalType": "bytes",
          "name": "data",
          "type": "bytes"
        }
      ],
      "name": "mint",
      "outputs": [],
      "stateMutability": "nonpayable",
      "type": "function"
    },
    {
      "inputs": [],
      "name": "name",
      "outputs": [
        {
          "internalType": "string",
          "name": "",
          "type": "string"
        }
      ],
      "stateMutability": "view",
      "type": "function"
    },
    {
      "inputs": [
        {
          "internalType": "bytes32",
          "name": "role",
          "type": "bytes32"
        },
        {
          "internalType": "address",
          "name": "account",
          "type": "address"
        }
      ],
      "name": "renounceRole",
      "outputs": [],
      "stateMutability": "nonpayable",
      "type": "function"
    },
    {
      "inputs": [
        {
          "internalType": "bytes32",
          "name": "role",
          "type": "bytes32"
        },
        {
          "internalType": "address",
          "name": "account",
          "type": "address"
        }
      ],
      "name": "revokeRole",
      "outputs": [],
      "stateMutability": "nonpayable",
      "type": "function"
    },
    {
      "inputs": [
        {
          "internalType": "address",
          "name": "from",
          "type": "address"
        },
        {
          "internalType": "address",
          "name": "to",
          "type": "address"
        },
        {
          "internalType": "uint256[]",
          "name": "ids",
          "type": "uint256[]"
        },
        {
          "internalType": "uint256[]",
          "name": "amounts",
          "type": "uint256[]"
        },
        {
          "internalType": "bytes",
          "name": "data",
          "type": "bytes"
        }
      ],
      "name": "safeBatchTransferFrom",
      "outputs": [],
      "stateMutability": "nonpayable",
      "type": "function"
    },
    {
      "inputs": [
        {
          "internalType": "address",
          "name": "from",
          "type": "address"
        },
        {
          "internalType": "address",
          "name": "to",
          "type": "address"
        },
        {
          "internalType": "uint256",
          "name": "id",
          "type": "uint256"
        },
        {
          "internalType": "uint256",
          "name": "amount",
          "type": "uint256"
        },
        {
          "internalType": "bytes",
          "name": "data",
          "type": "bytes"
        }
      ],
      "name": "safeTransferFrom",
      "outputs": [],
      "stateMutability": "nonpayable",
      "type": "function"
    },
    {
      "inputs": [
        {
          "internalType": "address",
          "name": "operator",
          "type": "address"
        },
        {
          "internalType": "bool",
          "name": "approved",
          "type": "bool"
        }
      ],
      "name": "setApprovalForAll",
      "outputs": [],
      "stateMutability": "nonpayable",
      "type": "function"
    },
    {
      "inputs": [
        {
          "internalType": "string",
          "name": "newuri",
          "type": "string"
        }
      ],
      "name": "setURI",
      "outputs": [],
      "stateMutability": "nonpayable",
      "type": "function"
    },
    {
      "inputs": [
        {
          "internalType": "bytes4",
          "name": "interfaceId",
          "type": "bytes4"
        }
      ],
      "name": "supportsInterface",
      "outputs": [
        {
          "internalType": "bool",
          "name": "",
          "type": "bool"
        }
      ],
      "stateMutability": "view",
      "type": "function"
    },
    {
      "inputs": [],
      "name": "symbol",
      "outputs": [
        {
          "internalType": "string",
          "name": "",
          "type": "string"
        }
      ],
      "stateMutability": "view",
      "type": "function"
    },
    {
      "inputs": [
        {
          "internalType": "uint256",
          "name": "tokenId",
          "type": "uint256"
        }
      ],
      "name": "uri",
      "outputs": [
        {
          "internalType": "string",
          "name": "",
          "type": "string"
        }
      ],
      "stateMutability": "view",
      "type": "function"
    }
  ],
  "bytecode": "0x6080604052604051806060016040528060288152602001620046b560289139600490816200002e919062000503565b506040518060400160405280600481526020017f474d5653000000000000000000000000000000000000000000000000000000008152506005908162000075919062000503565b503480156200008357600080fd5b50604051620046dd380380620046dd8339818101604052810190620000a9919062000758565b80620000bb81620000f960201b60201c565b50620000e06000801b620000d46200010e60201b60201c565b6200011660201b60201c565b8060079081620000f1919062000503565b5050620007a9565b80600290816200010a919062000503565b5050565b600033905090565b6200012882826200012c60201b60201c565b5050565b6200013e82826200021e60201b60201c565b6200021a5760016003600084815260200190815260200160002060000160008373ffffffffffffffffffffffffffffffffffffffff1673ffffffffffffffffffffffffffffffffffffffff16815260200190815260200160002060006101000a81548160ff021916908315150217905550620001bf6200010e60201b60201c565b73ffffffffffffffffffffffffffffffffffffffff168173ffffffffffffffffffffffffffffffffffffffff16837f2f8788117e7eff1d82e926ec794901d17c78024a50270940304540a733656f0d60405160405180910390a45b5050565b60006003600084815260200190815260200160002060000160008373ffffffffffffffffffffffffffffffffffffffff1673ffffffffffffffffffffffffffffffffffffffff16815260200190815260200160002060009054906101000a900460ff16905092915050565b600081519050919050565b7f4e487b7100000000000000000000000000000000000000000000000000000000600052604160045260246000fd5b7f4e487b7100000000000000000000000000000000000000000000000000000000600052602260045260246000fd5b600060028204905060018216806200030b57607f821691505b602082108103620003215762000320620002c3565b5b50919050565b60008190508160005260206000209050919050565b60006020601f8301049050919050565b600082821b905092915050565b6000600883026200038b7fffffffffffffffffffffffffffffffffffffffffffffffffffffffffffffffff826200034c565b6200039786836200034c565b95508019841693508086168417925050509392505050565b6000819050919050565b6000819050919050565b6000620003e4620003de620003d884620003af565b620003b9565b620003af565b9050919050565b6000819050919050565b6200040083620003c3565b620004186200040f82620003eb565b84845462000359565b825550505050565b600090565b6200042f62000420565b6200043c818484620003f5565b505050565b5b8181101562000464576200045860008262000425565b60018101905062000442565b5050565b601f821115620004b3576200047d8162000327565b62000488846200033c565b8101602085101562000498578190505b620004b0620004a7856200033c565b83018262000441565b50505b505050565b600082821c905092915050565b6000620004d860001984600802620004b8565b1980831691505092915050565b6000620004f38383620004c5565b9150826002028217905092915050565b6200050e8262000289565b67ffffffffffffffff8111156200052a576200052962000294565b5b620005368254620002f2565b6200054382828562000468565b600060209050601f8311600181146200057b576000841562000566578287015190505b620005728582620004e5565b865550620005e2565b601f1984166200058b8662000327565b60005b82811015620005b5578489015182556001820191506020850194506020810190506200058e565b86831015620005d55784890151620005d1601f891682620004c5565b8355505b6001600288020188555050505b505050505050565b6000604051905090565b600080fd5b600080fd5b600080fd5b600080fd5b6000601f19601f8301169050919050565b620006248262000608565b810181811067ffffffffffffffff8211171562000646576200064562000294565b5b80604052505050565b60006200065b620005ea565b905062000669828262000619565b919050565b600067ffffffffffffffff8211156200068c576200068b62000294565b5b620006978262000608565b9050602081019050919050565b60005b83811015620006c4578082015181840152602081019050620006a7565b83811115620006d4576000848401525b50505050565b6000620006f1620006eb846200066e565b6200064f565b90508281526020810184848401111562000710576200070f62000603565b5b6200071d848285620006a4565b509392505050565b600082601f8301126200073d576200073c620005fe565b5b81516200074f848260208601620006da565b91505092915050565b600060208284031215620007715762000770620005f4565b5b600082015167ffffffffffffffff811115620007925762000791620005f9565b5b620007a08482850162000725565b91505092915050565b613efc80620007b96000396000f3fe608060405234801561001057600080fd5b506004361061012b5760003560e01c80637d22c35c116100ad578063caac0e3b11610071578063caac0e3b14610366578063d547741f14610382578063db7fd4081461039e578063e985e9c5146103ba578063f242432a146103ea5761012b565b80637d22c35c146102ae57806391d14854146102de57806395d89b411461030e578063a217fddf1461032c578063a22cb4651461034a5761012b565b8063248a9ca3116100f4578063248a9ca3146101fa5780632eb2c2d61461022a5780632f2ff15d1461024657806336568abe146102625780634e1273f41461027e5761012b565b8062fdd58e1461013057806301ffc9a71461016057806302fe53051461019057806306fdde03146101ac5780630e89341c146101ca575b600080fd5b61014a600480360381019061014591906122d9565b610406565b6040516101579190612328565b60405180910390f35b61017a6004803603810190610175919061239b565b6104ce565b60405161018791906123e3565b60405180910390f35b6101aa60048036038101906101a59190612544565b6104e0565b005b6101b46104fa565b6040516101c19190612615565b60405180910390f35b6101e460048036038101906101df9190612637565b610588565b6040516101f19190612615565b60405180910390f35b610214600480360381019061020f919061269a565b6105bc565b60405161022191906126d6565b60405180910390f35b610244600480360381019061023f919061285a565b6105dc565b005b610260600480360381019061025b9190612929565b61067d565b005b61027c60048036038101906102779190612929565b61069e565b005b61029860048036038101906102939190612a2c565b610721565b6040516102a59190612b62565b60405180910390f35b6102c860048036038101906102c39190612b84565b61083a565b6040516102d59190612328565b60405180910390f35b6102f860048036038101906102f39190612929565b610895565b60405161030591906123e3565b60405180910390f35b610316610900565b6040516103239190612615565b60405180910390f35b61033461098e565b60405161034191906126d6565b60405180910390f35b610364600480360381019061035f9190612bf0565b610995565b005b610380600480360381019061037b9190612c8b565b6109ab565b005b61039c60048036038101906103979190612929565b610a5b565b005b6103b860048036038101906103b39190612cff565b610a7c565b005b6103d460048036038101906103cf9190612d5b565b610bd8565b6040516103e191906123e3565b60405180910390f35b61040460048036038101906103ff9190612d9b565b610c6c565b005b60008073ffffffffffffffffffffffffffffffffffffffff168373ffffffffffffffffffffffffffffffffffffffff1603610476576040517f08c379a000000000000000000000000000000000000000000000000000000000815260040161046d90612ea4565b60405180910390fd5b60008083815260200190815260200160002060008473ffffffffffffffffffffffffffffffffffffffff1673ffffffffffffffffffffffffffffffffffffffff16815260200190815260200160002054905092915050565b60006104d982610d0d565b9050919050565b6000801b6104ed81610d87565b6104f682610d9b565b5050565b6004805461050790612ef3565b80601f016020809104026020016040519081016040528092919081815260200182805461053390612ef3565b80156105805780601f1061055557610100808354040283529160200191610580565b820191906000526020600020905b81548152906001019060200180831161056357829003601f168201915b505050505081565b6060600761059583610dae565b6040516020016105a6929190613044565b6040516020818303038152906040529050919050565b600060036000838152602001908152602001600020600101549050919050565b6105e4610f0e565b73ffffffffffffffffffffffffffffffffffffffff168573ffffffffffffffffffffffffffffffffffffffff16148061062a575061062985610624610f0e565b610bd8565b5b610669576040517f08c379a0000000000000000000000000000000000000000000000000000000008152600401610660906130e5565b60405180910390fd5b6106768585858585610f16565b5050505050565b610686826105bc565b61068f81610d87565b6106998383611237565b505050565b6106a6610f0e565b73ffffffffffffffffffffffffffffffffffffffff168173ffffffffffffffffffffffffffffffffffffffff1614610713576040517f08c379a000000000000000000000000000000000000000000000000000000000815260040161070a90613177565b60405180910390fd5b61071d8282611318565b5050565b60608151835114610767576040517f08c379a000000000000000000000000000000000000000000000000000000000815260040161075e90613209565b60405180910390fd5b6000835167ffffffffffffffff81111561078457610783612419565b5b6040519080825280602002602001820160405280156107b25781602001602082028036833780820191505090505b50905060005b845181101561082f576107ff8582815181106107d7576107d6613229565b5b60200260200101518583815181106107f2576107f1613229565b5b6020026020010151610406565b82828151811061081257610811613229565b5b6020026020010181815250508061082890613287565b90506107b8565b508091505092915050565b60006006600084815260200190815260200160002060008373ffffffffffffffffffffffffffffffffffffffff1673ffffffffffffffffffffffffffffffffffffffff16815260200190815260200160002054905092915050565b60006003600084815260200190815260200160002060000160008373ffffffffffffffffffffffffffffffffffffffff1673ffffffffffffffffffffffffffffffffffffffff16815260200190815260200160002060009054906101000a900460ff16905092915050565b6005805461090d90612ef3565b80601f016020809104026020016040519081016040528092919081815260200182805461093990612ef3565b80156109865780601f1061095b57610100808354040283529160200191610986565b820191906000526020600020905b81548152906001019060200180831161096957829003601f168201915b505050505081565b6000801b81565b6109a76109a0610f0e565b83836113fa565b5050565b6000801b6109b881610d87565b600084849050905060005b81811015610a5257836006600089815260200190815260200160002060008888858181106109f4576109f3613229565b5b9050602002016020810190610a0991906132cf565b73ffffffffffffffffffffffffffffffffffffffff1673ffffffffffffffffffffffffffffffffffffffff168152602001908152602001600020819055508060010190506109c3565b50505050505050565b610a64826105bc565b610a6d81610d87565b610a778383611318565b505050565b6000600660008481526020019081526020016000206000610a9b610f0e565b73ffffffffffffffffffffffffffffffffffffffff1673ffffffffffffffffffffffffffffffffffffffff1681526020019081526020016000205403610b0d576040517fea8e4eb500000000000000000000000000000000000000000000000000000000815260040160405180910390fd5b610b77610b18610f0e565b83600660008681526020019081526020016000206000610b36610f0e565b73ffffffffffffffffffffffffffffffffffffffff1673ffffffffffffffffffffffffffffffffffffffff1681526020019081526020016000205484611566565b6000600660008481526020019081526020016000206000610b96610f0e565b73ffffffffffffffffffffffffffffffffffffffff1673ffffffffffffffffffffffffffffffffffffffff168152602001908152602001600020819055505050565b6000600160008473ffffffffffffffffffffffffffffffffffffffff1673ffffffffffffffffffffffffffffffffffffffff16815260200190815260200160002060008373ffffffffffffffffffffffffffffffffffffffff1673ffffffffffffffffffffffffffffffffffffffff16815260200190815260200160002060009054906101000a900460ff16905092915050565b610c74610f0e565b73ffffffffffffffffffffffffffffffffffffffff168573ffffffffffffffffffffffffffffffffffffffff161480610cba5750610cb985610cb4610f0e565b610bd8565b5b610cf9576040517f08c379a0000000000000000000000000000000000000000000000000000000008152600401610cf0906130e5565b60405180910390fd5b610d068585858585611716565b5050505050565b60007f7965db0b000000000000000000000000000000000000000000000000000000007bffffffffffffffffffffffffffffffffffffffffffffffffffffffff1916827bffffffffffffffffffffffffffffffffffffffffffffffffffffffff19161480610d805750610d7f826119b1565b5b9050919050565b610d9881610d93610f0e565b611a93565b50565b8060029081610daa9190613493565b5050565b606060008203610df5576040518060400160405280600181526020017f30000000000000000000000000000000000000000000000000000000000000008152509050610f09565b600082905060005b60008214610e27578080610e1090613287565b915050600a82610e209190613594565b9150610dfd565b60008167ffffffffffffffff811115610e4357610e42612419565b5b6040519080825280601f01601f191660200182016040528015610e755781602001600182028036833780820191505090505b5090505b60008514610f0257600182610e8e91906135c5565b9150600a85610e9d91906135f9565b6030610ea9919061362a565b60f81b818381518110610ebf57610ebe613229565b5b60200101907effffffffffffffffffffffffffffffffffffffffffffffffffffffffffffff1916908160001a905350600a85610efb9190613594565b9450610e79565b8093505050505b919050565b600033905090565b8151835114610f5a576040517f08c379a0000000000000000000000000000000000000000000000000000000008152600401610f51906136f2565b60405180910390fd5b600073ffffffffffffffffffffffffffffffffffffffff168473ffffffffffffffffffffffffffffffffffffffff1603610fc9576040517f08c379a0000000000000000000000000000000000000000000000000000000008152600401610fc090613784565b60405180910390fd5b6000610fd3610f0e565b9050610fe3818787878787611b30565b60005b845181101561119457600085828151811061100457611003613229565b5b60200260200101519050600085838151811061102357611022613229565b5b60200260200101519050600080600084815260200190815260200160002060008b73ffffffffffffffffffffffffffffffffffffffff1673ffffffffffffffffffffffffffffffffffffffff168152602001908152602001600020549050818110156110c4576040517f08c379a00000000000000000000000000000000000000000000000000000000081526004016110bb90613816565b60405180910390fd5b81810360008085815260200190815260200160002060008c73ffffffffffffffffffffffffffffffffffffffff1673ffffffffffffffffffffffffffffffffffffffff168152602001908152602001600020819055508160008085815260200190815260200160002060008b73ffffffffffffffffffffffffffffffffffffffff1673ffffffffffffffffffffffffffffffffffffffff1681526020019081526020016000206000828254611179919061362a565b925050819055505050508061118d90613287565b9050610fe6565b508473ffffffffffffffffffffffffffffffffffffffff168673ffffffffffffffffffffffffffffffffffffffff168273ffffffffffffffffffffffffffffffffffffffff167f4a39dc06d4c0dbc64b70af90fd698a233a518aa5d07e595d983b8c0526c8f7fb878760405161120b929190613836565b60405180910390a4611221818787878787611b38565b61122f818787878787611b40565b505050505050565b6112418282610895565b6113145760016003600084815260200190815260200160002060000160008373ffffffffffffffffffffffffffffffffffffffff1673ffffffffffffffffffffffffffffffffffffffff16815260200190815260200160002060006101000a81548160ff0219169083151502179055506112b9610f0e565b73ffffffffffffffffffffffffffffffffffffffff168173ffffffffffffffffffffffffffffffffffffffff16837f2f8788117e7eff1d82e926ec794901d17c78024a50270940304540a733656f0d60405160405180910390a45b5050565b6113228282610895565b156113f65760006003600084815260200190815260200160002060000160008373ffffffffffffffffffffffffffffffffffffffff1673ffffffffffffffffffffffffffffffffffffffff16815260200190815260200160002060006101000a81548160ff02191690831515021790555061139b610f0e565b73ffffffffffffffffffffffffffffffffffffffff168173ffffffffffffffffffffffffffffffffffffffff16837ff6391f5c32d9c69d2a47ea670b442974b53935d1edc7fd64eb21e047a839171b60405160405180910390a45b5050565b8173ffffffffffffffffffffffffffffffffffffffff168373ffffffffffffffffffffffffffffffffffffffff1603611468576040517f08c379a000000000000000000000000000000000000000000000000000000000815260040161145f906138df565b60405180910390fd5b80600160008573ffffffffffffffffffffffffffffffffffffffff1673ffffffffffffffffffffffffffffffffffffffff16815260200190815260200160002060008473ffffffffffffffffffffffffffffffffffffffff1673ffffffffffffffffffffffffffffffffffffffff16815260200190815260200160002060006101000a81548160ff0219169083151502179055508173ffffffffffffffffffffffffffffffffffffffff168373ffffffffffffffffffffffffffffffffffffffff167f17307eab39ab6107e8899845ad3d59bd9653f200f220920489ca2b5937696c318360405161155991906123e3565b60405180910390a3505050565b600073ffffffffffffffffffffffffffffffffffffffff168473ffffffffffffffffffffffffffffffffffffffff16036115d5576040517f08c379a00000000000000000000000000000000000000000000000000000000081526004016115cc90613971565b60405180910390fd5b60006115df610f0e565b905060006115ec85611d17565b905060006115f985611d17565b905061160a83600089858589611b30565b8460008088815260200190815260200160002060008973ffffffffffffffffffffffffffffffffffffffff1673ffffffffffffffffffffffffffffffffffffffff1681526020019081526020016000206000828254611669919061362a565b925050819055508673ffffffffffffffffffffffffffffffffffffffff16600073ffffffffffffffffffffffffffffffffffffffff168473ffffffffffffffffffffffffffffffffffffffff167fc3d58168c5ae7397731d063d5bbf3d657854427343f4c083240f7aacaa2d0f6289896040516116e7929190613991565b60405180910390a46116fe83600089858589611b38565b61170d83600089898989611d91565b50505050505050565b600073ffffffffffffffffffffffffffffffffffffffff168473ffffffffffffffffffffffffffffffffffffffff1603611785576040517f08c379a000000000000000000000000000000000000000000000000000000000815260040161177c90613784565b60405180910390fd5b600061178f610f0e565b9050600061179c85611d17565b905060006117a985611d17565b90506117b9838989858589611b30565b600080600088815260200190815260200160002060008a73ffffffffffffffffffffffffffffffffffffffff1673ffffffffffffffffffffffffffffffffffffffff16815260200190815260200160002054905085811015611850576040517f08c379a000000000000000000000000000000000000000000000000000000000815260040161184790613816565b60405180910390fd5b85810360008089815260200190815260200160002060008b73ffffffffffffffffffffffffffffffffffffffff1673ffffffffffffffffffffffffffffffffffffffff168152602001908152602001600020819055508560008089815260200190815260200160002060008a73ffffffffffffffffffffffffffffffffffffffff1673ffffffffffffffffffffffffffffffffffffffff1681526020019081526020016000206000828254611905919061362a565b925050819055508773ffffffffffffffffffffffffffffffffffffffff168973ffffffffffffffffffffffffffffffffffffffff168573ffffffffffffffffffffffffffffffffffffffff167fc3d58168c5ae7397731d063d5bbf3d657854427343f4c083240f7aacaa2d0f628a8a604051611982929190613991565b60405180910390a4611998848a8a86868a611b38565b6119a6848a8a8a8a8a611d91565b505050505050505050565b60007fd9b67a26000000000000000000000000000000000000000000000000000000007bffffffffffffffffffffffffffffffffffffffffffffffffffffffff1916827bffffffffffffffffffffffffffffffffffffffffffffffffffffffff19161480611a7c57507f0e89341c000000000000000000000000000000000000000000000000000000007bffffffffffffffffffffffffffffffffffffffffffffffffffffffff1916827bffffffffffffffffffffffffffffffffffffffffffffffffffffffff1916145b80611a8c5750611a8b82611f68565b5b9050919050565b611a9d8282610895565b611b2c57611ac28173ffffffffffffffffffffffffffffffffffffffff166014611fd2565b611ad08360001c6020611fd2565b604051602001611ae1929190613a52565b6040516020818303038152906040526040517f08c379a0000000000000000000000000000000000000000000000000000000008152600401611b239190612615565b60405180910390fd5b5050565b505050505050565b505050505050565b611b5f8473ffffffffffffffffffffffffffffffffffffffff1661220e565b15611d0f578373ffffffffffffffffffffffffffffffffffffffff1663bc197c8187878686866040518663ffffffff1660e01b8152600401611ba5959493929190613af0565b6020604051808303816000875af1925050508015611be157506040513d601f19601f82011682018060405250810190611bde9190613b6d565b60015b611c8657611bed613ba7565b806308c379a003611c495750611c01613bc9565b80611c0c5750611c4b565b806040517f08c379a0000000000000000000000000000000000000000000000000000000008152600401611c409190612615565b60405180910390fd5b505b6040517f08c379a0000000000000000000000000000000000000000000000000000000008152600401611c7d90613ccb565b60405180910390fd5b63bc197c8160e01b7bffffffffffffffffffffffffffffffffffffffffffffffffffffffff1916817bffffffffffffffffffffffffffffffffffffffffffffffffffffffff191614611d0d576040517f08c379a0000000000000000000000000000000000000000000000000000000008152600401611d0490613d5d565b60405180910390fd5b505b505050505050565b60606000600167ffffffffffffffff811115611d3657611d35612419565b5b604051908082528060200260200182016040528015611d645781602001602082028036833780820191505090505b5090508281600081518110611d7c57611d7b613229565b5b60200260200101818152505080915050919050565b611db08473ffffffffffffffffffffffffffffffffffffffff1661220e565b15611f60578373ffffffffffffffffffffffffffffffffffffffff1663f23a6e6187878686866040518663ffffffff1660e01b8152600401611df6959493929190613d7d565b6020604051808303816000875af1925050508015611e3257506040513d601f19601f82011682018060405250810190611e2f9190613b6d565b60015b611ed757611e3e613ba7565b806308c379a003611e9a5750611e52613bc9565b80611e5d5750611e9c565b806040517f08c379a0000000000000000000000000000000000000000000000000000000008152600401611e919190612615565b60405180910390fd5b505b6040517f08c379a0000000000000000000000000000000000000000000000000000000008152600401611ece90613ccb565b60405180910390fd5b63f23a6e6160e01b7bffffffffffffffffffffffffffffffffffffffffffffffffffffffff1916817bffffffffffffffffffffffffffffffffffffffffffffffffffffffff191614611f5e576040517f08c379a0000000000000000000000000000000000000000000000000000000008152600401611f5590613d5d565b60405180910390fd5b505b505050505050565b60007f01ffc9a7000000000000000000000000000000000000000000000000000000007bffffffffffffffffffffffffffffffffffffffffffffffffffffffff1916827bffffffffffffffffffffffffffffffffffffffffffffffffffffffff1916149050919050565b606060006002836002611fe59190613dd7565b611fef919061362a565b67ffffffffffffffff81111561200857612007612419565b5b6040519080825280601f01601f19166020018201604052801561203a5781602001600182028036833780820191505090505b5090507f30000000000000000000000000000000000000000000000000000000000000008160008151811061207257612071613229565b5b60200101907effffffffffffffffffffffffffffffffffffffffffffffffffffffffffffff1916908160001a9053507f7800000000000000000000000000000000000000000000000000000000000000816001815181106120d6576120d5613229565b5b60200101907effffffffffffffffffffffffffffffffffffffffffffffffffffffffffffff1916908160001a905350600060018460026121169190613dd7565b612120919061362a565b90505b60018111156121c0577f3031323334353637383961626364656600000000000000000000000000000000600f86166010811061216257612161613229565b5b1a60f81b82828151811061217957612178613229565b5b60200101907effffffffffffffffffffffffffffffffffffffffffffffffffffffffffffff1916908160001a905350600485901c9450806121b990613e31565b9050612123565b5060008414612204576040517f08c379a00000000000000000000000000000000000000000000000000000000081526004016121fb90613ea6565b60405180910390fd5b8091505092915050565b6000808273ffffffffffffffffffffffffffffffffffffffff163b119050919050565b6000604051905090565b600080fd5b600080fd5b600073ffffffffffffffffffffffffffffffffffffffff82169050919050565b600061227082612245565b9050919050565b61228081612265565b811461228b57600080fd5b50565b60008135905061229d81612277565b92915050565b6000819050919050565b6122b6816122a3565b81146122c157600080fd5b50565b6000813590506122d3816122ad565b92915050565b600080604083850312156122f0576122ef61223b565b5b60006122fe8582860161228e565b925050602061230f858286016122c4565b9150509250929050565b612322816122a3565b82525050565b600060208201905061233d6000830184612319565b92915050565b60007fffffffff0000000000000000000000000000000000000000000000000000000082169050919050565b61237881612343565b811461238357600080fd5b50565b6000813590506123958161236f565b92915050565b6000602082840312156123b1576123b061223b565b5b60006123bf84828501612386565b91505092915050565b60008115159050919050565b6123dd816123c8565b82525050565b60006020820190506123f860008301846123d4565b92915050565b600080fd5b600080fd5b6000601f19601f8301169050919050565b7f4e487b7100000000000000000000000000000000000000000000000000000000600052604160045260246000fd5b61245182612408565b810181811067ffffffffffffffff821117156124705761246f612419565b5b80604052505050565b6000612483612231565b905061248f8282612448565b919050565b600067ffffffffffffffff8211156124af576124ae612419565b5b6124b882612408565b9050602081019050919050565b82818337600083830152505050565b60006124e76124e284612494565b612479565b90508281526020810184848401111561250357612502612403565b5b61250e8482856124c5565b509392505050565b600082601f83011261252b5761252a6123fe565b5b813561253b8482602086016124d4565b91505092915050565b60006020828403121561255a5761255961223b565b5b600082013567ffffffffffffffff81111561257857612577612240565b5b61258484828501612516565b91505092915050565b600081519050919050565b600082825260208201905092915050565b60005b838110156125c75780820151818401526020810190506125ac565b838111156125d6576000848401525b50505050565b60006125e78261258d565b6125f18185612598565b93506126018185602086016125a9565b61260a81612408565b840191505092915050565b6000602082019050818103600083015261262f81846125dc565b905092915050565b60006020828403121561264d5761264c61223b565b5b600061265b848285016122c4565b91505092915050565b6000819050919050565b61267781612664565b811461268257600080fd5b50565b6000813590506126948161266e565b92915050565b6000602082840312156126b0576126af61223b565b5b60006126be84828501612685565b91505092915050565b6126d081612664565b82525050565b60006020820190506126eb60008301846126c7565b92915050565b600067ffffffffffffffff82111561270c5761270b612419565b5b602082029050602081019050919050565b600080fd5b6000612735612730846126f1565b612479565b905080838252602082019050602084028301858111156127585761275761271d565b5b835b81811015612781578061276d88826122c4565b84526020840193505060208101905061275a565b5050509392505050565b600082601f8301126127a05761279f6123fe565b5b81356127b0848260208601612722565b91505092915050565b600067ffffffffffffffff8211156127d4576127d3612419565b5b6127dd82612408565b9050602081019050919050565b60006127fd6127f8846127b9565b612479565b90508281526020810184848401111561281957612818612403565b5b6128248482856124c5565b509392505050565b600082601f830112612841576128406123fe565b5b81356128518482602086016127ea565b91505092915050565b600080600080600060a086880312156128765761287561223b565b5b60006128848882890161228e565b95505060206128958882890161228e565b945050604086013567ffffffffffffffff8111156128b6576128b5612240565b5b6128c28882890161278b565b935050606086013567ffffffffffffffff8111156128e3576128e2612240565b5b6128ef8882890161278b565b925050608086013567ffffffffffffffff8111156129105761290f612240565b5b61291c8882890161282c565b9150509295509295909350565b600080604083850312156129405761293f61223b565b5b600061294e85828601612685565b925050602061295f8582860161228e565b9150509250929050565b600067ffffffffffffffff82111561298457612983612419565b5b602082029050602081019050919050565b60006129a86129a384612969565b612479565b905080838252602082019050602084028301858111156129cb576129ca61271d565b5b835b818110156129f457806129e0888261228e565b8452602084019350506020810190506129cd565b5050509392505050565b600082601f830112612a1357612a126123fe565b5b8135612a23848260208601612995565b91505092915050565b60008060408385031215612a4357612a4261223b565b5b600083013567ffffffffffffffff811115612a6157612a60612240565b5b612a6d858286016129fe565b925050602083013567ffffffffffffffff811115612a8e57612a8d612240565b5b612a9a8582860161278b565b9150509250929050565b600081519050919050565b600082825260208201905092915050565b6000819050602082019050919050565b612ad9816122a3565b82525050565b6000612aeb8383612ad0565b60208301905092915050565b6000602082019050919050565b6000612b0f82612aa4565b612b198185612aaf565b9350612b2483612ac0565b8060005b83811015612b55578151612b3c8882612adf565b9750612b4783612af7565b925050600181019050612b28565b5085935050505092915050565b60006020820190508181036000830152612b7c8184612b04565b905092915050565b60008060408385031215612b9b57612b9a61223b565b5b6000612ba9858286016122c4565b9250506020612bba8582860161228e565b9150509250929050565b612bcd816123c8565b8114612bd857600080fd5b50565b600081359050612bea81612bc4565b92915050565b60008060408385031215612c0757612c0661223b565b5b6000612c158582860161228e565b9250506020612c2685828601612bdb565b9150509250929050565b600080fd5b60008083601f840112612c4b57612c4a6123fe565b5b8235905067ffffffffffffffff811115612c6857612c67612c30565b5b602083019150836020820283011115612c8457612c8361271d565b5b9250929050565b60008060008060608587031215612ca557612ca461223b565b5b6000612cb3878288016122c4565b945050602085013567ffffffffffffffff811115612cd457612cd3612240565b5b612ce087828801612c35565b93509350506040612cf3878288016122c4565b91505092959194509250565b60008060408385031215612d1657612d1561223b565b5b6000612d24858286016122c4565b925050602083013567ffffffffffffffff811115612d4557612d44612240565b5b612d518582860161282c565b9150509250929050565b60008060408385031215612d7257612d7161223b565b5b6000612d808582860161228e565b9250506020612d918582860161228e565b9150509250929050565b600080600080600060a08688031215612db757612db661223b565b5b6000612dc58882890161228e565b9550506020612dd68882890161228e565b9450506040612de7888289016122c4565b9350506060612df8888289016122c4565b925050608086013567ffffffffffffffff811115612e1957612e18612240565b5b612e258882890161282c565b9150509295509295909350565b7f455243313135353a2061646472657373207a65726f206973206e6f742061207660008201527f616c6964206f776e657200000000000000000000000000000000000000000000602082015250565b6000612e8e602a83612598565b9150612e9982612e32565b604082019050919050565b60006020820190508181036000830152612ebd81612e81565b9050919050565b7f4e487b7100000000000000000000000000000000000000000000000000000000600052602260045260246000fd5b60006002820490506001821680612f0b57607f821691505b602082108103612f1e57612f1d612ec4565b5b50919050565b600081905092915050565b60008190508160005260206000209050919050565b60008154612f5181612ef3565b612f5b8186612f24565b94506001821660008114612f765760018114612f8b57612fbe565b60ff1983168652811515820286019350612fbe565b612f9485612f2f565b60005b83811015612fb657815481890152600182019150602081019050612f97565b838801955050505b50505092915050565b6000612fd28261258d565b612fdc8185612f24565b9350612fec8185602086016125a9565b80840191505092915050565b7f2e6a736f6e000000000000000000000000000000000000000000000000000000600082015250565b600061302e600583612f24565b915061303982612ff8565b600582019050919050565b60006130508285612f44565b915061305c8284612fc7565b915061306782613021565b91508190509392505050565b7f455243313135353a2063616c6c6572206973206e6f7420746f6b656e206f776e60008201527f6572206e6f7220617070726f7665640000000000000000000000000000000000602082015250565b60006130cf602f83612598565b91506130da82613073565b604082019050919050565b600060208201905081810360008301526130fe816130c2565b9050919050565b7f416363657373436f6e74726f6c3a2063616e206f6e6c792072656e6f756e636560008201527f20726f6c657320666f722073656c660000000000000000000000000000000000602082015250565b6000613161602f83612598565b915061316c82613105565b604082019050919050565b6000602082019050818103600083015261319081613154565b9050919050565b7f455243313135353a206163636f756e747320616e6420696473206c656e67746860008201527f206d69736d617463680000000000000000000000000000000000000000000000602082015250565b60006131f3602983612598565b91506131fe82613197565b604082019050919050565b60006020820190508181036000830152613222816131e6565b9050919050565b7f4e487b7100000000000000000000000000000000000000000000000000000000600052603260045260246000fd5b7f4e487b7100000000000000000000000000000000000000000000000000000000600052601160045260246000fd5b6000613292826122a3565b91507fffffffffffffffffffffffffffffffffffffffffffffffffffffffffffffffff82036132c4576132c3613258565b5b600182019050919050565b6000602082840312156132e5576132e461223b565b5b60006132f38482850161228e565b91505092915050565b60006020601f8301049050919050565b600082821b905092915050565b6000600883026133497fffffffffffffffffffffffffffffffffffffffffffffffffffffffffffffffff8261330c565b613353868361330c565b95508019841693508086168417925050509392505050565b6000819050919050565b600061339061338b613386846122a3565b61336b565b6122a3565b9050919050565b6000819050919050565b6133aa83613375565b6133be6133b682613397565b848454613319565b825550505050565b600090565b6133d36133c6565b6133de8184846133a1565b505050565b5b81811015613402576133f76000826133cb565b6001810190506133e4565b5050565b601f8211156134475761341881612f2f565b613421846132fc565b81016020851015613430578190505b61344461343c856132fc565b8301826133e3565b50505b505050565b600082821c905092915050565b600061346a6000198460080261344c565b1980831691505092915050565b60006134838383613459565b9150826002028217905092915050565b61349c8261258d565b67ffffffffffffffff8111156134b5576134b4612419565b5b6134bf8254612ef3565b6134ca828285613406565b600060209050601f8311600181146134fd57600084156134eb578287015190505b6134f58582613477565b86555061355d565b601f19841661350b86612f2f565b60005b828110156135335784890151825560018201915060208501945060208101905061350e565b86831015613550578489015161354c601f891682613459565b8355505b6001600288020188555050505b505050505050565b7f4e487b7100000000000000000000000000000000000000000000000000000000600052601260045260246000fd5b600061359f826122a3565b91506135aa836122a3565b9250826135ba576135b9613565565b5b828204905092915050565b60006135d0826122a3565b91506135db836122a3565b9250828210156135ee576135ed613258565b5b828203905092915050565b6000613604826122a3565b915061360f836122a3565b92508261361f5761361e613565565b5b828206905092915050565b6000613635826122a3565b9150613640836122a3565b9250827fffffffffffffffffffffffffffffffffffffffffffffffffffffffffffffffff0382111561367557613674613258565b5b828201905092915050565b7f455243313135353a2069647320616e6420616d6f756e7473206c656e6774682060008201527f6d69736d61746368000000000000000000000000000000000000000000000000602082015250565b60006136dc602883612598565b91506136e782613680565b604082019050919050565b6000602082019050818103600083015261370b816136cf565b9050919050565b7f455243313135353a207472616e7366657220746f20746865207a65726f20616460008201527f6472657373000000000000000000000000000000000000000000000000000000602082015250565b600061376e602583612598565b915061377982613712565b604082019050919050565b6000602082019050818103600083015261379d81613761565b9050919050565b7f455243313135353a20696e73756666696369656e742062616c616e636520666f60008201527f72207472616e7366657200000000000000000000000000000000000000000000602082015250565b6000613800602a83612598565b915061380b826137a4565b604082019050919050565b6000602082019050818103600083015261382f816137f3565b9050919050565b600060408201905081810360008301526138508185612b04565b905081810360208301526138648184612b04565b90509392505050565b7f455243313135353a2073657474696e6720617070726f76616c2073746174757360008201527f20666f722073656c660000000000000000000000000000000000000000000000602082015250565b60006138c9602983612598565b91506138d48261386d565b604082019050919050565b600060208201905081810360008301526138f8816138bc565b9050919050565b7f455243313135353a206d696e7420746f20746865207a65726f2061646472657360008201527f7300000000000000000000000000000000000000000000000000000000000000602082015250565b600061395b602183612598565b9150613966826138ff565b604082019050919050565b6000602082019050818103600083015261398a8161394e565b9050919050565b60006040820190506139a66000830185612319565b6139b36020830184612319565b9392505050565b7f416363657373436f6e74726f6c3a206163636f756e7420000000000000000000600082015250565b60006139f0601783612f24565b91506139fb826139ba565b601782019050919050565b7f206973206d697373696e6720726f6c6520000000000000000000000000000000600082015250565b6000613a3c601183612f24565b9150613a4782613a06565b601182019050919050565b6000613a5d826139e3565b9150613a698285612fc7565b9150613a7482613a2f565b9150613a808284612fc7565b91508190509392505050565b613a9581612265565b82525050565b600081519050919050565b600082825260208201905092915050565b6000613ac282613a9b565b613acc8185613aa6565b9350613adc8185602086016125a9565b613ae581612408565b840191505092915050565b600060a082019050613b056000830188613a8c565b613b126020830187613a8c565b8181036040830152613b248186612b04565b90508181036060830152613b388185612b04565b90508181036080830152613b4c8184613ab7565b90509695505050505050565b600081519050613b678161236f565b92915050565b600060208284031215613b8357613b8261223b565b5b6000613b9184828501613b58565b91505092915050565b60008160e01c9050919050565b600060033d1115613bc65760046000803e613bc3600051613b9a565b90505b90565b600060443d10613c5657613bdb612231565b60043d036004823e80513d602482011167ffffffffffffffff82111715613c03575050613c56565b808201805167ffffffffffffffff811115613c215750505050613c56565b80602083010160043d038501811115613c3e575050505050613c56565b613c4d82602001850186612448565b82955050505050505b90565b7f455243313135353a207472616e7366657220746f206e6f6e204552433131353560008201527f526563656976657220696d706c656d656e746572000000000000000000000000602082015250565b6000613cb5603483612598565b9150613cc082613c59565b604082019050919050565b60006020820190508181036000830152613ce481613ca8565b9050919050565b7f455243313135353a204552433131353552656365697665722072656a6563746560008201527f6420746f6b656e73000000000000000000000000000000000000000000000000602082015250565b6000613d47602883612598565b9150613d5282613ceb565b604082019050919050565b60006020820190508181036000830152613d7681613d3a565b9050919050565b600060a082019050613d926000830188613a8c565b613d9f6020830187613a8c565b613dac6040830186612319565b613db96060830185612319565b8181036080830152613dcb8184613ab7565b90509695505050505050565b6000613de2826122a3565b9150613ded836122a3565b9250817fffffffffffffffffffffffffffffffffffffffffffffffffffffffffffffffff0483118215151615613e2657613e25613258565b5b828202905092915050565b6000613e3c826122a3565b915060008203613e4f57613e4e613258565b5b600182039050919050565b7f537472696e67733a20686578206c656e67746820696e73756666696369656e74600082015250565b6000613e90602083612598565b9150613e9b82613e5a565b602082019050919050565b60006020820190508181036000830152613ebf81613e83565b905091905056fea26469706673582212207e42974311d7c2e446ab28a2e2b74d6ac679cb92bd27e81ee83d2c55d79993ea64736f6c634300080f0033446f6f6d736461793a20416476656e7475726520496e746f2054686520476c6f6f6d797665727365",
  "linkReferences": {},
  "deployedLinkReferences": {}
}