{
  "_format": "hh-sol-artifact-1",
  "contractName": "TheColony",
  "sourceName": "contracts/TheColony.sol",
  "abi": [
    {
      "inputs": [
        {
          "internalType": "string",
          "name": "uri",
          "type": "string"
        },
        {
          "internalType": "address",
          "name": "benef",
          "type": "address"
        }
      ],
      "stateMutability": "nonpayable",
      "type": "constructor"
    },
    {
      "inputs": [],
      "name": "ApprovalCallerNotOwnerNorApproved",
      "type": "error"
    },
    {
      "inputs": [],
      "name": "ApprovalQueryForNonexistentToken",
      "type": "error"
    },
    {
      "inputs": [],
      "name": "BalanceQueryForZeroAddress",
      "type": "error"
    },
    {
      "inputs": [],
      "name": "InsufficientFunds",
      "type": "error"
    },
    {
      "inputs": [],
      "name": "InvalidAirdrop",
      "type": "error"
    },
    {
      "inputs": [],
      "name": "MintClosed",
      "type": "error"
    },
    {
      "inputs": [],
      "name": "MintERC2309QuantityExceedsLimit",
      "type": "error"
    },
    {
      "inputs": [],
      "name": "MintToZeroAddress",
      "type": "error"
    },
    {
      "inputs": [],
      "name": "MintZeroQuantity",
      "type": "error"
    },
    {
      "inputs": [],
      "name": "MintedOut",
      "type": "error"
    },
    {
      "inputs": [],
      "name": "NotPublicMint",
      "type": "error"
    },
    {
      "inputs": [],
      "name": "OwnerQueryForNonexistentToken",
      "type": "error"
    },
    {
      "inputs": [],
      "name": "OwnershipNotInitializedForExtraData",
      "type": "error"
    },
    {
      "inputs": [],
      "name": "TransferCallerNotOwnerNorApproved",
      "type": "error"
    },
    {
      "inputs": [],
      "name": "TransferFromIncorrectOwner",
      "type": "error"
    },
    {
      "inputs": [],
      "name": "TransferToNonERC721ReceiverImplementer",
      "type": "error"
    },
    {
      "inputs": [],
      "name": "TransferToZeroAddress",
      "type": "error"
    },
    {
      "inputs": [],
      "name": "URIQueryForNonexistentToken",
      "type": "error"
    },
    {
      "anonymous": false,
      "inputs": [
        {
          "indexed": true,
          "internalType": "address",
          "name": "owner",
          "type": "address"
        },
        {
          "indexed": true,
          "internalType": "address",
          "name": "approved",
          "type": "address"
        },
        {
          "indexed": true,
          "internalType": "uint256",
          "name": "tokenId",
          "type": "uint256"
        }
      ],
      "name": "Approval",
      "type": "event"
    },
    {
      "anonymous": false,
      "inputs": [
        {
          "indexed": true,
          "internalType": "address",
          "name": "owner",
          "type": "address"
        },
        {
          "indexed": true,
          "internalType": "address",
          "name": "operator",
          "type": "address"
        },
        {
          "indexed": false,
          "internalType": "bool",
          "name": "approved",
          "type": "bool"
        }
      ],
      "name": "ApprovalForAll",
      "type": "event"
    },
    {
      "anonymous": false,
      "inputs": [
        {
          "indexed": true,
          "internalType": "uint256",
          "name": "fromTokenId",
          "type": "uint256"
        },
        {
          "indexed": false,
          "internalType": "uint256",
          "name": "toTokenId",
          "type": "uint256"
        },
        {
          "indexed": true,
          "internalType": "address",
          "name": "from",
          "type": "address"
        },
        {
          "indexed": true,
          "internalType": "address",
          "name": "to",
          "type": "address"
        }
      ],
      "name": "ConsecutiveTransfer",
      "type": "event"
    },
    {
      "anonymous": false,
      "inputs": [
        {
          "indexed": true,
          "internalType": "address",
          "name": "previousOwner",
          "type": "address"
        },
        {
          "indexed": true,
          "internalType": "address",
          "name": "newOwner",
          "type": "address"
        }
      ],
      "name": "OwnershipTransferred",
      "type": "event"
    },
    {
      "anonymous": false,
      "inputs": [
        {
          "indexed": true,
          "internalType": "address",
          "name": "from",
          "type": "address"
        },
        {
          "indexed": true,
          "internalType": "address",
          "name": "to",
          "type": "address"
        },
        {
          "indexed": true,
          "internalType": "uint256",
          "name": "tokenId",
          "type": "uint256"
        }
      ],
      "name": "Transfer",
      "type": "event"
    },
    {
      "inputs": [
        {
          "internalType": "address[]",
          "name": "winners",
          "type": "address[]"
        },
        {
          "internalType": "uint256[]",
          "name": "prizes",
          "type": "uint256[]"
        }
      ],
      "name": "airdrop",
      "outputs": [],
      "stateMutability": "nonpayable",
      "type": "function"
    },
    {
      "inputs": [
        {
          "internalType": "address",
          "name": "to",
          "type": "address"
        },
        {
          "internalType": "uint256",
          "name": "tokenId",
          "type": "uint256"
        }
      ],
      "name": "approve",
      "outputs": [],
      "stateMutability": "payable",
      "type": "function"
    },
    {
      "inputs": [
        {
          "internalType": "address",
          "name": "owner",
          "type": "address"
        }
      ],
      "name": "balanceOf",
      "outputs": [
        {
          "internalType": "uint256",
          "name": "",
          "type": "uint256"
        }
      ],
      "stateMutability": "view",
      "type": "function"
    },
    {
      "inputs": [],
      "name": "baseURI",
      "outputs": [
        {
          "internalType": "string",
          "name": "",
          "type": "string"
        }
      ],
      "stateMutability": "view",
      "type": "function"
    },
    {
      "inputs": [],
      "name": "beneficiary",
      "outputs": [
        {
          "internalType": "address",
          "name": "",
          "type": "address"
        }
      ],
      "stateMutability": "view",
      "type": "function"
    },
    {
      "inputs": [
        {
          "internalType": "uint256",
          "name": "tokenId",
          "type": "uint256"
        }
      ],
      "name": "getApproved",
      "outputs": [
        {
          "internalType": "address",
          "name": "",
          "type": "address"
        }
      ],
      "stateMutability": "view",
      "type": "function"
    },
    {
      "inputs": [
        {
          "internalType": "address",
          "name": "owner",
          "type": "address"
        },
        {
          "internalType": "address",
          "name": "operator",
          "type": "address"
        }
      ],
      "name": "isApprovedForAll",
      "outputs": [
        {
          "internalType": "bool",
          "name": "",
          "type": "bool"
        }
      ],
      "stateMutability": "view",
      "type": "function"
    },
    {
      "inputs": [],
      "name": "maxSupply",
      "outputs": [
        {
          "internalType": "uint256",
          "name": "",
          "type": "uint256"
        }
      ],
      "stateMutability": "view",
      "type": "function"
    },
    {
      "inputs": [
        {
          "internalType": "uint256",
          "name": "quantity",
          "type": "uint256"
        }
      ],
      "name": "mint",
      "outputs": [],
      "stateMutability": "payable",
      "type": "function"
    },
    {
      "inputs": [],
      "name": "mintOpen",
      "outputs": [
        {
          "internalType": "bool",
          "name": "",
          "type": "bool"
        }
      ],
      "stateMutability": "view",
      "type": "function"
    },
    {
      "inputs": [],
      "name": "mintPrice",
      "outputs": [
        {
          "internalType": "uint256",
          "name": "",
          "type": "uint256"
        }
      ],
      "stateMutability": "view",
      "type": "function"
    },
    {
      "inputs": [],
      "name": "name",
      "outputs": [
        {
          "internalType": "string",
          "name": "",
          "type": "string"
        }
      ],
      "stateMutability": "view",
      "type": "function"
    },
    {
      "inputs": [],
      "name": "owner",
      "outputs": [
        {
          "internalType": "address",
          "name": "",
          "type": "address"
        }
      ],
      "stateMutability": "view",
      "type": "function"
    },
    {
      "inputs": [
        {
          "internalType": "uint256",
          "name": "tokenId",
          "type": "uint256"
        }
      ],
      "name": "ownerOf",
      "outputs": [
        {
          "internalType": "address",
          "name": "",
          "type": "address"
        }
      ],
      "stateMutability": "view",
      "type": "function"
    },
    {
      "inputs": [],
      "name": "renounceOwnership",
      "outputs": [],
      "stateMutability": "nonpayable",
      "type": "function"
    },
    {
      "inputs": [
        {
          "internalType": "address",
          "name": "from",
          "type": "address"
        },
        {
          "internalType": "address",
          "name": "to",
          "type": "address"
        },
        {
          "internalType": "uint256",
          "name": "tokenId",
          "type": "uint256"
        }
      ],
      "name": "safeTransferFrom",
      "outputs": [],
      "stateMutability": "payable",
      "type": "function"
    },
    {
      "inputs": [
        {
          "internalType": "address",
          "name": "from",
          "type": "address"
        },
        {
          "internalType": "address",
          "name": "to",
          "type": "address"
        },
        {
          "internalType": "uint256",
          "name": "tokenId",
          "type": "uint256"
        },
        {
          "internalType": "bytes",
          "name": "_data",
          "type": "bytes"
        }
      ],
      "name": "safeTransferFrom",
      "outputs": [],
      "stateMutability": "payable",
      "type": "function"
    },
    {
      "inputs": [
        {
          "internalType": "address",
          "name": "operator",
          "type": "address"
        },
        {
          "internalType": "bool",
          "name": "approved",
          "type": "bool"
        }
      ],
      "name": "setApprovalForAll",
      "outputs": [],
      "stateMutability": "nonpayable",
      "type": "function"
    },
    {
      "inputs": [
        {
          "internalType": "bytes4",
          "name": "interfaceId",
          "type": "bytes4"
        }
      ],
      "name": "supportsInterface",
      "outputs": [
        {
          "internalType": "bool",
          "name": "",
          "type": "bool"
        }
      ],
      "stateMutability": "view",
      "type": "function"
    },
    {
      "inputs": [],
      "name": "symbol",
      "outputs": [
        {
          "internalType": "string",
          "name": "",
          "type": "string"
        }
      ],
      "stateMutability": "view",
      "type": "function"
    },
    {
      "inputs": [
        {
          "internalType": "uint256",
          "name": "tokenId",
          "type": "uint256"
        }
      ],
      "name": "tokenURI",
      "outputs": [
        {
          "internalType": "string",
          "name": "",
          "type": "string"
        }
      ],
      "stateMutability": "view",
      "type": "function"
    },
    {
      "inputs": [],
      "name": "totalSupply",
      "outputs": [
        {
          "internalType": "uint256",
          "name": "",
          "type": "uint256"
        }
      ],
      "stateMutability": "view",
      "type": "function"
    },
    {
      "inputs": [
        {
          "internalType": "address",
          "name": "from",
          "type": "address"
        },
        {
          "internalType": "address",
          "name": "to",
          "type": "address"
        },
        {
          "internalType": "uint256",
          "name": "tokenId",
          "type": "uint256"
        }
      ],
      "name": "transferFrom",
      "outputs": [],
      "stateMutability": "payable",
      "type": "function"
    },
    {
      "inputs": [
        {
          "internalType": "address",
          "name": "newOwner",
          "type": "address"
        }
      ],
      "name": "transferOwnership",
      "outputs": [],
      "stateMutability": "nonpayable",
      "type": "function"
    },
    {
      "inputs": [],
      "name": "updateMintStatus",
      "outputs": [],
      "stateMutability": "nonpayable",
      "type": "function"
    },
    {
      "inputs": [
        {
          "internalType": "uint256",
          "name": "newPrice",
          "type": "uint256"
        }
      ],
      "name": "updatePrice",
      "outputs": [],
      "stateMutability": "nonpayable",
      "type": "function"
    },
    {
      "inputs": [],
      "name": "withdraw",
      "outputs": [],
      "stateMutability": "nonpayable",
      "type": "function"
    }
  ],
  "bytecode": "0x60a06040526103e7608090815250662386f26fc10000600b553480156200002557600080fd5b5060405162002f4c38038062002f4c83398181016040528101906200004b919062000462565b6040518060400160405280600a81526020017f54686520436f6c6f6e79000000000000000000000000000000000000000000008152506040518060400160405280600581526020017f434f4c4f4e0000000000000000000000000000000000000000000000000000008152508160029081620000c8919062000713565b508060039081620000da919062000713565b50620000eb6200018960201b60201c565b600081905550505062000113620001076200019260201b60201c565b6200019a60201b60201c565b80600a60006101000a81548173ffffffffffffffffffffffffffffffffffffffff021916908373ffffffffffffffffffffffffffffffffffffffff160217905550816009908162000165919062000713565b506001600a60146101000a81548160ff0219169083151502179055505050620007fa565b60006001905090565b600033905090565b6000600860009054906101000a900473ffffffffffffffffffffffffffffffffffffffff16905081600860006101000a81548173ffffffffffffffffffffffffffffffffffffffff021916908373ffffffffffffffffffffffffffffffffffffffff1602179055508173ffffffffffffffffffffffffffffffffffffffff168173ffffffffffffffffffffffffffffffffffffffff167f8be0079c531659141344cd1fd0a4f28419497f9722a3daafe3b4186f6b6457e060405160405180910390a35050565b6000604051905090565b600080fd5b600080fd5b600080fd5b600080fd5b6000601f19601f8301169050919050565b7f4e487b7100000000000000000000000000000000000000000000000000000000600052604160045260246000fd5b620002c9826200027e565b810181811067ffffffffffffffff82111715620002eb57620002ea6200028f565b5b80604052505050565b60006200030062000260565b90506200030e8282620002be565b919050565b600067ffffffffffffffff8211156200033157620003306200028f565b5b6200033c826200027e565b9050602081019050919050565b60005b83811015620003695780820151818401526020810190506200034c565b8381111562000379576000848401525b50505050565b600062000396620003908462000313565b620002f4565b905082815260208101848484011115620003b557620003b462000279565b5b620003c284828562000349565b509392505050565b600082601f830112620003e257620003e162000274565b5b8151620003f48482602086016200037f565b91505092915050565b600073ffffffffffffffffffffffffffffffffffffffff82169050919050565b60006200042a82620003fd565b9050919050565b6200043c816200041d565b81146200044857600080fd5b50565b6000815190506200045c8162000431565b92915050565b600080604083850312156200047c576200047b6200026a565b5b600083015167ffffffffffffffff8111156200049d576200049c6200026f565b5b620004ab85828601620003ca565b9250506020620004be858286016200044b565b9150509250929050565b600081519050919050565b7f4e487b7100000000000000000000000000000000000000000000000000000000600052602260045260246000fd5b600060028204905060018216806200051b57607f821691505b602082108103620005315762000530620004d3565b5b50919050565b60008190508160005260206000209050919050565b60006020601f8301049050919050565b600082821b905092915050565b6000600883026200059b7fffffffffffffffffffffffffffffffffffffffffffffffffffffffffffffffff826200055c565b620005a786836200055c565b95508019841693508086168417925050509392505050565b6000819050919050565b6000819050919050565b6000620005f4620005ee620005e884620005bf565b620005c9565b620005bf565b9050919050565b6000819050919050565b6200061083620005d3565b620006286200061f82620005fb565b84845462000569565b825550505050565b600090565b6200063f62000630565b6200064c81848462000605565b505050565b5b8181101562000674576200066860008262000635565b60018101905062000652565b5050565b601f821115620006c3576200068d8162000537565b62000698846200054c565b81016020851015620006a8578190505b620006c0620006b7856200054c565b83018262000651565b50505b505050565b600082821c905092915050565b6000620006e860001984600802620006c8565b1980831691505092915050565b6000620007038383620006d5565b9150826002028217905092915050565b6200071e82620004c8565b67ffffffffffffffff8111156200073a57620007396200028f565b5b62000746825462000502565b6200075382828562000678565b600060209050601f8311600181146200078b576000841562000776578287015190505b620007828582620006f5565b865550620007f2565b601f1984166200079b8662000537565b60005b82811015620007c5578489015182556001820191506020850194506020810190506200079e565b86831015620007e55784890151620007e1601f891682620006d5565b8355505b6001600288020188555050505b505050505050565b6080516127286200082460003960008181610d87015281816110cf015261134801526127286000f3fe60806040526004361061019c5760003560e01c80636817c76c116100ec578063a0712d681161008a578063c87b56dd11610064578063c87b56dd14610539578063d5abeb0114610576578063e985e9c5146105a1578063f2fde38b146105de5761019c565b8063a0712d68146104d8578063a22cb465146104f4578063b88d4fde1461051d5761019c565b8063715018a6116100c6578063715018a6146104425780638d6cc56d146104595780638da5cb5b1461048257806395d89b41146104ad5761019c565b80636817c76c146103af5780636c0360eb146103da57806370a08231146104055761019c565b806324bbd049116101595780633ccfd60b116101335780633ccfd60b1461031657806342842e0e1461032d5780636352211e1461034957806367243482146103865761019c565b806324bbd049146102a957806334d19644146102d457806338af3eed146102eb5761019c565b806301ffc9a7146101a157806306fdde03146101de578063081812fc14610209578063095ea7b31461024657806318160ddd1461026257806323b872dd1461028d575b600080fd5b3480156101ad57600080fd5b506101c860048036038101906101c39190611bc6565b610607565b6040516101d59190611c0e565b60405180910390f35b3480156101ea57600080fd5b506101f3610699565b6040516102009190611cc2565b60405180910390f35b34801561021557600080fd5b50610230600480360381019061022b9190611d1a565b61072b565b60405161023d9190611d88565b60405180910390f35b610260600480360381019061025b9190611dcf565b6107aa565b005b34801561026e57600080fd5b506102776108ee565b6040516102849190611e1e565b60405180910390f35b6102a760048036038101906102a29190611e39565b610905565b005b3480156102b557600080fd5b506102be610c27565b6040516102cb9190611c0e565b60405180910390f35b3480156102e057600080fd5b506102e9610c3a565b005b3480156102f757600080fd5b50610300610c6e565b60405161030d9190611d88565b60405180910390f35b34801561032257600080fd5b5061032b610c94565b005b61034760048036038101906103429190611e39565b610d07565b005b34801561035557600080fd5b50610370600480360381019061036b9190611d1a565b610d27565b60405161037d9190611d88565b60405180910390f35b34801561039257600080fd5b506103ad60048036038101906103a89190611f47565b610d39565b005b3480156103bb57600080fd5b506103c4610e59565b6040516103d19190611e1e565b60405180910390f35b3480156103e657600080fd5b506103ef610e5f565b6040516103fc9190611cc2565b60405180910390f35b34801561041157600080fd5b5061042c60048036038101906104279190611fc8565b610eed565b6040516104399190611e1e565b60405180910390f35b34801561044e57600080fd5b50610457610fa5565b005b34801561046557600080fd5b50610480600480360381019061047b9190611d1a565b610fb9565b005b34801561048e57600080fd5b50610497610fcb565b6040516104a49190611d88565b60405180910390f35b3480156104b957600080fd5b506104c2610ff5565b6040516104cf9190611cc2565b60405180910390f35b6104f260048036038101906104ed9190611d1a565b611087565b005b34801561050057600080fd5b5061051b60048036038101906105169190612021565b611194565b005b61053760048036038101906105329190612191565b61129f565b005b34801561054557600080fd5b50610560600480360381019061055b9190611d1a565b611312565b60405161056d9190611cc2565b60405180910390f35b34801561058257600080fd5b5061058b611346565b6040516105989190611e1e565b60405180910390f35b3480156105ad57600080fd5b506105c860048036038101906105c39190612214565b61136a565b6040516105d59190611c0e565b60405180910390f35b3480156105ea57600080fd5b5061060560048036038101906106009190611fc8565b6113fe565b005b60006301ffc9a760e01b827bffffffffffffffffffffffffffffffffffffffffffffffffffffffff1916148061066257506380ac58cd60e01b827bffffffffffffffffffffffffffffffffffffffffffffffffffffffff1916145b806106925750635b5e139f60e01b827bffffffffffffffffffffffffffffffffffffffffffffffffffffffff1916145b9050919050565b6060600280546106a890612283565b80601f01602080910402602001604051908101604052809291908181526020018280546106d490612283565b80156107215780601f106106f657610100808354040283529160200191610721565b820191906000526020600020905b81548152906001019060200180831161070457829003601f168201915b5050505050905090565b600061073682611481565b61076c576040517fcf4700e400000000000000000000000000000000000000000000000000000000815260040160405180910390fd5b6006600083815260200190815260200160002060000160009054906101000a900473ffffffffffffffffffffffffffffffffffffffff169050919050565b60006107b582610d27565b90508073ffffffffffffffffffffffffffffffffffffffff166107d66114e0565b73ffffffffffffffffffffffffffffffffffffffff161461083957610802816107fd6114e0565b61136a565b610838576040517fcfb3b94200000000000000000000000000000000000000000000000000000000815260040160405180910390fd5b5b826006600084815260200190815260200160002060000160006101000a81548173ffffffffffffffffffffffffffffffffffffffff021916908373ffffffffffffffffffffffffffffffffffffffff160217905550818373ffffffffffffffffffffffffffffffffffffffff168273ffffffffffffffffffffffffffffffffffffffff167f8c5be1e5ebec7d5bd14f71427d1e84f3dd0314c0f7b2291e5b200ac8c7c3b92560405160405180910390a4505050565b60006108f86114e8565b6001546000540303905090565b6000610910826114f1565b90508373ffffffffffffffffffffffffffffffffffffffff168173ffffffffffffffffffffffffffffffffffffffff1614610977576040517fa114810000000000000000000000000000000000000000000000000000000000815260040160405180910390fd5b600080610983846115bd565b9150915061099981876109946114e0565b6115e4565b6109e5576109ae866109a96114e0565b61136a565b6109e4576040517f59c896be00000000000000000000000000000000000000000000000000000000815260040160405180910390fd5b5b600073ffffffffffffffffffffffffffffffffffffffff168573ffffffffffffffffffffffffffffffffffffffff1603610a4b576040517fea553b3400000000000000000000000000000000000000000000000000000000815260040160405180910390fd5b610a588686866001611628565b8015610a6357600082555b600560008773ffffffffffffffffffffffffffffffffffffffff1673ffffffffffffffffffffffffffffffffffffffff168152602001908152602001600020600081546001900391905081905550600560008673ffffffffffffffffffffffffffffffffffffffff1673ffffffffffffffffffffffffffffffffffffffff1681526020019081526020016000206000815460010191905081905550610b3185610b0d88888761162e565b7c020000000000000000000000000000000000000000000000000000000017611656565b600460008681526020019081526020016000208190555060007c0200000000000000000000000000000000000000000000000000000000841603610bb75760006001850190506000600460008381526020019081526020016000205403610bb5576000548114610bb4578360046000838152602001908152602001600020819055505b5b505b838573ffffffffffffffffffffffffffffffffffffffff168773ffffffffffffffffffffffffffffffffffffffff167fddf252ad1be2c89b69c2b068fc378daa952ba7f163c4a11628f55a4df523b3ef60405160405180910390a4610c1f8686866001611681565b505050505050565b600a60149054906101000a900460ff1681565b610c42611687565b600a60149054906101000a900460ff1615600a60146101000a81548160ff021916908315150217905550565b600a60009054906101000a900473ffffffffffffffffffffffffffffffffffffffff1681565b610c9c611687565b600a60009054906101000a900473ffffffffffffffffffffffffffffffffffffffff1673ffffffffffffffffffffffffffffffffffffffff166108fc479081150290604051600060405180830381858888f19350505050158015610d04573d6000803e3d6000fd5b50565b610d228383836040518060200160405280600081525061129f565b505050565b6000610d32826114f1565b9050919050565b610d41611687565b6000848490509050828290508114610d85576040517fe6dcad7700000000000000000000000000000000000000000000000000000000815260040160405180910390fd5b7f000000000000000000000000000000000000000000000000000000000000000081610daf611705565b610db991906122e3565b1115610df1576040517f846fb9e200000000000000000000000000000000000000000000000000000000815260040160405180910390fd5b60005b81811015610e5157610e46868683818110610e1257610e11612339565b5b9050602002016020810190610e279190611fc8565b858584818110610e3a57610e39612339565b5b90506020020135611718565b806001019050610df4565b505050505050565b600b5481565b60098054610e6c90612283565b80601f0160208091040260200160405190810160405280929190818152602001828054610e9890612283565b8015610ee55780601f10610eba57610100808354040283529160200191610ee5565b820191906000526020600020905b815481529060010190602001808311610ec857829003601f168201915b505050505081565b60008073ffffffffffffffffffffffffffffffffffffffff168273ffffffffffffffffffffffffffffffffffffffff1603610f54576040517f8f4eb60400000000000000000000000000000000000000000000000000000000815260040160405180910390fd5b67ffffffffffffffff600560008473ffffffffffffffffffffffffffffffffffffffff1673ffffffffffffffffffffffffffffffffffffffff16815260200190815260200160002054169050919050565b610fad611687565b610fb760006118d3565b565b610fc1611687565b80600b8190555050565b6000600860009054906101000a900473ffffffffffffffffffffffffffffffffffffffff16905090565b60606003805461100490612283565b80601f016020809104026020016040519081016040528092919081815260200182805461103090612283565b801561107d5780601f106110525761010080835404028352916020019161107d565b820191906000526020600020905b81548152906001019060200180831161106057829003601f168201915b5050505050905090565b600a60149054906101000a900460ff166110cd576040517f589ed34b00000000000000000000000000000000000000000000000000000000815260040160405180910390fd5b7f0000000000000000000000000000000000000000000000000000000000000000816110f7611705565b61110191906122e3565b1115611139576040517f846fb9e200000000000000000000000000000000000000000000000000000000815260040160405180910390fd5b3481600b546111489190612368565b1015611180576040517f356680b700000000000000000000000000000000000000000000000000000000815260040160405180910390fd5b61119161118b611999565b82611718565b50565b80600760006111a16114e0565b73ffffffffffffffffffffffffffffffffffffffff1673ffffffffffffffffffffffffffffffffffffffff16815260200190815260200160002060008473ffffffffffffffffffffffffffffffffffffffff1673ffffffffffffffffffffffffffffffffffffffff16815260200190815260200160002060006101000a81548160ff0219169083151502179055508173ffffffffffffffffffffffffffffffffffffffff1661124e6114e0565b73ffffffffffffffffffffffffffffffffffffffff167f17307eab39ab6107e8899845ad3d59bd9653f200f220920489ca2b5937696c31836040516112939190611c0e565b60405180910390a35050565b6112aa848484610905565b60008373ffffffffffffffffffffffffffffffffffffffff163b1461130c576112d5848484846119a1565b61130b576040517fd1a57ed600000000000000000000000000000000000000000000000000000000815260040160405180910390fd5b5b50505050565b6060600961131f83611af1565b6040516020016113309291906124e2565b6040516020818303038152906040529050919050565b7f000000000000000000000000000000000000000000000000000000000000000081565b6000600760008473ffffffffffffffffffffffffffffffffffffffff1673ffffffffffffffffffffffffffffffffffffffff16815260200190815260200160002060008373ffffffffffffffffffffffffffffffffffffffff1673ffffffffffffffffffffffffffffffffffffffff16815260200190815260200160002060009054906101000a900460ff16905092915050565b611406611687565b600073ffffffffffffffffffffffffffffffffffffffff168173ffffffffffffffffffffffffffffffffffffffff1603611475576040517f08c379a000000000000000000000000000000000000000000000000000000000815260040161146c90612583565b60405180910390fd5b61147e816118d3565b50565b60008161148c6114e8565b1115801561149b575060005482105b80156114d9575060007c0100000000000000000000000000000000000000000000000000000000600460008581526020019081526020016000205416145b9050919050565b600033905090565b60006001905090565b600080829050806115006114e8565b11611586576000548110156115855760006004600083815260200190815260200160002054905060007c0100000000000000000000000000000000000000000000000000000000821603611583575b6000810361157957600460008360019003935083815260200190815260200160002054905061154f565b80925050506115b8565b505b5b6040517fdf2d9b4200000000000000000000000000000000000000000000000000000000815260040160405180910390fd5b919050565b60008060006006600085815260200190815260200160002090508092508254915050915091565b600073ffffffffffffffffffffffffffffffffffffffff8316925073ffffffffffffffffffffffffffffffffffffffff821691508382148383141790509392505050565b50505050565b60008060e883901c905060e8611645868684611b41565b62ffffff16901b9150509392505050565b600073ffffffffffffffffffffffffffffffffffffffff83169250814260a01b178317905092915050565b50505050565b61168f611999565b73ffffffffffffffffffffffffffffffffffffffff166116ad610fcb565b73ffffffffffffffffffffffffffffffffffffffff1614611703576040517f08c379a00000000000000000000000000000000000000000000000000000000081526004016116fa906125ef565b60405180910390fd5b565b600061170f6114e8565b60005403905090565b60008054905060008203611758576040517fb562e8dd00000000000000000000000000000000000000000000000000000000815260040160405180910390fd5b6117656000848385611628565b600160406001901b178202600560008573ffffffffffffffffffffffffffffffffffffffff1673ffffffffffffffffffffffffffffffffffffffff168152602001908152602001600020600082825401925050819055506117dc836117cd600086600061162e565b6117d685611b4a565b17611656565b6004600083815260200190815260200160002081905550600080838301905073ffffffffffffffffffffffffffffffffffffffff85169150828260007fddf252ad1be2c89b69c2b068fc378daa952ba7f163c4a11628f55a4df523b3ef600080a4600183015b81811461187d57808360007fddf252ad1be2c89b69c2b068fc378daa952ba7f163c4a11628f55a4df523b3ef600080a4600181019050611842565b50600082036118b8576040517f2e07630000000000000000000000000000000000000000000000000000000000815260040160405180910390fd5b8060008190555050506118ce6000848385611681565b505050565b6000600860009054906101000a900473ffffffffffffffffffffffffffffffffffffffff16905081600860006101000a81548173ffffffffffffffffffffffffffffffffffffffff021916908373ffffffffffffffffffffffffffffffffffffffff1602179055508173ffffffffffffffffffffffffffffffffffffffff168173ffffffffffffffffffffffffffffffffffffffff167f8be0079c531659141344cd1fd0a4f28419497f9722a3daafe3b4186f6b6457e060405160405180910390a35050565b600033905090565b60008373ffffffffffffffffffffffffffffffffffffffff1663150b7a026119c76114e0565b8786866040518563ffffffff1660e01b81526004016119e99493929190612664565b6020604051808303816000875af1925050508015611a2557506040513d601f19601f82011682018060405250810190611a2291906126c5565b60015b611a9e573d8060008114611a55576040519150601f19603f3d011682016040523d82523d6000602084013e611a5a565b606091505b506000815103611a96576040517fd1a57ed600000000000000000000000000000000000000000000000000000000815260040160405180910390fd5b805181602001fd5b63150b7a0260e01b7bffffffffffffffffffffffffffffffffffffffffffffffffffffffff1916817bffffffffffffffffffffffffffffffffffffffffffffffffffffffff191614915050949350505050565b606060a060405101806040526020810391506000825281835b600115611b2c57600184039350600a81066030018453600a8104905080611b0a575b50828103602084039350808452505050919050565b60009392505050565b60006001821460e11b9050919050565b6000604051905090565b600080fd5b600080fd5b60007fffffffff0000000000000000000000000000000000000000000000000000000082169050919050565b611ba381611b6e565b8114611bae57600080fd5b50565b600081359050611bc081611b9a565b92915050565b600060208284031215611bdc57611bdb611b64565b5b6000611bea84828501611bb1565b91505092915050565b60008115159050919050565b611c0881611bf3565b82525050565b6000602082019050611c236000830184611bff565b92915050565b600081519050919050565b600082825260208201905092915050565b60005b83811015611c63578082015181840152602081019050611c48565b83811115611c72576000848401525b50505050565b6000601f19601f8301169050919050565b6000611c9482611c29565b611c9e8185611c34565b9350611cae818560208601611c45565b611cb781611c78565b840191505092915050565b60006020820190508181036000830152611cdc8184611c89565b905092915050565b6000819050919050565b611cf781611ce4565b8114611d0257600080fd5b50565b600081359050611d1481611cee565b92915050565b600060208284031215611d3057611d2f611b64565b5b6000611d3e84828501611d05565b91505092915050565b600073ffffffffffffffffffffffffffffffffffffffff82169050919050565b6000611d7282611d47565b9050919050565b611d8281611d67565b82525050565b6000602082019050611d9d6000830184611d79565b92915050565b611dac81611d67565b8114611db757600080fd5b50565b600081359050611dc981611da3565b92915050565b60008060408385031215611de657611de5611b64565b5b6000611df485828601611dba565b9250506020611e0585828601611d05565b9150509250929050565b611e1881611ce4565b82525050565b6000602082019050611e336000830184611e0f565b92915050565b600080600060608486031215611e5257611e51611b64565b5b6000611e6086828701611dba565b9350506020611e7186828701611dba565b9250506040611e8286828701611d05565b9150509250925092565b600080fd5b600080fd5b600080fd5b60008083601f840112611eb157611eb0611e8c565b5b8235905067ffffffffffffffff811115611ece57611ecd611e91565b5b602083019150836020820283011115611eea57611ee9611e96565b5b9250929050565b60008083601f840112611f0757611f06611e8c565b5b8235905067ffffffffffffffff811115611f2457611f23611e91565b5b602083019150836020820283011115611f4057611f3f611e96565b5b9250929050565b60008060008060408587031215611f6157611f60611b64565b5b600085013567ffffffffffffffff811115611f7f57611f7e611b69565b5b611f8b87828801611e9b565b9450945050602085013567ffffffffffffffff811115611fae57611fad611b69565b5b611fba87828801611ef1565b925092505092959194509250565b600060208284031215611fde57611fdd611b64565b5b6000611fec84828501611dba565b91505092915050565b611ffe81611bf3565b811461200957600080fd5b50565b60008135905061201b81611ff5565b92915050565b6000806040838503121561203857612037611b64565b5b600061204685828601611dba565b92505060206120578582860161200c565b9150509250929050565b600080fd5b7f4e487b7100000000000000000000000000000000000000000000000000000000600052604160045260246000fd5b61209e82611c78565b810181811067ffffffffffffffff821117156120bd576120bc612066565b5b80604052505050565b60006120d0611b5a565b90506120dc8282612095565b919050565b600067ffffffffffffffff8211156120fc576120fb612066565b5b61210582611c78565b9050602081019050919050565b82818337600083830152505050565b600061213461212f846120e1565b6120c6565b9050828152602081018484840111156121505761214f612061565b5b61215b848285612112565b509392505050565b600082601f83011261217857612177611e8c565b5b8135612188848260208601612121565b91505092915050565b600080600080608085870312156121ab576121aa611b64565b5b60006121b987828801611dba565b94505060206121ca87828801611dba565b93505060406121db87828801611d05565b925050606085013567ffffffffffffffff8111156121fc576121fb611b69565b5b61220887828801612163565b91505092959194509250565b6000806040838503121561222b5761222a611b64565b5b600061223985828601611dba565b925050602061224a85828601611dba565b9150509250929050565b7f4e487b7100000000000000000000000000000000000000000000000000000000600052602260045260246000fd5b6000600282049050600182168061229b57607f821691505b6020821081036122ae576122ad612254565b5b50919050565b7f4e487b7100000000000000000000000000000000000000000000000000000000600052601160045260246000fd5b60006122ee82611ce4565b91506122f983611ce4565b9250827fffffffffffffffffffffffffffffffffffffffffffffffffffffffffffffffff0382111561232e5761232d6122b4565b5b828201905092915050565b7f4e487b7100000000000000000000000000000000000000000000000000000000600052603260045260246000fd5b600061237382611ce4565b915061237e83611ce4565b9250817fffffffffffffffffffffffffffffffffffffffffffffffffffffffffffffffff04831182151516156123b7576123b66122b4565b5b828202905092915050565b600081905092915050565b60008190508160005260206000209050919050565b600081546123ef81612283565b6123f981866123c2565b9450600182166000811461241457600181146124295761245c565b60ff198316865281151582028601935061245c565b612432856123cd565b60005b8381101561245457815481890152600182019150602081019050612435565b838801955050505b50505092915050565b600061247082611c29565b61247a81856123c2565b935061248a818560208601611c45565b80840191505092915050565b7f2e6a736f6e000000000000000000000000000000000000000000000000000000600082015250565b60006124cc6005836123c2565b91506124d782612496565b600582019050919050565b60006124ee82856123e2565b91506124fa8284612465565b9150612505826124bf565b91508190509392505050565b7f4f776e61626c653a206e6577206f776e657220697320746865207a65726f206160008201527f6464726573730000000000000000000000000000000000000000000000000000602082015250565b600061256d602683611c34565b915061257882612511565b604082019050919050565b6000602082019050818103600083015261259c81612560565b9050919050565b7f4f776e61626c653a2063616c6c6572206973206e6f7420746865206f776e6572600082015250565b60006125d9602083611c34565b91506125e4826125a3565b602082019050919050565b60006020820190508181036000830152612608816125cc565b9050919050565b600081519050919050565b600082825260208201905092915050565b60006126368261260f565b612640818561261a565b9350612650818560208601611c45565b61265981611c78565b840191505092915050565b60006080820190506126796000830187611d79565b6126866020830186611d79565b6126936040830185611e0f565b81810360608301526126a5818461262b565b905095945050505050565b6000815190506126bf81611b9a565b92915050565b6000602082840312156126db576126da611b64565b5b60006126e9848285016126b0565b9150509291505056fea26469706673582212202a1faf794f2518cd136b8387a425bb6263f0f407ff87925f848eb96bebb9537564736f6c634300080f0033",
  "linkReferences": {},
  "deployedLinkReferences": {}
}