{
  "_format": "hh-sol-artifact-1",
  "contractName": "TheColony",
  "sourceName": "contracts/TheColony.sol",
  "abi": [
    {
      "inputs": [
        {
          "internalType": "string",
          "name": "uri",
          "type": "string"
        },
        {
          "internalType": "address",
          "name": "benef",
          "type": "address"
        }
      ],
      "stateMutability": "nonpayable",
      "type": "constructor"
    },
    {
      "inputs": [],
      "name": "ApprovalCallerNotOwnerNorApproved",
      "type": "error"
    },
    {
      "inputs": [],
      "name": "ApprovalQueryForNonexistentToken",
      "type": "error"
    },
    {
      "inputs": [],
      "name": "BalanceQueryForZeroAddress",
      "type": "error"
    },
    {
      "inputs": [],
      "name": "InvalidAirdrop",
      "type": "error"
    },
    {
      "inputs": [],
      "name": "MintClosed",
      "type": "error"
    },
    {
      "inputs": [],
      "name": "MintERC2309QuantityExceedsLimit",
      "type": "error"
    },
    {
      "inputs": [],
      "name": "MintToZeroAddress",
      "type": "error"
    },
    {
      "inputs": [],
      "name": "MintZeroQuantity",
      "type": "error"
    },
    {
      "inputs": [],
      "name": "MintedOut",
      "type": "error"
    },
    {
      "inputs": [],
      "name": "NotPublicMint",
      "type": "error"
    },
    {
      "inputs": [],
      "name": "OwnerQueryForNonexistentToken",
      "type": "error"
    },
    {
      "inputs": [],
      "name": "OwnershipNotInitializedForExtraData",
      "type": "error"
    },
    {
      "inputs": [],
      "name": "TransferCallerNotOwnerNorApproved",
      "type": "error"
    },
    {
      "inputs": [],
      "name": "TransferFromIncorrectOwner",
      "type": "error"
    },
    {
      "inputs": [],
      "name": "TransferToNonERC721ReceiverImplementer",
      "type": "error"
    },
    {
      "inputs": [],
      "name": "TransferToZeroAddress",
      "type": "error"
    },
    {
      "inputs": [],
      "name": "URIQueryForNonexistentToken",
      "type": "error"
    },
    {
      "inputs": [],
      "name": "ZeroMint",
      "type": "error"
    },
    {
      "anonymous": false,
      "inputs": [
        {
          "indexed": true,
          "internalType": "address",
          "name": "owner",
          "type": "address"
        },
        {
          "indexed": true,
          "internalType": "address",
          "name": "approved",
          "type": "address"
        },
        {
          "indexed": true,
          "internalType": "uint256",
          "name": "tokenId",
          "type": "uint256"
        }
      ],
      "name": "Approval",
      "type": "event"
    },
    {
      "anonymous": false,
      "inputs": [
        {
          "indexed": true,
          "internalType": "address",
          "name": "owner",
          "type": "address"
        },
        {
          "indexed": true,
          "internalType": "address",
          "name": "operator",
          "type": "address"
        },
        {
          "indexed": false,
          "internalType": "bool",
          "name": "approved",
          "type": "bool"
        }
      ],
      "name": "ApprovalForAll",
      "type": "event"
    },
    {
      "anonymous": false,
      "inputs": [
        {
          "indexed": true,
          "internalType": "uint256",
          "name": "fromTokenId",
          "type": "uint256"
        },
        {
          "indexed": false,
          "internalType": "uint256",
          "name": "toTokenId",
          "type": "uint256"
        },
        {
          "indexed": true,
          "internalType": "address",
          "name": "from",
          "type": "address"
        },
        {
          "indexed": true,
          "internalType": "address",
          "name": "to",
          "type": "address"
        }
      ],
      "name": "ConsecutiveTransfer",
      "type": "event"
    },
    {
      "anonymous": false,
      "inputs": [
        {
          "indexed": true,
          "internalType": "address",
          "name": "previousOwner",
          "type": "address"
        },
        {
          "indexed": true,
          "internalType": "address",
          "name": "newOwner",
          "type": "address"
        }
      ],
      "name": "OwnershipTransferred",
      "type": "event"
    },
    {
      "anonymous": false,
      "inputs": [
        {
          "indexed": true,
          "internalType": "address",
          "name": "from",
          "type": "address"
        },
        {
          "indexed": true,
          "internalType": "address",
          "name": "to",
          "type": "address"
        },
        {
          "indexed": true,
          "internalType": "uint256",
          "name": "tokenId",
          "type": "uint256"
        }
      ],
      "name": "Transfer",
      "type": "event"
    },
    {
      "inputs": [
        {
          "internalType": "address[]",
          "name": "winners",
          "type": "address[]"
        },
        {
          "internalType": "uint256[]",
          "name": "prizes",
          "type": "uint256[]"
        }
      ],
      "name": "airdrop",
      "outputs": [],
      "stateMutability": "nonpayable",
      "type": "function"
    },
    {
      "inputs": [
        {
          "internalType": "address",
          "name": "to",
          "type": "address"
        },
        {
          "internalType": "uint256",
          "name": "tokenId",
          "type": "uint256"
        }
      ],
      "name": "approve",
      "outputs": [],
      "stateMutability": "payable",
      "type": "function"
    },
    {
      "inputs": [
        {
          "internalType": "address",
          "name": "owner",
          "type": "address"
        }
      ],
      "name": "balanceOf",
      "outputs": [
        {
          "internalType": "uint256",
          "name": "",
          "type": "uint256"
        }
      ],
      "stateMutability": "view",
      "type": "function"
    },
    {
      "inputs": [],
      "name": "baseURI",
      "outputs": [
        {
          "internalType": "string",
          "name": "",
          "type": "string"
        }
      ],
      "stateMutability": "view",
      "type": "function"
    },
    {
      "inputs": [],
      "name": "beneficiary",
      "outputs": [
        {
          "internalType": "address",
          "name": "",
          "type": "address"
        }
      ],
      "stateMutability": "view",
      "type": "function"
    },
    {
      "inputs": [
        {
          "internalType": "uint256",
          "name": "tokenId",
          "type": "uint256"
        }
      ],
      "name": "getApproved",
      "outputs": [
        {
          "internalType": "address",
          "name": "",
          "type": "address"
        }
      ],
      "stateMutability": "view",
      "type": "function"
    },
    {
      "inputs": [
        {
          "internalType": "address",
          "name": "owner",
          "type": "address"
        },
        {
          "internalType": "address",
          "name": "operator",
          "type": "address"
        }
      ],
      "name": "isApprovedForAll",
      "outputs": [
        {
          "internalType": "bool",
          "name": "",
          "type": "bool"
        }
      ],
      "stateMutability": "view",
      "type": "function"
    },
    {
      "inputs": [],
      "name": "maxSupply",
      "outputs": [
        {
          "internalType": "uint256",
          "name": "",
          "type": "uint256"
        }
      ],
      "stateMutability": "view",
      "type": "function"
    },
    {
      "inputs": [
        {
          "internalType": "uint256",
          "name": "quantity",
          "type": "uint256"
        }
      ],
      "name": "mint",
      "outputs": [],
      "stateMutability": "payable",
      "type": "function"
    },
    {
      "inputs": [],
      "name": "mintOpen",
      "outputs": [
        {
          "internalType": "bool",
          "name": "",
          "type": "bool"
        }
      ],
      "stateMutability": "view",
      "type": "function"
    },
    {
      "inputs": [],
      "name": "mintPrice",
      "outputs": [
        {
          "internalType": "uint256",
          "name": "",
          "type": "uint256"
        }
      ],
      "stateMutability": "view",
      "type": "function"
    },
    {
      "inputs": [],
      "name": "name",
      "outputs": [
        {
          "internalType": "string",
          "name": "",
          "type": "string"
        }
      ],
      "stateMutability": "view",
      "type": "function"
    },
    {
      "inputs": [],
      "name": "owner",
      "outputs": [
        {
          "internalType": "address",
          "name": "",
          "type": "address"
        }
      ],
      "stateMutability": "view",
      "type": "function"
    },
    {
      "inputs": [
        {
          "internalType": "uint256",
          "name": "tokenId",
          "type": "uint256"
        }
      ],
      "name": "ownerOf",
      "outputs": [
        {
          "internalType": "address",
          "name": "",
          "type": "address"
        }
      ],
      "stateMutability": "view",
      "type": "function"
    },
    {
      "inputs": [],
      "name": "renounceOwnership",
      "outputs": [],
      "stateMutability": "nonpayable",
      "type": "function"
    },
    {
      "inputs": [
        {
          "internalType": "address",
          "name": "from",
          "type": "address"
        },
        {
          "internalType": "address",
          "name": "to",
          "type": "address"
        },
        {
          "internalType": "uint256",
          "name": "tokenId",
          "type": "uint256"
        }
      ],
      "name": "safeTransferFrom",
      "outputs": [],
      "stateMutability": "payable",
      "type": "function"
    },
    {
      "inputs": [
        {
          "internalType": "address",
          "name": "from",
          "type": "address"
        },
        {
          "internalType": "address",
          "name": "to",
          "type": "address"
        },
        {
          "internalType": "uint256",
          "name": "tokenId",
          "type": "uint256"
        },
        {
          "internalType": "bytes",
          "name": "_data",
          "type": "bytes"
        }
      ],
      "name": "safeTransferFrom",
      "outputs": [],
      "stateMutability": "payable",
      "type": "function"
    },
    {
      "inputs": [
        {
          "internalType": "address",
          "name": "operator",
          "type": "address"
        },
        {
          "internalType": "bool",
          "name": "approved",
          "type": "bool"
        }
      ],
      "name": "setApprovalForAll",
      "outputs": [],
      "stateMutability": "nonpayable",
      "type": "function"
    },
    {
      "inputs": [
        {
          "internalType": "bytes4",
          "name": "interfaceId",
          "type": "bytes4"
        }
      ],
      "name": "supportsInterface",
      "outputs": [
        {
          "internalType": "bool",
          "name": "",
          "type": "bool"
        }
      ],
      "stateMutability": "view",
      "type": "function"
    },
    {
      "inputs": [],
      "name": "symbol",
      "outputs": [
        {
          "internalType": "string",
          "name": "",
          "type": "string"
        }
      ],
      "stateMutability": "view",
      "type": "function"
    },
    {
      "inputs": [
        {
          "internalType": "uint256",
          "name": "tokenId",
          "type": "uint256"
        }
      ],
      "name": "tokenURI",
      "outputs": [
        {
          "internalType": "string",
          "name": "",
          "type": "string"
        }
      ],
      "stateMutability": "view",
      "type": "function"
    },
    {
      "inputs": [],
      "name": "totalSupply",
      "outputs": [
        {
          "internalType": "uint256",
          "name": "",
          "type": "uint256"
        }
      ],
      "stateMutability": "view",
      "type": "function"
    },
    {
      "inputs": [
        {
          "internalType": "address",
          "name": "from",
          "type": "address"
        },
        {
          "internalType": "address",
          "name": "to",
          "type": "address"
        },
        {
          "internalType": "uint256",
          "name": "tokenId",
          "type": "uint256"
        }
      ],
      "name": "transferFrom",
      "outputs": [],
      "stateMutability": "payable",
      "type": "function"
    },
    {
      "inputs": [
        {
          "internalType": "address",
          "name": "newOwner",
          "type": "address"
        }
      ],
      "name": "transferOwnership",
      "outputs": [],
      "stateMutability": "nonpayable",
      "type": "function"
    },
    {
      "inputs": [
        {
          "internalType": "address",
          "name": "newBenef",
          "type": "address"
        }
      ],
      "name": "updateBeneficiary",
      "outputs": [],
      "stateMutability": "nonpayable",
      "type": "function"
    },
    {
      "inputs": [],
      "name": "updateMintStatus",
      "outputs": [],
      "stateMutability": "nonpayable",
      "type": "function"
    },
    {
      "inputs": [
        {
          "internalType": "uint256",
          "name": "newPrice",
          "type": "uint256"
        }
      ],
      "name": "updatePrice",
      "outputs": [],
      "stateMutability": "nonpayable",
      "type": "function"
    },
    {
      "inputs": [],
      "name": "withdraw",
      "outputs": [],
      "stateMutability": "nonpayable",
      "type": "function"
    }
  ],
  "bytecode": "0x60a06040526103e7608090815250662386f26fc10000600b553480156200002557600080fd5b506040516200308b3803806200308b83398181016040528101906200004b919062000462565b6040518060400160405280600a81526020017f54686520436f6c6f6e79000000000000000000000000000000000000000000008152506040518060400160405280600581526020017f434f4c4f4e0000000000000000000000000000000000000000000000000000008152508160029081620000c8919062000713565b508060039081620000da919062000713565b50620000eb6200018960201b60201c565b600081905550505062000113620001076200019260201b60201c565b6200019a60201b60201c565b80600a60006101000a81548173ffffffffffffffffffffffffffffffffffffffff021916908373ffffffffffffffffffffffffffffffffffffffff160217905550816009908162000165919062000713565b506001600a60146101000a81548160ff0219169083151502179055505050620007fa565b60006001905090565b600033905090565b6000600860009054906101000a900473ffffffffffffffffffffffffffffffffffffffff16905081600860006101000a81548173ffffffffffffffffffffffffffffffffffffffff021916908373ffffffffffffffffffffffffffffffffffffffff1602179055508173ffffffffffffffffffffffffffffffffffffffff168173ffffffffffffffffffffffffffffffffffffffff167f8be0079c531659141344cd1fd0a4f28419497f9722a3daafe3b4186f6b6457e060405160405180910390a35050565b6000604051905090565b600080fd5b600080fd5b600080fd5b600080fd5b6000601f19601f8301169050919050565b7f4e487b7100000000000000000000000000000000000000000000000000000000600052604160045260246000fd5b620002c9826200027e565b810181811067ffffffffffffffff82111715620002eb57620002ea6200028f565b5b80604052505050565b60006200030062000260565b90506200030e8282620002be565b919050565b600067ffffffffffffffff8211156200033157620003306200028f565b5b6200033c826200027e565b9050602081019050919050565b60005b83811015620003695780820151818401526020810190506200034c565b8381111562000379576000848401525b50505050565b600062000396620003908462000313565b620002f4565b905082815260208101848484011115620003b557620003b462000279565b5b620003c284828562000349565b509392505050565b600082601f830112620003e257620003e162000274565b5b8151620003f48482602086016200037f565b91505092915050565b600073ffffffffffffffffffffffffffffffffffffffff82169050919050565b60006200042a82620003fd565b9050919050565b6200043c816200041d565b81146200044857600080fd5b50565b6000815190506200045c8162000431565b92915050565b600080604083850312156200047c576200047b6200026a565b5b600083015167ffffffffffffffff8111156200049d576200049c6200026f565b5b620004ab85828601620003ca565b9250506020620004be858286016200044b565b9150509250929050565b600081519050919050565b7f4e487b7100000000000000000000000000000000000000000000000000000000600052602260045260246000fd5b600060028204905060018216806200051b57607f821691505b602082108103620005315762000530620004d3565b5b50919050565b60008190508160005260206000209050919050565b60006020601f8301049050919050565b600082821b905092915050565b6000600883026200059b7fffffffffffffffffffffffffffffffffffffffffffffffffffffffffffffffff826200055c565b620005a786836200055c565b95508019841693508086168417925050509392505050565b6000819050919050565b6000819050919050565b6000620005f4620005ee620005e884620005bf565b620005c9565b620005bf565b9050919050565b6000819050919050565b6200061083620005d3565b620006286200061f82620005fb565b84845462000569565b825550505050565b600090565b6200063f62000630565b6200064c81848462000605565b505050565b5b8181101562000674576200066860008262000635565b60018101905062000652565b5050565b601f821115620006c3576200068d8162000537565b62000698846200054c565b81016020851015620006a8578190505b620006c0620006b7856200054c565b83018262000651565b50505b505050565b600082821c905092915050565b6000620006e860001984600802620006c8565b1980831691505092915050565b6000620007038383620006d5565b9150826002028217905092915050565b6200071e82620004c8565b67ffffffffffffffff8111156200073a57620007396200028f565b5b62000746825462000502565b6200075382828562000678565b600060209050601f8311600181146200078b576000841562000776578287015190505b620007828582620006f5565b865550620007f2565b601f1984166200079b8662000537565b60005b82811015620007c5578489015182556001820191506020850194506020810190506200079e565b86831015620007e55784890151620007e1601f891682620006d5565b8355505b6001600288020188555050505b505050505050565b6080516128676200082460003960008181610e170152818161119a015261141b01526128676000f3fe6080604052600436106101b75760003560e01c80636817c76c116100ec578063a0712d681161008a578063c87b56dd11610064578063c87b56dd1461057d578063d5abeb01146105ba578063e985e9c5146105e5578063f2fde38b14610622576101b7565b8063a0712d681461051c578063a22cb46514610538578063b88d4fde14610561576101b7565b8063715018a6116100c6578063715018a6146104865780638d6cc56d1461049d5780638da5cb5b146104c657806395d89b41146104f1576101b7565b80636817c76c146103f35780636c0360eb1461041e57806370a0823114610449576101b7565b806324bbd049116101595780633ccfd60b116101335780633ccfd60b1461035a57806342842e0e146103715780636352211e1461038d57806367243482146103ca576101b7565b806324bbd049146102ed57806334d196441461031857806338af3eed1461032f576101b7565b8063095ea7b311610195578063095ea7b3146102615780630aaffd2a1461027d57806318160ddd146102a657806323b872dd146102d1576101b7565b806301ffc9a7146101bc57806306fdde03146101f9578063081812fc14610224575b600080fd5b3480156101c857600080fd5b506101e360048036038101906101de9190611c99565b61064b565b6040516101f09190611ce1565b60405180910390f35b34801561020557600080fd5b5061020e6106dd565b60405161021b9190611d95565b60405180910390f35b34801561023057600080fd5b5061024b60048036038101906102469190611ded565b61076f565b6040516102589190611e5b565b60405180910390f35b61027b60048036038101906102769190611ea2565b6107ee565b005b34801561028957600080fd5b506102a4600480360381019061029f9190611ee2565b610932565b005b3480156102b257600080fd5b506102bb61097e565b6040516102c89190611f1e565b60405180910390f35b6102eb60048036038101906102e69190611f39565b610995565b005b3480156102f957600080fd5b50610302610cb7565b60405161030f9190611ce1565b60405180910390f35b34801561032457600080fd5b5061032d610cca565b005b34801561033b57600080fd5b50610344610cfe565b6040516103519190611e5b565b60405180910390f35b34801561036657600080fd5b5061036f610d24565b005b61038b60048036038101906103869190611f39565b610d97565b005b34801561039957600080fd5b506103b460048036038101906103af9190611ded565b610db7565b6040516103c19190611e5b565b60405180910390f35b3480156103d657600080fd5b506103f160048036038101906103ec9190612047565b610dc9565b005b3480156103ff57600080fd5b50610408610ee9565b6040516104159190611f1e565b60405180910390f35b34801561042a57600080fd5b50610433610eef565b6040516104409190611d95565b60405180910390f35b34801561045557600080fd5b50610470600480360381019061046b9190611ee2565b610f7d565b60405161047d9190611f1e565b60405180910390f35b34801561049257600080fd5b5061049b611035565b005b3480156104a957600080fd5b506104c460048036038101906104bf9190611ded565b611049565b005b3480156104d257600080fd5b506104db61105b565b6040516104e89190611e5b565b60405180910390f35b3480156104fd57600080fd5b50610506611085565b6040516105139190611d95565b60405180910390f35b61053660048036038101906105319190611ded565b611117565b005b34801561054457600080fd5b5061055f600480360381019061055a91906120f4565b611267565b005b61057b60048036038101906105769190612264565b611372565b005b34801561058957600080fd5b506105a4600480360381019061059f9190611ded565b6113e5565b6040516105b19190611d95565b60405180910390f35b3480156105c657600080fd5b506105cf611419565b6040516105dc9190611f1e565b60405180910390f35b3480156105f157600080fd5b5061060c600480360381019061060791906122e7565b61143d565b6040516106199190611ce1565b60405180910390f35b34801561062e57600080fd5b5061064960048036038101906106449190611ee2565b6114d1565b005b60006301ffc9a760e01b827bffffffffffffffffffffffffffffffffffffffffffffffffffffffff191614806106a657506380ac58cd60e01b827bffffffffffffffffffffffffffffffffffffffffffffffffffffffff1916145b806106d65750635b5e139f60e01b827bffffffffffffffffffffffffffffffffffffffffffffffffffffffff1916145b9050919050565b6060600280546106ec90612356565b80601f016020809104026020016040519081016040528092919081815260200182805461071890612356565b80156107655780601f1061073a57610100808354040283529160200191610765565b820191906000526020600020905b81548152906001019060200180831161074857829003601f168201915b5050505050905090565b600061077a82611554565b6107b0576040517fcf4700e400000000000000000000000000000000000000000000000000000000815260040160405180910390fd5b6006600083815260200190815260200160002060000160009054906101000a900473ffffffffffffffffffffffffffffffffffffffff169050919050565b60006107f982610db7565b90508073ffffffffffffffffffffffffffffffffffffffff1661081a6115b3565b73ffffffffffffffffffffffffffffffffffffffff161461087d57610846816108416115b3565b61143d565b61087c576040517fcfb3b94200000000000000000000000000000000000000000000000000000000815260040160405180910390fd5b5b826006600084815260200190815260200160002060000160006101000a81548173ffffffffffffffffffffffffffffffffffffffff021916908373ffffffffffffffffffffffffffffffffffffffff160217905550818373ffffffffffffffffffffffffffffffffffffffff168273ffffffffffffffffffffffffffffffffffffffff167f8c5be1e5ebec7d5bd14f71427d1e84f3dd0314c0f7b2291e5b200ac8c7c3b92560405160405180910390a4505050565b61093a6115bb565b80600a60006101000a81548173ffffffffffffffffffffffffffffffffffffffff021916908373ffffffffffffffffffffffffffffffffffffffff16021790555050565b6000610988611639565b6001546000540303905090565b60006109a082611642565b90508373ffffffffffffffffffffffffffffffffffffffff168173ffffffffffffffffffffffffffffffffffffffff1614610a07576040517fa114810000000000000000000000000000000000000000000000000000000000815260040160405180910390fd5b600080610a138461170e565b91509150610a298187610a246115b3565b611735565b610a7557610a3e86610a396115b3565b61143d565b610a74576040517f59c896be00000000000000000000000000000000000000000000000000000000815260040160405180910390fd5b5b600073ffffffffffffffffffffffffffffffffffffffff168573ffffffffffffffffffffffffffffffffffffffff1603610adb576040517fea553b3400000000000000000000000000000000000000000000000000000000815260040160405180910390fd5b610ae88686866001611779565b8015610af357600082555b600560008773ffffffffffffffffffffffffffffffffffffffff1673ffffffffffffffffffffffffffffffffffffffff168152602001908152602001600020600081546001900391905081905550600560008673ffffffffffffffffffffffffffffffffffffffff1673ffffffffffffffffffffffffffffffffffffffff1681526020019081526020016000206000815460010191905081905550610bc185610b9d88888761177f565b7c0200000000000000000000000000000000000000000000000000000000176117a7565b600460008681526020019081526020016000208190555060007c0200000000000000000000000000000000000000000000000000000000841603610c475760006001850190506000600460008381526020019081526020016000205403610c45576000548114610c44578360046000838152602001908152602001600020819055505b5b505b838573ffffffffffffffffffffffffffffffffffffffff168773ffffffffffffffffffffffffffffffffffffffff167fddf252ad1be2c89b69c2b068fc378daa952ba7f163c4a11628f55a4df523b3ef60405160405180910390a4610caf86868660016117d2565b505050505050565b600a60149054906101000a900460ff1681565b610cd26115bb565b600a60149054906101000a900460ff1615600a60146101000a81548160ff021916908315150217905550565b600a60009054906101000a900473ffffffffffffffffffffffffffffffffffffffff1681565b610d2c6115bb565b600a60009054906101000a900473ffffffffffffffffffffffffffffffffffffffff1673ffffffffffffffffffffffffffffffffffffffff166108fc479081150290604051600060405180830381858888f19350505050158015610d94573d6000803e3d6000fd5b50565b610db283838360405180602001604052806000815250611372565b505050565b6000610dc282611642565b9050919050565b610dd16115bb565b6000848490509050828290508114610e15576040517fe6dcad7700000000000000000000000000000000000000000000000000000000815260040160405180910390fd5b7f000000000000000000000000000000000000000000000000000000000000000081610e3f6117d8565b610e4991906123b6565b1115610e81576040517f846fb9e200000000000000000000000000000000000000000000000000000000815260040160405180910390fd5b60005b81811015610ee157610ed6868683818110610ea257610ea161240c565b5b9050602002016020810190610eb79190611ee2565b858584818110610eca57610ec961240c565b5b905060200201356117eb565b806001019050610e84565b505050505050565b600b5481565b60098054610efc90612356565b80601f0160208091040260200160405190810160405280929190818152602001828054610f2890612356565b8015610f755780601f10610f4a57610100808354040283529160200191610f75565b820191906000526020600020905b815481529060010190602001808311610f5857829003601f168201915b505050505081565b60008073ffffffffffffffffffffffffffffffffffffffff168273ffffffffffffffffffffffffffffffffffffffff1603610fe4576040517f8f4eb60400000000000000000000000000000000000000000000000000000000815260040160405180910390fd5b67ffffffffffffffff600560008473ffffffffffffffffffffffffffffffffffffffff1673ffffffffffffffffffffffffffffffffffffffff16815260200190815260200160002054169050919050565b61103d6115bb565b61104760006119a6565b565b6110516115bb565b80600b8190555050565b6000600860009054906101000a900473ffffffffffffffffffffffffffffffffffffffff16905090565b60606003805461109490612356565b80601f01602080910402602001604051908101604052809291908181526020018280546110c090612356565b801561110d5780601f106110e25761010080835404028352916020019161110d565b820191906000526020600020905b8154815290600101906020018083116110f057829003601f168201915b5050505050905090565b600a60149054906101000a900460ff1661115d576040517f589ed34b00000000000000000000000000000000000000000000000000000000815260040160405180910390fd5b6001811015611198576040517fa776bb4d00000000000000000000000000000000000000000000000000000000815260040160405180910390fd5b7f0000000000000000000000000000000000000000000000000000000000000000816111c26117d8565b6111cc91906123b6565b1115611204576040517f846fb9e200000000000000000000000000000000000000000000000000000000815260040160405180910390fd5b80600b54611212919061243b565b3414611253576040517f08c379a000000000000000000000000000000000000000000000000000000000815260040161124a906124e1565b60405180910390fd5b61126461125e611a6c565b826117eb565b50565b80600760006112746115b3565b73ffffffffffffffffffffffffffffffffffffffff1673ffffffffffffffffffffffffffffffffffffffff16815260200190815260200160002060008473ffffffffffffffffffffffffffffffffffffffff1673ffffffffffffffffffffffffffffffffffffffff16815260200190815260200160002060006101000a81548160ff0219169083151502179055508173ffffffffffffffffffffffffffffffffffffffff166113216115b3565b73ffffffffffffffffffffffffffffffffffffffff167f17307eab39ab6107e8899845ad3d59bd9653f200f220920489ca2b5937696c31836040516113669190611ce1565b60405180910390a35050565b61137d848484610995565b60008373ffffffffffffffffffffffffffffffffffffffff163b146113df576113a884848484611a74565b6113de576040517fd1a57ed600000000000000000000000000000000000000000000000000000000815260040160405180910390fd5b5b50505050565b606060096113f283611bc4565b604051602001611403929190612621565b6040516020818303038152906040529050919050565b7f000000000000000000000000000000000000000000000000000000000000000081565b6000600760008473ffffffffffffffffffffffffffffffffffffffff1673ffffffffffffffffffffffffffffffffffffffff16815260200190815260200160002060008373ffffffffffffffffffffffffffffffffffffffff1673ffffffffffffffffffffffffffffffffffffffff16815260200190815260200160002060009054906101000a900460ff16905092915050565b6114d96115bb565b600073ffffffffffffffffffffffffffffffffffffffff168173ffffffffffffffffffffffffffffffffffffffff1603611548576040517f08c379a000000000000000000000000000000000000000000000000000000000815260040161153f906126c2565b60405180910390fd5b611551816119a6565b50565b60008161155f611639565b1115801561156e575060005482105b80156115ac575060007c0100000000000000000000000000000000000000000000000000000000600460008581526020019081526020016000205416145b9050919050565b600033905090565b6115c3611a6c565b73ffffffffffffffffffffffffffffffffffffffff166115e161105b565b73ffffffffffffffffffffffffffffffffffffffff1614611637576040517f08c379a000000000000000000000000000000000000000000000000000000000815260040161162e9061272e565b60405180910390fd5b565b60006001905090565b60008082905080611651611639565b116116d7576000548110156116d65760006004600083815260200190815260200160002054905060007c01000000000000000000000000000000000000000000000000000000008216036116d4575b600081036116ca5760046000836001900393508381526020019081526020016000205490506116a0565b8092505050611709565b505b5b6040517fdf2d9b4200000000000000000000000000000000000000000000000000000000815260040160405180910390fd5b919050565b60008060006006600085815260200190815260200160002090508092508254915050915091565b600073ffffffffffffffffffffffffffffffffffffffff8316925073ffffffffffffffffffffffffffffffffffffffff821691508382148383141790509392505050565b50505050565b60008060e883901c905060e8611796868684611c14565b62ffffff16901b9150509392505050565b600073ffffffffffffffffffffffffffffffffffffffff83169250814260a01b178317905092915050565b50505050565b60006117e2611639565b60005403905090565b6000805490506000820361182b576040517fb562e8dd00000000000000000000000000000000000000000000000000000000815260040160405180910390fd5b6118386000848385611779565b600160406001901b178202600560008573ffffffffffffffffffffffffffffffffffffffff1673ffffffffffffffffffffffffffffffffffffffff168152602001908152602001600020600082825401925050819055506118af836118a0600086600061177f565b6118a985611c1d565b176117a7565b6004600083815260200190815260200160002081905550600080838301905073ffffffffffffffffffffffffffffffffffffffff85169150828260007fddf252ad1be2c89b69c2b068fc378daa952ba7f163c4a11628f55a4df523b3ef600080a4600183015b81811461195057808360007fddf252ad1be2c89b69c2b068fc378daa952ba7f163c4a11628f55a4df523b3ef600080a4600181019050611915565b506000820361198b576040517f2e07630000000000000000000000000000000000000000000000000000000000815260040160405180910390fd5b8060008190555050506119a160008483856117d2565b505050565b6000600860009054906101000a900473ffffffffffffffffffffffffffffffffffffffff16905081600860006101000a81548173ffffffffffffffffffffffffffffffffffffffff021916908373ffffffffffffffffffffffffffffffffffffffff1602179055508173ffffffffffffffffffffffffffffffffffffffff168173ffffffffffffffffffffffffffffffffffffffff167f8be0079c531659141344cd1fd0a4f28419497f9722a3daafe3b4186f6b6457e060405160405180910390a35050565b600033905090565b60008373ffffffffffffffffffffffffffffffffffffffff1663150b7a02611a9a6115b3565b8786866040518563ffffffff1660e01b8152600401611abc94939291906127a3565b6020604051808303816000875af1925050508015611af857506040513d601f19601f82011682018060405250810190611af59190612804565b60015b611b71573d8060008114611b28576040519150601f19603f3d011682016040523d82523d6000602084013e611b2d565b606091505b506000815103611b69576040517fd1a57ed600000000000000000000000000000000000000000000000000000000815260040160405180910390fd5b805181602001fd5b63150b7a0260e01b7bffffffffffffffffffffffffffffffffffffffffffffffffffffffff1916817bffffffffffffffffffffffffffffffffffffffffffffffffffffffff191614915050949350505050565b606060a060405101806040526020810391506000825281835b600115611bff57600184039350600a81066030018453600a8104905080611bdd575b50828103602084039350808452505050919050565b60009392505050565b60006001821460e11b9050919050565b6000604051905090565b600080fd5b600080fd5b60007fffffffff0000000000000000000000000000000000000000000000000000000082169050919050565b611c7681611c41565b8114611c8157600080fd5b50565b600081359050611c9381611c6d565b92915050565b600060208284031215611caf57611cae611c37565b5b6000611cbd84828501611c84565b91505092915050565b60008115159050919050565b611cdb81611cc6565b82525050565b6000602082019050611cf66000830184611cd2565b92915050565b600081519050919050565b600082825260208201905092915050565b60005b83811015611d36578082015181840152602081019050611d1b565b83811115611d45576000848401525b50505050565b6000601f19601f8301169050919050565b6000611d6782611cfc565b611d718185611d07565b9350611d81818560208601611d18565b611d8a81611d4b565b840191505092915050565b60006020820190508181036000830152611daf8184611d5c565b905092915050565b6000819050919050565b611dca81611db7565b8114611dd557600080fd5b50565b600081359050611de781611dc1565b92915050565b600060208284031215611e0357611e02611c37565b5b6000611e1184828501611dd8565b91505092915050565b600073ffffffffffffffffffffffffffffffffffffffff82169050919050565b6000611e4582611e1a565b9050919050565b611e5581611e3a565b82525050565b6000602082019050611e706000830184611e4c565b92915050565b611e7f81611e3a565b8114611e8a57600080fd5b50565b600081359050611e9c81611e76565b92915050565b60008060408385031215611eb957611eb8611c37565b5b6000611ec785828601611e8d565b9250506020611ed885828601611dd8565b9150509250929050565b600060208284031215611ef857611ef7611c37565b5b6000611f0684828501611e8d565b91505092915050565b611f1881611db7565b82525050565b6000602082019050611f336000830184611f0f565b92915050565b600080600060608486031215611f5257611f51611c37565b5b6000611f6086828701611e8d565b9350506020611f7186828701611e8d565b9250506040611f8286828701611dd8565b9150509250925092565b600080fd5b600080fd5b600080fd5b60008083601f840112611fb157611fb0611f8c565b5b8235905067ffffffffffffffff811115611fce57611fcd611f91565b5b602083019150836020820283011115611fea57611fe9611f96565b5b9250929050565b60008083601f84011261200757612006611f8c565b5b8235905067ffffffffffffffff81111561202457612023611f91565b5b6020830191508360208202830111156120405761203f611f96565b5b9250929050565b6000806000806040858703121561206157612060611c37565b5b600085013567ffffffffffffffff81111561207f5761207e611c3c565b5b61208b87828801611f9b565b9450945050602085013567ffffffffffffffff8111156120ae576120ad611c3c565b5b6120ba87828801611ff1565b925092505092959194509250565b6120d181611cc6565b81146120dc57600080fd5b50565b6000813590506120ee816120c8565b92915050565b6000806040838503121561210b5761210a611c37565b5b600061211985828601611e8d565b925050602061212a858286016120df565b9150509250929050565b600080fd5b7f4e487b7100000000000000000000000000000000000000000000000000000000600052604160045260246000fd5b61217182611d4b565b810181811067ffffffffffffffff821117156121905761218f612139565b5b80604052505050565b60006121a3611c2d565b90506121af8282612168565b919050565b600067ffffffffffffffff8211156121cf576121ce612139565b5b6121d882611d4b565b9050602081019050919050565b82818337600083830152505050565b6000612207612202846121b4565b612199565b90508281526020810184848401111561222357612222612134565b5b61222e8482856121e5565b509392505050565b600082601f83011261224b5761224a611f8c565b5b813561225b8482602086016121f4565b91505092915050565b6000806000806080858703121561227e5761227d611c37565b5b600061228c87828801611e8d565b945050602061229d87828801611e8d565b93505060406122ae87828801611dd8565b925050606085013567ffffffffffffffff8111156122cf576122ce611c3c565b5b6122db87828801612236565b91505092959194509250565b600080604083850312156122fe576122fd611c37565b5b600061230c85828601611e8d565b925050602061231d85828601611e8d565b9150509250929050565b7f4e487b7100000000000000000000000000000000000000000000000000000000600052602260045260246000fd5b6000600282049050600182168061236e57607f821691505b60208210810361238157612380612327565b5b50919050565b7f4e487b7100000000000000000000000000000000000000000000000000000000600052601160045260246000fd5b60006123c182611db7565b91506123cc83611db7565b9250827fffffffffffffffffffffffffffffffffffffffffffffffffffffffffffffffff0382111561240157612400612387565b5b828201905092915050565b7f4e487b7100000000000000000000000000000000000000000000000000000000600052603260045260246000fd5b600061244682611db7565b915061245183611db7565b9250817fffffffffffffffffffffffffffffffffffffffffffffffffffffffffffffffff048311821515161561248a57612489612387565b5b828202905092915050565b7f4554482076616c756520696e636f727265637400000000000000000000000000600082015250565b60006124cb601383611d07565b91506124d682612495565b602082019050919050565b600060208201905081810360008301526124fa816124be565b9050919050565b600081905092915050565b60008190508160005260206000209050919050565b6000815461252e81612356565b6125388186612501565b9450600182166000811461255357600181146125685761259b565b60ff198316865281151582028601935061259b565b6125718561250c565b60005b8381101561259357815481890152600182019150602081019050612574565b838801955050505b50505092915050565b60006125af82611cfc565b6125b98185612501565b93506125c9818560208601611d18565b80840191505092915050565b7f2e6a736f6e000000000000000000000000000000000000000000000000000000600082015250565b600061260b600583612501565b9150612616826125d5565b600582019050919050565b600061262d8285612521565b915061263982846125a4565b9150612644826125fe565b91508190509392505050565b7f4f776e61626c653a206e6577206f776e657220697320746865207a65726f206160008201527f6464726573730000000000000000000000000000000000000000000000000000602082015250565b60006126ac602683611d07565b91506126b782612650565b604082019050919050565b600060208201905081810360008301526126db8161269f565b9050919050565b7f4f776e61626c653a2063616c6c6572206973206e6f7420746865206f776e6572600082015250565b6000612718602083611d07565b9150612723826126e2565b602082019050919050565b600060208201905081810360008301526127478161270b565b9050919050565b600081519050919050565b600082825260208201905092915050565b60006127758261274e565b61277f8185612759565b935061278f818560208601611d18565b61279881611d4b565b840191505092915050565b60006080820190506127b86000830187611e4c565b6127c56020830186611e4c565b6127d26040830185611f0f565b81810360608301526127e4818461276a565b905095945050505050565b6000815190506127fe81611c6d565b92915050565b60006020828403121561281a57612819611c37565b5b6000612828848285016127ef565b9150509291505056fea26469706673582212203a8cb907ee319fe48fbb04211ecc813f42ab276766a7b22110098ba053b4804964736f6c634300080f0033",
  "linkReferences": {},
  "deployedLinkReferences": {}
}