{
  "_format": "hh-sol-artifact-1",
  "contractName": "TheColony",
  "sourceName": "contracts/TheColony.sol",
  "abi": [
    {
      "inputs": [
        {
          "internalType": "string",
          "name": "uri",
          "type": "string"
        },
        {
          "internalType": "address",
          "name": "benef",
          "type": "address"
        }
      ],
      "stateMutability": "nonpayable",
      "type": "constructor"
    },
    {
      "inputs": [],
      "name": "ApprovalCallerNotOwnerNorApproved",
      "type": "error"
    },
    {
      "inputs": [],
      "name": "ApprovalQueryForNonexistentToken",
      "type": "error"
    },
    {
      "inputs": [],
      "name": "BalanceQueryForZeroAddress",
      "type": "error"
    },
    {
      "inputs": [],
      "name": "InsufficientFunds",
      "type": "error"
    },
    {
      "inputs": [],
      "name": "MintERC2309QuantityExceedsLimit",
      "type": "error"
    },
    {
      "inputs": [],
      "name": "MintToZeroAddress",
      "type": "error"
    },
    {
      "inputs": [],
      "name": "MintZeroQuantity",
      "type": "error"
    },
    {
      "inputs": [],
      "name": "MintedOut",
      "type": "error"
    },
    {
      "inputs": [],
      "name": "NotPublicMint",
      "type": "error"
    },
    {
      "inputs": [],
      "name": "NotWhitelisted",
      "type": "error"
    },
    {
      "inputs": [],
      "name": "OwnerQueryForNonexistentToken",
      "type": "error"
    },
    {
      "inputs": [],
      "name": "OwnershipNotInitializedForExtraData",
      "type": "error"
    },
    {
      "inputs": [],
      "name": "TransferCallerNotOwnerNorApproved",
      "type": "error"
    },
    {
      "inputs": [],
      "name": "TransferFromIncorrectOwner",
      "type": "error"
    },
    {
      "inputs": [],
      "name": "TransferToNonERC721ReceiverImplementer",
      "type": "error"
    },
    {
      "inputs": [],
      "name": "TransferToZeroAddress",
      "type": "error"
    },
    {
      "inputs": [],
      "name": "URIQueryForNonexistentToken",
      "type": "error"
    },
    {
      "anonymous": false,
      "inputs": [
        {
          "indexed": true,
          "internalType": "address",
          "name": "owner",
          "type": "address"
        },
        {
          "indexed": true,
          "internalType": "address",
          "name": "approved",
          "type": "address"
        },
        {
          "indexed": true,
          "internalType": "uint256",
          "name": "tokenId",
          "type": "uint256"
        }
      ],
      "name": "Approval",
      "type": "event"
    },
    {
      "anonymous": false,
      "inputs": [
        {
          "indexed": true,
          "internalType": "address",
          "name": "owner",
          "type": "address"
        },
        {
          "indexed": true,
          "internalType": "address",
          "name": "operator",
          "type": "address"
        },
        {
          "indexed": false,
          "internalType": "bool",
          "name": "approved",
          "type": "bool"
        }
      ],
      "name": "ApprovalForAll",
      "type": "event"
    },
    {
      "anonymous": false,
      "inputs": [
        {
          "indexed": true,
          "internalType": "uint256",
          "name": "fromTokenId",
          "type": "uint256"
        },
        {
          "indexed": false,
          "internalType": "uint256",
          "name": "toTokenId",
          "type": "uint256"
        },
        {
          "indexed": true,
          "internalType": "address",
          "name": "from",
          "type": "address"
        },
        {
          "indexed": true,
          "internalType": "address",
          "name": "to",
          "type": "address"
        }
      ],
      "name": "ConsecutiveTransfer",
      "type": "event"
    },
    {
      "anonymous": false,
      "inputs": [
        {
          "indexed": true,
          "internalType": "address",
          "name": "previousOwner",
          "type": "address"
        },
        {
          "indexed": true,
          "internalType": "address",
          "name": "newOwner",
          "type": "address"
        }
      ],
      "name": "OwnershipTransferred",
      "type": "event"
    },
    {
      "anonymous": false,
      "inputs": [
        {
          "indexed": true,
          "internalType": "address",
          "name": "from",
          "type": "address"
        },
        {
          "indexed": true,
          "internalType": "address",
          "name": "to",
          "type": "address"
        },
        {
          "indexed": true,
          "internalType": "uint256",
          "name": "tokenId",
          "type": "uint256"
        }
      ],
      "name": "Transfer",
      "type": "event"
    },
    {
      "inputs": [
        {
          "internalType": "address[]",
          "name": "winners",
          "type": "address[]"
        }
      ],
      "name": "addWhitelist",
      "outputs": [],
      "stateMutability": "nonpayable",
      "type": "function"
    },
    {
      "inputs": [
        {
          "internalType": "address[]",
          "name": "winners",
          "type": "address[]"
        }
      ],
      "name": "airdrop",
      "outputs": [],
      "stateMutability": "nonpayable",
      "type": "function"
    },
    {
      "inputs": [
        {
          "internalType": "address",
          "name": "to",
          "type": "address"
        },
        {
          "internalType": "uint256",
          "name": "tokenId",
          "type": "uint256"
        }
      ],
      "name": "approve",
      "outputs": [],
      "stateMutability": "payable",
      "type": "function"
    },
    {
      "inputs": [
        {
          "internalType": "address",
          "name": "owner",
          "type": "address"
        }
      ],
      "name": "balanceOf",
      "outputs": [
        {
          "internalType": "uint256",
          "name": "",
          "type": "uint256"
        }
      ],
      "stateMutability": "view",
      "type": "function"
    },
    {
      "inputs": [],
      "name": "baseURI",
      "outputs": [
        {
          "internalType": "string",
          "name": "",
          "type": "string"
        }
      ],
      "stateMutability": "view",
      "type": "function"
    },
    {
      "inputs": [],
      "name": "beneficiary",
      "outputs": [
        {
          "internalType": "address",
          "name": "",
          "type": "address"
        }
      ],
      "stateMutability": "view",
      "type": "function"
    },
    {
      "inputs": [],
      "name": "claim",
      "outputs": [],
      "stateMutability": "payable",
      "type": "function"
    },
    {
      "inputs": [
        {
          "internalType": "uint256",
          "name": "tokenId",
          "type": "uint256"
        }
      ],
      "name": "getApproved",
      "outputs": [
        {
          "internalType": "address",
          "name": "",
          "type": "address"
        }
      ],
      "stateMutability": "view",
      "type": "function"
    },
    {
      "inputs": [
        {
          "internalType": "address",
          "name": "owner",
          "type": "address"
        },
        {
          "internalType": "address",
          "name": "operator",
          "type": "address"
        }
      ],
      "name": "isApprovedForAll",
      "outputs": [
        {
          "internalType": "bool",
          "name": "",
          "type": "bool"
        }
      ],
      "stateMutability": "view",
      "type": "function"
    },
    {
      "inputs": [
        {
          "internalType": "address",
          "name": "user",
          "type": "address"
        }
      ],
      "name": "isWhitelisted",
      "outputs": [
        {
          "internalType": "bool",
          "name": "",
          "type": "bool"
        }
      ],
      "stateMutability": "view",
      "type": "function"
    },
    {
      "inputs": [],
      "name": "maxSupply",
      "outputs": [
        {
          "internalType": "uint256",
          "name": "",
          "type": "uint256"
        }
      ],
      "stateMutability": "view",
      "type": "function"
    },
    {
      "inputs": [
        {
          "internalType": "uint256",
          "name": "quantity",
          "type": "uint256"
        }
      ],
      "name": "mint",
      "outputs": [],
      "stateMutability": "payable",
      "type": "function"
    },
    {
      "inputs": [],
      "name": "mintPrice",
      "outputs": [
        {
          "internalType": "uint256",
          "name": "",
          "type": "uint256"
        }
      ],
      "stateMutability": "view",
      "type": "function"
    },
    {
      "inputs": [],
      "name": "name",
      "outputs": [
        {
          "internalType": "string",
          "name": "",
          "type": "string"
        }
      ],
      "stateMutability": "view",
      "type": "function"
    },
    {
      "inputs": [],
      "name": "owner",
      "outputs": [
        {
          "internalType": "address",
          "name": "",
          "type": "address"
        }
      ],
      "stateMutability": "view",
      "type": "function"
    },
    {
      "inputs": [
        {
          "internalType": "uint256",
          "name": "tokenId",
          "type": "uint256"
        }
      ],
      "name": "ownerOf",
      "outputs": [
        {
          "internalType": "address",
          "name": "",
          "type": "address"
        }
      ],
      "stateMutability": "view",
      "type": "function"
    },
    {
      "inputs": [],
      "name": "publicMint",
      "outputs": [
        {
          "internalType": "bool",
          "name": "",
          "type": "bool"
        }
      ],
      "stateMutability": "view",
      "type": "function"
    },
    {
      "inputs": [],
      "name": "renounceOwnership",
      "outputs": [],
      "stateMutability": "nonpayable",
      "type": "function"
    },
    {
      "inputs": [
        {
          "internalType": "address",
          "name": "from",
          "type": "address"
        },
        {
          "internalType": "address",
          "name": "to",
          "type": "address"
        },
        {
          "internalType": "uint256",
          "name": "tokenId",
          "type": "uint256"
        }
      ],
      "name": "safeTransferFrom",
      "outputs": [],
      "stateMutability": "payable",
      "type": "function"
    },
    {
      "inputs": [
        {
          "internalType": "address",
          "name": "from",
          "type": "address"
        },
        {
          "internalType": "address",
          "name": "to",
          "type": "address"
        },
        {
          "internalType": "uint256",
          "name": "tokenId",
          "type": "uint256"
        },
        {
          "internalType": "bytes",
          "name": "_data",
          "type": "bytes"
        }
      ],
      "name": "safeTransferFrom",
      "outputs": [],
      "stateMutability": "payable",
      "type": "function"
    },
    {
      "inputs": [
        {
          "internalType": "address",
          "name": "operator",
          "type": "address"
        },
        {
          "internalType": "bool",
          "name": "approved",
          "type": "bool"
        }
      ],
      "name": "setApprovalForAll",
      "outputs": [],
      "stateMutability": "nonpayable",
      "type": "function"
    },
    {
      "inputs": [
        {
          "internalType": "bytes4",
          "name": "interfaceId",
          "type": "bytes4"
        }
      ],
      "name": "supportsInterface",
      "outputs": [
        {
          "internalType": "bool",
          "name": "",
          "type": "bool"
        }
      ],
      "stateMutability": "view",
      "type": "function"
    },
    {
      "inputs": [],
      "name": "symbol",
      "outputs": [
        {
          "internalType": "string",
          "name": "",
          "type": "string"
        }
      ],
      "stateMutability": "view",
      "type": "function"
    },
    {
      "inputs": [
        {
          "internalType": "uint256",
          "name": "tokenId",
          "type": "uint256"
        }
      ],
      "name": "tokenURI",
      "outputs": [
        {
          "internalType": "string",
          "name": "",
          "type": "string"
        }
      ],
      "stateMutability": "view",
      "type": "function"
    },
    {
      "inputs": [],
      "name": "totalSupply",
      "outputs": [
        {
          "internalType": "uint256",
          "name": "",
          "type": "uint256"
        }
      ],
      "stateMutability": "view",
      "type": "function"
    },
    {
      "inputs": [
        {
          "internalType": "address",
          "name": "from",
          "type": "address"
        },
        {
          "internalType": "address",
          "name": "to",
          "type": "address"
        },
        {
          "internalType": "uint256",
          "name": "tokenId",
          "type": "uint256"
        }
      ],
      "name": "transferFrom",
      "outputs": [],
      "stateMutability": "payable",
      "type": "function"
    },
    {
      "inputs": [
        {
          "internalType": "address",
          "name": "newOwner",
          "type": "address"
        }
      ],
      "name": "transferOwnership",
      "outputs": [],
      "stateMutability": "nonpayable",
      "type": "function"
    },
    {
      "inputs": [],
      "name": "updateMintState",
      "outputs": [],
      "stateMutability": "nonpayable",
      "type": "function"
    },
    {
      "inputs": [
        {
          "internalType": "uint256",
          "name": "newPrice",
          "type": "uint256"
        }
      ],
      "name": "updatePrice",
      "outputs": [],
      "stateMutability": "nonpayable",
      "type": "function"
    },
    {
      "inputs": [],
      "name": "withdraw",
      "outputs": [],
      "stateMutability": "nonpayable",
      "type": "function"
    }
  ],
  "bytecode": "0x60a06040526103e7608090815250662386f26fc10000600b553480156200002557600080fd5b506040516200310c3803806200310c83398181016040528101906200004b919062000462565b6040518060400160405280600a81526020017f54686520436f6c6f6e79000000000000000000000000000000000000000000008152506040518060400160405280600581526020017f434f4c4f4e0000000000000000000000000000000000000000000000000000008152508160029081620000c8919062000713565b508060039081620000da919062000713565b50620000eb6200018960201b60201c565b600081905550505062000113620001076200019260201b60201c565b6200019a60201b60201c565b6000600a60006101000a81548160ff02191690831515021790555080600a60016101000a81548173ffffffffffffffffffffffffffffffffffffffff021916908373ffffffffffffffffffffffffffffffffffffffff160217905550816009908162000180919062000713565b505050620007fa565b60006001905090565b600033905090565b6000600860009054906101000a900473ffffffffffffffffffffffffffffffffffffffff16905081600860006101000a81548173ffffffffffffffffffffffffffffffffffffffff021916908373ffffffffffffffffffffffffffffffffffffffff1602179055508173ffffffffffffffffffffffffffffffffffffffff168173ffffffffffffffffffffffffffffffffffffffff167f8be0079c531659141344cd1fd0a4f28419497f9722a3daafe3b4186f6b6457e060405160405180910390a35050565b6000604051905090565b600080fd5b600080fd5b600080fd5b600080fd5b6000601f19601f8301169050919050565b7f4e487b7100000000000000000000000000000000000000000000000000000000600052604160045260246000fd5b620002c9826200027e565b810181811067ffffffffffffffff82111715620002eb57620002ea6200028f565b5b80604052505050565b60006200030062000260565b90506200030e8282620002be565b919050565b600067ffffffffffffffff8211156200033157620003306200028f565b5b6200033c826200027e565b9050602081019050919050565b60005b83811015620003695780820151818401526020810190506200034c565b8381111562000379576000848401525b50505050565b600062000396620003908462000313565b620002f4565b905082815260208101848484011115620003b557620003b462000279565b5b620003c284828562000349565b509392505050565b600082601f830112620003e257620003e162000274565b5b8151620003f48482602086016200037f565b91505092915050565b600073ffffffffffffffffffffffffffffffffffffffff82169050919050565b60006200042a82620003fd565b9050919050565b6200043c816200041d565b81146200044857600080fd5b50565b6000815190506200045c8162000431565b92915050565b600080604083850312156200047c576200047b6200026a565b5b600083015167ffffffffffffffff8111156200049d576200049c6200026f565b5b620004ab85828601620003ca565b9250506020620004be858286016200044b565b9150509250929050565b600081519050919050565b7f4e487b7100000000000000000000000000000000000000000000000000000000600052602260045260246000fd5b600060028204905060018216806200051b57607f821691505b602082108103620005315762000530620004d3565b5b50919050565b60008190508160005260206000209050919050565b60006020601f8301049050919050565b600082821b905092915050565b6000600883026200059b7fffffffffffffffffffffffffffffffffffffffffffffffffffffffffffffffff826200055c565b620005a786836200055c565b95508019841693508086168417925050509392505050565b6000819050919050565b6000819050919050565b6000620005f4620005ee620005e884620005bf565b620005c9565b620005bf565b9050919050565b6000819050919050565b6200061083620005d3565b620006286200061f82620005fb565b84845462000569565b825550505050565b600090565b6200063f62000630565b6200064c81848462000605565b505050565b5b8181101562000674576200066860008262000635565b60018101905062000652565b5050565b601f821115620006c3576200068d8162000537565b62000698846200054c565b81016020851015620006a8578190505b620006c0620006b7856200054c565b83018262000651565b50505b505050565b600082821c905092915050565b6000620006e860001984600802620006c8565b1980831691505092915050565b6000620007038383620006d5565b9150826002028217905092915050565b6200071e82620004c8565b67ffffffffffffffff8111156200073a57620007396200028f565b5b62000746825462000502565b6200075382828562000678565b600060209050601f8311600181146200078b576000841562000776578287015190505b620007828582620006f5565b865550620007f2565b601f1984166200079b8662000537565b60005b82811015620007c5578489015182556001820191506020850194506020810190506200079e565b86831015620007e55784890151620007e1601f891682620006d5565b8355505b6001600288020188555050505b505050505050565b6080516128e86200082460003960008181610e760152818161126e01526114e701526128e86000f3fe6080604052600436106101cd5760003560e01c806370a08231116100f7578063a0712d6811610095578063d5abeb0111610064578063d5abeb01146105ee578063e985e9c514610619578063edac985b14610656578063f2fde38b1461067f576101cd565b8063a0712d6814610550578063a22cb4651461056c578063b88d4fde14610595578063c87b56dd146105b1576101cd565b806379d3aec7116100d157806379d3aec7146104ba5780638d6cc56d146104d15780638da5cb5b146104fa57806395d89b4114610525576101cd565b806370a082311461043d578063715018a61461047a578063729ad39e14610491576101cd565b806338af3eed1161016f5780634e71d92d1161013e5780634e71d92d146103a05780636352211e146103aa5780636817c76c146103e75780636c0360eb14610412576101cd565b806338af3eed146103055780633af32abf146103305780633ccfd60b1461036d57806342842e0e14610384576101cd565b8063095ea7b3116101ab578063095ea7b31461027757806318160ddd1461029357806323b872dd146102be57806326092b83146102da576101cd565b806301ffc9a7146101d257806306fdde031461020f578063081812fc1461023a575b600080fd5b3480156101de57600080fd5b506101f960048036038101906101f49190611e10565b6106a8565b6040516102069190611e58565b60405180910390f35b34801561021b57600080fd5b5061022461073a565b6040516102319190611f0c565b60405180910390f35b34801561024657600080fd5b50610261600480360381019061025c9190611f64565b6107cc565b60405161026e9190611fd2565b60405180910390f35b610291600480360381019061028c9190612019565b61084b565b005b34801561029f57600080fd5b506102a861098f565b6040516102b59190612068565b60405180910390f35b6102d860048036038101906102d39190612083565b6109a6565b005b3480156102e657600080fd5b506102ef610cc8565b6040516102fc9190611e58565b60405180910390f35b34801561031157600080fd5b5061031a610cdb565b6040516103279190611fd2565b60405180910390f35b34801561033c57600080fd5b50610357600480360381019061035291906120d6565b610d01565b6040516103649190611e58565b60405180910390f35b34801561037957600080fd5b50610382610d57565b005b61039e60048036038101906103999190612083565b610dca565b005b6103a8610dea565b005b3480156103b657600080fd5b506103d160048036038101906103cc9190611f64565b610f54565b6040516103de9190611fd2565b60405180910390f35b3480156103f357600080fd5b506103fc610f66565b6040516104099190612068565b60405180910390f35b34801561041e57600080fd5b50610427610f6c565b6040516104349190611f0c565b60405180910390f35b34801561044957600080fd5b50610464600480360381019061045f91906120d6565b610ffa565b6040516104719190612068565b60405180910390f35b34801561048657600080fd5b5061048f6110b2565b005b34801561049d57600080fd5b506104b860048036038101906104b39190612168565b6110c6565b005b3480156104c657600080fd5b506104cf611124565b005b3480156104dd57600080fd5b506104f860048036038101906104f39190611f64565b611158565b005b34801561050657600080fd5b5061050f61116a565b60405161051c9190611fd2565b60405180910390f35b34801561053157600080fd5b5061053a611194565b6040516105479190611f0c565b60405180910390f35b61056a60048036038101906105659190611f64565b611226565b005b34801561057857600080fd5b50610593600480360381019061058e91906121e1565b611333565b005b6105af60048036038101906105aa9190612351565b61143e565b005b3480156105bd57600080fd5b506105d860048036038101906105d39190611f64565b6114b1565b6040516105e59190611f0c565b60405180910390f35b3480156105fa57600080fd5b506106036114e5565b6040516106109190612068565b60405180910390f35b34801561062557600080fd5b50610640600480360381019061063b91906123d4565b611509565b60405161064d9190611e58565b60405180910390f35b34801561066257600080fd5b5061067d60048036038101906106789190612168565b61159d565b005b34801561068b57600080fd5b506106a660048036038101906106a191906120d6565b611648565b005b60006301ffc9a760e01b827bffffffffffffffffffffffffffffffffffffffffffffffffffffffff1916148061070357506380ac58cd60e01b827bffffffffffffffffffffffffffffffffffffffffffffffffffffffff1916145b806107335750635b5e139f60e01b827bffffffffffffffffffffffffffffffffffffffffffffffffffffffff1916145b9050919050565b60606002805461074990612443565b80601f016020809104026020016040519081016040528092919081815260200182805461077590612443565b80156107c25780601f10610797576101008083540402835291602001916107c2565b820191906000526020600020905b8154815290600101906020018083116107a557829003601f168201915b5050505050905090565b60006107d7826116cb565b61080d576040517fcf4700e400000000000000000000000000000000000000000000000000000000815260040160405180910390fd5b6006600083815260200190815260200160002060000160009054906101000a900473ffffffffffffffffffffffffffffffffffffffff169050919050565b600061085682610f54565b90508073ffffffffffffffffffffffffffffffffffffffff1661087761172a565b73ffffffffffffffffffffffffffffffffffffffff16146108da576108a38161089e61172a565b611509565b6108d9576040517fcfb3b94200000000000000000000000000000000000000000000000000000000815260040160405180910390fd5b5b826006600084815260200190815260200160002060000160006101000a81548173ffffffffffffffffffffffffffffffffffffffff021916908373ffffffffffffffffffffffffffffffffffffffff160217905550818373ffffffffffffffffffffffffffffffffffffffff168273ffffffffffffffffffffffffffffffffffffffff167f8c5be1e5ebec7d5bd14f71427d1e84f3dd0314c0f7b2291e5b200ac8c7c3b92560405160405180910390a4505050565b6000610999611732565b6001546000540303905090565b60006109b18261173b565b90508373ffffffffffffffffffffffffffffffffffffffff168173ffffffffffffffffffffffffffffffffffffffff1614610a18576040517fa114810000000000000000000000000000000000000000000000000000000000815260040160405180910390fd5b600080610a2484611807565b91509150610a3a8187610a3561172a565b61182e565b610a8657610a4f86610a4a61172a565b611509565b610a85576040517f59c896be00000000000000000000000000000000000000000000000000000000815260040160405180910390fd5b5b600073ffffffffffffffffffffffffffffffffffffffff168573ffffffffffffffffffffffffffffffffffffffff1603610aec576040517fea553b3400000000000000000000000000000000000000000000000000000000815260040160405180910390fd5b610af98686866001611872565b8015610b0457600082555b600560008773ffffffffffffffffffffffffffffffffffffffff1673ffffffffffffffffffffffffffffffffffffffff168152602001908152602001600020600081546001900391905081905550600560008673ffffffffffffffffffffffffffffffffffffffff1673ffffffffffffffffffffffffffffffffffffffff1681526020019081526020016000206000815460010191905081905550610bd285610bae888887611878565b7c0200000000000000000000000000000000000000000000000000000000176118a0565b600460008681526020019081526020016000208190555060007c0200000000000000000000000000000000000000000000000000000000841603610c585760006001850190506000600460008381526020019081526020016000205403610c56576000548114610c55578360046000838152602001908152602001600020819055505b5b505b838573ffffffffffffffffffffffffffffffffffffffff168773ffffffffffffffffffffffffffffffffffffffff167fddf252ad1be2c89b69c2b068fc378daa952ba7f163c4a11628f55a4df523b3ef60405160405180910390a4610cc086868660016118cb565b505050505050565b600a60009054906101000a900460ff1681565b600a60019054906101000a900473ffffffffffffffffffffffffffffffffffffffff1681565b6000600c60008373ffffffffffffffffffffffffffffffffffffffff1673ffffffffffffffffffffffffffffffffffffffff16815260200190815260200160002060009054906101000a900460ff169050919050565b610d5f6118d1565b600a60019054906101000a900473ffffffffffffffffffffffffffffffffffffffff1673ffffffffffffffffffffffffffffffffffffffff166108fc479081150290604051600060405180830381858888f19350505050158015610dc7573d6000803e3d6000fd5b50565b610de58383836040518060200160405280600081525061143e565b505050565b600c6000610df661194f565b73ffffffffffffffffffffffffffffffffffffffff1673ffffffffffffffffffffffffffffffffffffffff16815260200190815260200160002060009054906101000a900460ff16610e74576040517f584a793800000000000000000000000000000000000000000000000000000000815260040160405180910390fd5b7f00000000000000000000000000000000000000000000000000000000000000006001610e9f611957565b610ea991906124a3565b1115610ee1576040517f846fb9e200000000000000000000000000000000000000000000000000000000815260040160405180910390fd5b610ef3610eec61194f565b600161196a565b6000600c6000610f0161194f565b73ffffffffffffffffffffffffffffffffffffffff1673ffffffffffffffffffffffffffffffffffffffff16815260200190815260200160002060006101000a81548160ff021916908315150217905550565b6000610f5f8261173b565b9050919050565b600b5481565b60098054610f7990612443565b80601f0160208091040260200160405190810160405280929190818152602001828054610fa590612443565b8015610ff25780601f10610fc757610100808354040283529160200191610ff2565b820191906000526020600020905b815481529060010190602001808311610fd557829003601f168201915b505050505081565b60008073ffffffffffffffffffffffffffffffffffffffff168273ffffffffffffffffffffffffffffffffffffffff1603611061576040517f8f4eb60400000000000000000000000000000000000000000000000000000000815260040160405180910390fd5b67ffffffffffffffff600560008473ffffffffffffffffffffffffffffffffffffffff1673ffffffffffffffffffffffffffffffffffffffff16815260200190815260200160002054169050919050565b6110ba6118d1565b6110c46000611b25565b565b6110ce6118d1565b600082829050905060005b8181101561111e576111138484838181106110f7576110f66124f9565b5b905060200201602081019061110c91906120d6565b600161196a565b8060010190506110d9565b50505050565b61112c6118d1565b600a60009054906101000a900460ff1615600a60006101000a81548160ff021916908315150217905550565b6111606118d1565b80600b8190555050565b6000600860009054906101000a900473ffffffffffffffffffffffffffffffffffffffff16905090565b6060600380546111a390612443565b80601f01602080910402602001604051908101604052809291908181526020018280546111cf90612443565b801561121c5780601f106111f15761010080835404028352916020019161121c565b820191906000526020600020905b8154815290600101906020018083116111ff57829003601f168201915b5050505050905090565b600a60009054906101000a900460ff1661126c576040517fdca6deec00000000000000000000000000000000000000000000000000000000815260040160405180910390fd5b7f000000000000000000000000000000000000000000000000000000000000000081611296611957565b6112a091906124a3565b11156112d8576040517f846fb9e200000000000000000000000000000000000000000000000000000000815260040160405180910390fd5b3481600b546112e79190612528565b101561131f576040517f356680b700000000000000000000000000000000000000000000000000000000815260040160405180910390fd5b61133061132a61194f565b8261196a565b50565b806007600061134061172a565b73ffffffffffffffffffffffffffffffffffffffff1673ffffffffffffffffffffffffffffffffffffffff16815260200190815260200160002060008473ffffffffffffffffffffffffffffffffffffffff1673ffffffffffffffffffffffffffffffffffffffff16815260200190815260200160002060006101000a81548160ff0219169083151502179055508173ffffffffffffffffffffffffffffffffffffffff166113ed61172a565b73ffffffffffffffffffffffffffffffffffffffff167f17307eab39ab6107e8899845ad3d59bd9653f200f220920489ca2b5937696c31836040516114329190611e58565b60405180910390a35050565b6114498484846109a6565b60008373ffffffffffffffffffffffffffffffffffffffff163b146114ab5761147484848484611beb565b6114aa576040517fd1a57ed600000000000000000000000000000000000000000000000000000000815260040160405180910390fd5b5b50505050565b606060096114be83611d3b565b6040516020016114cf9291906126a2565b6040516020818303038152906040529050919050565b7f000000000000000000000000000000000000000000000000000000000000000081565b6000600760008473ffffffffffffffffffffffffffffffffffffffff1673ffffffffffffffffffffffffffffffffffffffff16815260200190815260200160002060008373ffffffffffffffffffffffffffffffffffffffff1673ffffffffffffffffffffffffffffffffffffffff16815260200190815260200160002060009054906101000a900460ff16905092915050565b6115a56118d1565b600082829050905060005b81811015611642576001600c60008686858181106115d1576115d06124f9565b5b90506020020160208101906115e691906120d6565b73ffffffffffffffffffffffffffffffffffffffff1673ffffffffffffffffffffffffffffffffffffffff16815260200190815260200160002060006101000a81548160ff0219169083151502179055508060010190506115b0565b50505050565b6116506118d1565b600073ffffffffffffffffffffffffffffffffffffffff168173ffffffffffffffffffffffffffffffffffffffff16036116bf576040517f08c379a00000000000000000000000000000000000000000000000000000000081526004016116b690612743565b60405180910390fd5b6116c881611b25565b50565b6000816116d6611732565b111580156116e5575060005482105b8015611723575060007c0100000000000000000000000000000000000000000000000000000000600460008581526020019081526020016000205416145b9050919050565b600033905090565b60006001905090565b6000808290508061174a611732565b116117d0576000548110156117cf5760006004600083815260200190815260200160002054905060007c01000000000000000000000000000000000000000000000000000000008216036117cd575b600081036117c3576004600083600190039350838152602001908152602001600020549050611799565b8092505050611802565b505b5b6040517fdf2d9b4200000000000000000000000000000000000000000000000000000000815260040160405180910390fd5b919050565b60008060006006600085815260200190815260200160002090508092508254915050915091565b600073ffffffffffffffffffffffffffffffffffffffff8316925073ffffffffffffffffffffffffffffffffffffffff821691508382148383141790509392505050565b50505050565b60008060e883901c905060e861188f868684611d8b565b62ffffff16901b9150509392505050565b600073ffffffffffffffffffffffffffffffffffffffff83169250814260a01b178317905092915050565b50505050565b6118d961194f565b73ffffffffffffffffffffffffffffffffffffffff166118f761116a565b73ffffffffffffffffffffffffffffffffffffffff161461194d576040517f08c379a0000000000000000000000000000000000000000000000000000000008152600401611944906127af565b60405180910390fd5b565b600033905090565b6000611961611732565b60005403905090565b600080549050600082036119aa576040517fb562e8dd00000000000000000000000000000000000000000000000000000000815260040160405180910390fd5b6119b76000848385611872565b600160406001901b178202600560008573ffffffffffffffffffffffffffffffffffffffff1673ffffffffffffffffffffffffffffffffffffffff16815260200190815260200160002060008282540192505081905550611a2e83611a1f6000866000611878565b611a2885611d94565b176118a0565b6004600083815260200190815260200160002081905550600080838301905073ffffffffffffffffffffffffffffffffffffffff85169150828260007fddf252ad1be2c89b69c2b068fc378daa952ba7f163c4a11628f55a4df523b3ef600080a4600183015b818114611acf57808360007fddf252ad1be2c89b69c2b068fc378daa952ba7f163c4a11628f55a4df523b3ef600080a4600181019050611a94565b5060008203611b0a576040517f2e07630000000000000000000000000000000000000000000000000000000000815260040160405180910390fd5b806000819055505050611b2060008483856118cb565b505050565b6000600860009054906101000a900473ffffffffffffffffffffffffffffffffffffffff16905081600860006101000a81548173ffffffffffffffffffffffffffffffffffffffff021916908373ffffffffffffffffffffffffffffffffffffffff1602179055508173ffffffffffffffffffffffffffffffffffffffff168173ffffffffffffffffffffffffffffffffffffffff167f8be0079c531659141344cd1fd0a4f28419497f9722a3daafe3b4186f6b6457e060405160405180910390a35050565b60008373ffffffffffffffffffffffffffffffffffffffff1663150b7a02611c1161172a565b8786866040518563ffffffff1660e01b8152600401611c339493929190612824565b6020604051808303816000875af1925050508015611c6f57506040513d601f19601f82011682018060405250810190611c6c9190612885565b60015b611ce8573d8060008114611c9f576040519150601f19603f3d011682016040523d82523d6000602084013e611ca4565b606091505b506000815103611ce0576040517fd1a57ed600000000000000000000000000000000000000000000000000000000815260040160405180910390fd5b805181602001fd5b63150b7a0260e01b7bffffffffffffffffffffffffffffffffffffffffffffffffffffffff1916817bffffffffffffffffffffffffffffffffffffffffffffffffffffffff191614915050949350505050565b606060a060405101806040526020810391506000825281835b600115611d7657600184039350600a81066030018453600a8104905080611d54575b50828103602084039350808452505050919050565b60009392505050565b60006001821460e11b9050919050565b6000604051905090565b600080fd5b600080fd5b60007fffffffff0000000000000000000000000000000000000000000000000000000082169050919050565b611ded81611db8565b8114611df857600080fd5b50565b600081359050611e0a81611de4565b92915050565b600060208284031215611e2657611e25611dae565b5b6000611e3484828501611dfb565b91505092915050565b60008115159050919050565b611e5281611e3d565b82525050565b6000602082019050611e6d6000830184611e49565b92915050565b600081519050919050565b600082825260208201905092915050565b60005b83811015611ead578082015181840152602081019050611e92565b83811115611ebc576000848401525b50505050565b6000601f19601f8301169050919050565b6000611ede82611e73565b611ee88185611e7e565b9350611ef8818560208601611e8f565b611f0181611ec2565b840191505092915050565b60006020820190508181036000830152611f268184611ed3565b905092915050565b6000819050919050565b611f4181611f2e565b8114611f4c57600080fd5b50565b600081359050611f5e81611f38565b92915050565b600060208284031215611f7a57611f79611dae565b5b6000611f8884828501611f4f565b91505092915050565b600073ffffffffffffffffffffffffffffffffffffffff82169050919050565b6000611fbc82611f91565b9050919050565b611fcc81611fb1565b82525050565b6000602082019050611fe76000830184611fc3565b92915050565b611ff681611fb1565b811461200157600080fd5b50565b60008135905061201381611fed565b92915050565b600080604083850312156120305761202f611dae565b5b600061203e85828601612004565b925050602061204f85828601611f4f565b9150509250929050565b61206281611f2e565b82525050565b600060208201905061207d6000830184612059565b92915050565b60008060006060848603121561209c5761209b611dae565b5b60006120aa86828701612004565b93505060206120bb86828701612004565b92505060406120cc86828701611f4f565b9150509250925092565b6000602082840312156120ec576120eb611dae565b5b60006120fa84828501612004565b91505092915050565b600080fd5b600080fd5b600080fd5b60008083601f84011261212857612127612103565b5b8235905067ffffffffffffffff81111561214557612144612108565b5b6020830191508360208202830111156121615761216061210d565b5b9250929050565b6000806020838503121561217f5761217e611dae565b5b600083013567ffffffffffffffff81111561219d5761219c611db3565b5b6121a985828601612112565b92509250509250929050565b6121be81611e3d565b81146121c957600080fd5b50565b6000813590506121db816121b5565b92915050565b600080604083850312156121f8576121f7611dae565b5b600061220685828601612004565b9250506020612217858286016121cc565b9150509250929050565b600080fd5b7f4e487b7100000000000000000000000000000000000000000000000000000000600052604160045260246000fd5b61225e82611ec2565b810181811067ffffffffffffffff8211171561227d5761227c612226565b5b80604052505050565b6000612290611da4565b905061229c8282612255565b919050565b600067ffffffffffffffff8211156122bc576122bb612226565b5b6122c582611ec2565b9050602081019050919050565b82818337600083830152505050565b60006122f46122ef846122a1565b612286565b9050828152602081018484840111156123105761230f612221565b5b61231b8482856122d2565b509392505050565b600082601f83011261233857612337612103565b5b81356123488482602086016122e1565b91505092915050565b6000806000806080858703121561236b5761236a611dae565b5b600061237987828801612004565b945050602061238a87828801612004565b935050604061239b87828801611f4f565b925050606085013567ffffffffffffffff8111156123bc576123bb611db3565b5b6123c887828801612323565b91505092959194509250565b600080604083850312156123eb576123ea611dae565b5b60006123f985828601612004565b925050602061240a85828601612004565b9150509250929050565b7f4e487b7100000000000000000000000000000000000000000000000000000000600052602260045260246000fd5b6000600282049050600182168061245b57607f821691505b60208210810361246e5761246d612414565b5b50919050565b7f4e487b7100000000000000000000000000000000000000000000000000000000600052601160045260246000fd5b60006124ae82611f2e565b91506124b983611f2e565b9250827fffffffffffffffffffffffffffffffffffffffffffffffffffffffffffffffff038211156124ee576124ed612474565b5b828201905092915050565b7f4e487b7100000000000000000000000000000000000000000000000000000000600052603260045260246000fd5b600061253382611f2e565b915061253e83611f2e565b9250817fffffffffffffffffffffffffffffffffffffffffffffffffffffffffffffffff048311821515161561257757612576612474565b5b828202905092915050565b600081905092915050565b60008190508160005260206000209050919050565b600081546125af81612443565b6125b98186612582565b945060018216600081146125d457600181146125e95761261c565b60ff198316865281151582028601935061261c565b6125f28561258d565b60005b83811015612614578154818901526001820191506020810190506125f5565b838801955050505b50505092915050565b600061263082611e73565b61263a8185612582565b935061264a818560208601611e8f565b80840191505092915050565b7f2e6a736f6e000000000000000000000000000000000000000000000000000000600082015250565b600061268c600583612582565b915061269782612656565b600582019050919050565b60006126ae82856125a2565b91506126ba8284612625565b91506126c58261267f565b91508190509392505050565b7f4f776e61626c653a206e6577206f776e657220697320746865207a65726f206160008201527f6464726573730000000000000000000000000000000000000000000000000000602082015250565b600061272d602683611e7e565b9150612738826126d1565b604082019050919050565b6000602082019050818103600083015261275c81612720565b9050919050565b7f4f776e61626c653a2063616c6c6572206973206e6f7420746865206f776e6572600082015250565b6000612799602083611e7e565b91506127a482612763565b602082019050919050565b600060208201905081810360008301526127c88161278c565b9050919050565b600081519050919050565b600082825260208201905092915050565b60006127f6826127cf565b61280081856127da565b9350612810818560208601611e8f565b61281981611ec2565b840191505092915050565b60006080820190506128396000830187611fc3565b6128466020830186611fc3565b6128536040830185612059565b818103606083015261286581846127eb565b905095945050505050565b60008151905061287f81611de4565b92915050565b60006020828403121561289b5761289a611dae565b5b60006128a984828501612870565b9150509291505056fea264697066735822122042e454b95ffc1446df5e2ef7df5d5390d71da073dea63f74c371c827bf532aee64736f6c634300080f0033",
  "linkReferences": {},
  "deployedLinkReferences": {}
}