{
  "_format": "hh-sol-artifact-1",
  "contractName": "PaymentSplitter",
  "sourceName": "@openzeppelin/contracts/finance/PaymentSplitter.sol",
  "abi": [
    {
      "inputs": [
        {
          "internalType": "address[]",
          "name": "payees",
          "type": "address[]"
        },
        {
          "internalType": "uint256[]",
          "name": "shares_",
          "type": "uint256[]"
        }
      ],
      "stateMutability": "payable",
      "type": "constructor"
    },
    {
      "anonymous": false,
      "inputs": [
        {
          "indexed": true,
          "internalType": "contract IERC20",
          "name": "token",
          "type": "address"
        },
        {
          "indexed": false,
          "internalType": "address",
          "name": "to",
          "type": "address"
        },
        {
          "indexed": false,
          "internalType": "uint256",
          "name": "amount",
          "type": "uint256"
        }
      ],
      "name": "ERC20PaymentReleased",
      "type": "event"
    },
    {
      "anonymous": false,
      "inputs": [
        {
          "indexed": false,
          "internalType": "address",
          "name": "account",
          "type": "address"
        },
        {
          "indexed": false,
          "internalType": "uint256",
          "name": "shares",
          "type": "uint256"
        }
      ],
      "name": "PayeeAdded",
      "type": "event"
    },
    {
      "anonymous": false,
      "inputs": [
        {
          "indexed": false,
          "internalType": "address",
          "name": "from",
          "type": "address"
        },
        {
          "indexed": false,
          "internalType": "uint256",
          "name": "amount",
          "type": "uint256"
        }
      ],
      "name": "PaymentReceived",
      "type": "event"
    },
    {
      "anonymous": false,
      "inputs": [
        {
          "indexed": false,
          "internalType": "address",
          "name": "to",
          "type": "address"
        },
        {
          "indexed": false,
          "internalType": "uint256",
          "name": "amount",
          "type": "uint256"
        }
      ],
      "name": "PaymentReleased",
      "type": "event"
    },
    {
      "inputs": [
        {
          "internalType": "uint256",
          "name": "index",
          "type": "uint256"
        }
      ],
      "name": "payee",
      "outputs": [
        {
          "internalType": "address",
          "name": "",
          "type": "address"
        }
      ],
      "stateMutability": "view",
      "type": "function"
    },
    {
      "inputs": [
        {
          "internalType": "address",
          "name": "account",
          "type": "address"
        }
      ],
      "name": "releasable",
      "outputs": [
        {
          "internalType": "uint256",
          "name": "",
          "type": "uint256"
        }
      ],
      "stateMutability": "view",
      "type": "function"
    },
    {
      "inputs": [
        {
          "internalType": "contract IERC20",
          "name": "token",
          "type": "address"
        },
        {
          "internalType": "address",
          "name": "account",
          "type": "address"
        }
      ],
      "name": "releasable",
      "outputs": [
        {
          "internalType": "uint256",
          "name": "",
          "type": "uint256"
        }
      ],
      "stateMutability": "view",
      "type": "function"
    },
    {
      "inputs": [
        {
          "internalType": "address payable",
          "name": "account",
          "type": "address"
        }
      ],
      "name": "release",
      "outputs": [],
      "stateMutability": "nonpayable",
      "type": "function"
    },
    {
      "inputs": [
        {
          "internalType": "contract IERC20",
          "name": "token",
          "type": "address"
        },
        {
          "internalType": "address",
          "name": "account",
          "type": "address"
        }
      ],
      "name": "release",
      "outputs": [],
      "stateMutability": "nonpayable",
      "type": "function"
    },
    {
      "inputs": [
        {
          "internalType": "contract IERC20",
          "name": "token",
          "type": "address"
        },
        {
          "internalType": "address",
          "name": "account",
          "type": "address"
        }
      ],
      "name": "released",
      "outputs": [
        {
          "internalType": "uint256",
          "name": "",
          "type": "uint256"
        }
      ],
      "stateMutability": "view",
      "type": "function"
    },
    {
      "inputs": [
        {
          "internalType": "address",
          "name": "account",
          "type": "address"
        }
      ],
      "name": "released",
      "outputs": [
        {
          "internalType": "uint256",
          "name": "",
          "type": "uint256"
        }
      ],
      "stateMutability": "view",
      "type": "function"
    },
    {
      "inputs": [
        {
          "internalType": "address",
          "name": "account",
          "type": "address"
        }
      ],
      "name": "shares",
      "outputs": [
        {
          "internalType": "uint256",
          "name": "",
          "type": "uint256"
        }
      ],
      "stateMutability": "view",
      "type": "function"
    },
    {
      "inputs": [
        {
          "internalType": "contract IERC20",
          "name": "token",
          "type": "address"
        }
      ],
      "name": "totalReleased",
      "outputs": [
        {
          "internalType": "uint256",
          "name": "",
          "type": "uint256"
        }
      ],
      "stateMutability": "view",
      "type": "function"
    },
    {
      "inputs": [],
      "name": "totalReleased",
      "outputs": [
        {
          "internalType": "uint256",
          "name": "",
          "type": "uint256"
        }
      ],
      "stateMutability": "view",
      "type": "function"
    },
    {
      "inputs": [],
      "name": "totalShares",
      "outputs": [
        {
          "internalType": "uint256",
          "name": "",
          "type": "uint256"
        }
      ],
      "stateMutability": "view",
      "type": "function"
    },
    {
      "stateMutability": "payable",
      "type": "receive"
    }
  ],
  "bytecode": "0x60806040526040516200239238038062002392833981810160405281019062000029919062000667565b805182511462000070576040517f08c379a0000000000000000000000000000000000000000000000000000000008152600401620000679062000773565b60405180910390fd5b6000825111620000b7576040517f08c379a0000000000000000000000000000000000000000000000000000000008152600401620000ae90620007e5565b60405180910390fd5b60005b8251811015620001265762000110838281518110620000de57620000dd62000807565b5b6020026020010151838381518110620000fc57620000fb62000807565b5b60200260200101516200012f60201b60201c565b80806200011d9062000865565b915050620000ba565b50505062000b00565b600073ffffffffffffffffffffffffffffffffffffffff168273ffffffffffffffffffffffffffffffffffffffff1603620001a1576040517f08c379a0000000000000000000000000000000000000000000000000000000008152600401620001989062000928565b60405180910390fd5b60008111620001e7576040517f08c379a0000000000000000000000000000000000000000000000000000000008152600401620001de906200099a565b60405180910390fd5b6000600260008473ffffffffffffffffffffffffffffffffffffffff1673ffffffffffffffffffffffffffffffffffffffff16815260200190815260200160002054146200026c576040517f08c379a0000000000000000000000000000000000000000000000000000000008152600401620002639062000a32565b60405180910390fd5b6004829080600181540180825580915050600190039060005260206000200160009091909190916101000a81548173ffffffffffffffffffffffffffffffffffffffff021916908373ffffffffffffffffffffffffffffffffffffffff16021790555080600260008473ffffffffffffffffffffffffffffffffffffffff1673ffffffffffffffffffffffffffffffffffffffff168152602001908152602001600020819055508060005462000323919062000a54565b6000819055507f40c340f65e17194d14ddddb073d3c9f888e3cb52b5aae0c6c7706b4fbc905fac82826040516200035c92919062000ad3565b60405180910390a15050565b6000604051905090565b600080fd5b600080fd5b600080fd5b6000601f19601f8301169050919050565b7f4e487b7100000000000000000000000000000000000000000000000000000000600052604160045260246000fd5b620003cc8262000381565b810181811067ffffffffffffffff82111715620003ee57620003ed62000392565b5b80604052505050565b60006200040362000368565b9050620004118282620003c1565b919050565b600067ffffffffffffffff82111562000434576200043362000392565b5b602082029050602081019050919050565b600080fd5b600073ffffffffffffffffffffffffffffffffffffffff82169050919050565b600062000477826200044a565b9050919050565b62000489816200046a565b81146200049557600080fd5b50565b600081519050620004a9816200047e565b92915050565b6000620004c6620004c08462000416565b620003f7565b90508083825260208201905060208402830185811115620004ec57620004eb62000445565b5b835b8181101562000519578062000504888262000498565b845260208401935050602081019050620004ee565b5050509392505050565b600082601f8301126200053b576200053a6200037c565b5b81516200054d848260208601620004af565b91505092915050565b600067ffffffffffffffff82111562000574576200057362000392565b5b602082029050602081019050919050565b6000819050919050565b6200059a8162000585565b8114620005a657600080fd5b50565b600081519050620005ba816200058f565b92915050565b6000620005d7620005d18462000556565b620003f7565b90508083825260208201905060208402830185811115620005fd57620005fc62000445565b5b835b818110156200062a5780620006158882620005a9565b845260208401935050602081019050620005ff565b5050509392505050565b600082601f8301126200064c576200064b6200037c565b5b81516200065e848260208601620005c0565b91505092915050565b6000806040838503121562000681576200068062000372565b5b600083015167ffffffffffffffff811115620006a257620006a162000377565b5b620006b08582860162000523565b925050602083015167ffffffffffffffff811115620006d457620006d362000377565b5b620006e28582860162000634565b9150509250929050565b600082825260208201905092915050565b7f5061796d656e7453706c69747465723a2070617965657320616e64207368617260008201527f6573206c656e677468206d69736d617463680000000000000000000000000000602082015250565b60006200075b603283620006ec565b91506200076882620006fd565b604082019050919050565b600060208201905081810360008301526200078e816200074c565b9050919050565b7f5061796d656e7453706c69747465723a206e6f20706179656573000000000000600082015250565b6000620007cd601a83620006ec565b9150620007da8262000795565b602082019050919050565b600060208201905081810360008301526200080081620007be565b9050919050565b7f4e487b7100000000000000000000000000000000000000000000000000000000600052603260045260246000fd5b7f4e487b7100000000000000000000000000000000000000000000000000000000600052601160045260246000fd5b6000620008728262000585565b91507fffffffffffffffffffffffffffffffffffffffffffffffffffffffffffffffff8203620008a757620008a662000836565b5b600182019050919050565b7f5061796d656e7453706c69747465723a206163636f756e74206973207468652060008201527f7a65726f20616464726573730000000000000000000000000000000000000000602082015250565b600062000910602c83620006ec565b91506200091d82620008b2565b604082019050919050565b60006020820190508181036000830152620009438162000901565b9050919050565b7f5061796d656e7453706c69747465723a20736861726573206172652030000000600082015250565b600062000982601d83620006ec565b91506200098f826200094a565b602082019050919050565b60006020820190508181036000830152620009b58162000973565b9050919050565b7f5061796d656e7453706c69747465723a206163636f756e7420616c726561647960008201527f2068617320736861726573000000000000000000000000000000000000000000602082015250565b600062000a1a602b83620006ec565b915062000a2782620009bc565b604082019050919050565b6000602082019050818103600083015262000a4d8162000a0b565b9050919050565b600062000a618262000585565b915062000a6e8362000585565b9250827fffffffffffffffffffffffffffffffffffffffffffffffffffffffffffffffff0382111562000aa65762000aa562000836565b5b828201905092915050565b62000abc816200046a565b82525050565b62000acd8162000585565b82525050565b600060408201905062000aea600083018562000ab1565b62000af9602083018462000ac2565b9392505050565b6118828062000b106000396000f3fe6080604052600436106100a05760003560e01c80639852595c116100645780639852595c146101e3578063a3f8eace14610220578063c45ac0501461025d578063ce7c2ac21461029a578063d79779b2146102d7578063e33b7de314610314576100e7565b806319165587146100ec5780633a98ef3914610115578063406072a91461014057806348b750441461017d5780638b83209b146101a6576100e7565b366100e7577f6ef95f06320e7a25a04a175ca677b7052bdd97131872c2192525a629f51be7706100ce61033f565b346040516100dd929190610e49565b60405180910390a1005b600080fd5b3480156100f857600080fd5b50610113600480360381019061010e9190610eb5565b610347565b005b34801561012157600080fd5b5061012a6104cf565b6040516101379190610ee2565b60405180910390f35b34801561014c57600080fd5b5061016760048036038101906101629190610f67565b6104d8565b6040516101749190610ee2565b60405180910390f35b34801561018957600080fd5b506101a4600480360381019061019f9190610f67565b61055f565b005b3480156101b257600080fd5b506101cd60048036038101906101c89190610fd3565b61077b565b6040516101da9190611000565b60405180910390f35b3480156101ef57600080fd5b5061020a6004803603810190610205919061101b565b6107c3565b6040516102179190610ee2565b60405180910390f35b34801561022c57600080fd5b506102476004803603810190610242919061101b565b61080c565b6040516102549190610ee2565b60405180910390f35b34801561026957600080fd5b50610284600480360381019061027f9190610f67565b61083f565b6040516102919190610ee2565b60405180910390f35b3480156102a657600080fd5b506102c160048036038101906102bc919061101b565b6108ee565b6040516102ce9190610ee2565b60405180910390f35b3480156102e357600080fd5b506102fe60048036038101906102f99190611048565b610937565b60405161030b9190610ee2565b60405180910390f35b34801561032057600080fd5b50610329610980565b6040516103369190610ee2565b60405180910390f35b600033905090565b6000600260008373ffffffffffffffffffffffffffffffffffffffff1673ffffffffffffffffffffffffffffffffffffffff16815260200190815260200160002054116103c9576040517f08c379a00000000000000000000000000000000000000000000000000000000081526004016103c0906110f8565b60405180910390fd5b60006103d48261080c565b905060008103610419576040517f08c379a00000000000000000000000000000000000000000000000000000000081526004016104109061118a565b60405180910390fd5b80600360008473ffffffffffffffffffffffffffffffffffffffff1673ffffffffffffffffffffffffffffffffffffffff168152602001908152602001600020600082825461046891906111d9565b92505081905550806001600082825461048191906111d9565b92505081905550610492828261098a565b7fdf20fd1e76bc69d672e4814fafb2c449bba3a5369d8359adf9e05e6fde87b05682826040516104c392919061128e565b60405180910390a15050565b60008054905090565b6000600660008473ffffffffffffffffffffffffffffffffffffffff1673ffffffffffffffffffffffffffffffffffffffff16815260200190815260200160002060008373ffffffffffffffffffffffffffffffffffffffff1673ffffffffffffffffffffffffffffffffffffffff16815260200190815260200160002054905092915050565b6000600260008373ffffffffffffffffffffffffffffffffffffffff1673ffffffffffffffffffffffffffffffffffffffff16815260200190815260200160002054116105e1576040517f08c379a00000000000000000000000000000000000000000000000000000000081526004016105d8906110f8565b60405180910390fd5b60006105ed838361083f565b905060008103610632576040517f08c379a00000000000000000000000000000000000000000000000000000000081526004016106299061118a565b60405180910390fd5b80600660008573ffffffffffffffffffffffffffffffffffffffff1673ffffffffffffffffffffffffffffffffffffffff16815260200190815260200160002060008473ffffffffffffffffffffffffffffffffffffffff1673ffffffffffffffffffffffffffffffffffffffff16815260200190815260200160002060008282546106be91906111d9565b9250508190555080600560008573ffffffffffffffffffffffffffffffffffffffff1673ffffffffffffffffffffffffffffffffffffffff168152602001908152602001600020600082825461071491906111d9565b92505081905550610726838383610a7e565b8273ffffffffffffffffffffffffffffffffffffffff167f3be5b7a71e84ed12875d241991c70855ac5817d847039e17a9d895c1ceb0f18a838360405161076e929190610e49565b60405180910390a2505050565b600060048281548110610791576107906112b7565b5b9060005260206000200160009054906101000a900473ffffffffffffffffffffffffffffffffffffffff169050919050565b6000600360008373ffffffffffffffffffffffffffffffffffffffff1673ffffffffffffffffffffffffffffffffffffffff168152602001908152602001600020549050919050565b600080610817610980565b4761082291906111d9565b90506108378382610832866107c3565b610b04565b915050919050565b60008061084b84610937565b8473ffffffffffffffffffffffffffffffffffffffff166370a08231306040518263ffffffff1660e01b81526004016108849190611000565b602060405180830381865afa1580156108a1573d6000803e3d6000fd5b505050506040513d601f19601f820116820180604052508101906108c591906112fb565b6108cf91906111d9565b90506108e583826108e087876104d8565b610b04565b91505092915050565b6000600260008373ffffffffffffffffffffffffffffffffffffffff1673ffffffffffffffffffffffffffffffffffffffff168152602001908152602001600020549050919050565b6000600560008373ffffffffffffffffffffffffffffffffffffffff1673ffffffffffffffffffffffffffffffffffffffff168152602001908152602001600020549050919050565b6000600154905090565b804710156109cd576040517f08c379a00000000000000000000000000000000000000000000000000000000081526004016109c490611374565b60405180910390fd5b60008273ffffffffffffffffffffffffffffffffffffffff16826040516109f3906113c5565b60006040518083038185875af1925050503d8060008114610a30576040519150601f19603f3d011682016040523d82523d6000602084013e610a35565b606091505b5050905080610a79576040517f08c379a0000000000000000000000000000000000000000000000000000000008152600401610a709061144c565b60405180910390fd5b505050565b610aff8363a9059cbb60e01b8484604051602401610a9d929190610e49565b604051602081830303815290604052907bffffffffffffffffffffffffffffffffffffffffffffffffffffffff19166020820180517bffffffffffffffffffffffffffffffffffffffffffffffffffffffff8381831617835250505050610b72565b505050565b600081600054600260008773ffffffffffffffffffffffffffffffffffffffff1673ffffffffffffffffffffffffffffffffffffffff1681526020019081526020016000205485610b55919061146c565b610b5f91906114f5565b610b699190611526565b90509392505050565b6000610bd4826040518060400160405280602081526020017f5361666545524332303a206c6f772d6c6576656c2063616c6c206661696c65648152508573ffffffffffffffffffffffffffffffffffffffff16610c399092919063ffffffff16565b9050600081511115610c345780806020019051810190610bf49190611592565b610c33576040517f08c379a0000000000000000000000000000000000000000000000000000000008152600401610c2a90611631565b60405180910390fd5b5b505050565b6060610c488484600085610c51565b90509392505050565b606082471015610c96576040517f08c379a0000000000000000000000000000000000000000000000000000000008152600401610c8d906116c3565b60405180910390fd5b610c9f85610d65565b610cde576040517f08c379a0000000000000000000000000000000000000000000000000000000008152600401610cd59061172f565b60405180910390fd5b6000808673ffffffffffffffffffffffffffffffffffffffff168587604051610d0791906117be565b60006040518083038185875af1925050503d8060008114610d44576040519150601f19603f3d011682016040523d82523d6000602084013e610d49565b606091505b5091509150610d59828286610d88565b92505050949350505050565b6000808273ffffffffffffffffffffffffffffffffffffffff163b119050919050565b60608315610d9857829050610de8565b600083511115610dab5782518084602001fd5b816040517f08c379a0000000000000000000000000000000000000000000000000000000008152600401610ddf919061182a565b60405180910390fd5b9392505050565b600073ffffffffffffffffffffffffffffffffffffffff82169050919050565b6000610e1a82610def565b9050919050565b610e2a81610e0f565b82525050565b6000819050919050565b610e4381610e30565b82525050565b6000604082019050610e5e6000830185610e21565b610e6b6020830184610e3a565b9392505050565b600080fd5b6000610e8282610def565b9050919050565b610e9281610e77565b8114610e9d57600080fd5b50565b600081359050610eaf81610e89565b92915050565b600060208284031215610ecb57610eca610e72565b5b6000610ed984828501610ea0565b91505092915050565b6000602082019050610ef76000830184610e3a565b92915050565b6000610f0882610e0f565b9050919050565b610f1881610efd565b8114610f2357600080fd5b50565b600081359050610f3581610f0f565b92915050565b610f4481610e0f565b8114610f4f57600080fd5b50565b600081359050610f6181610f3b565b92915050565b60008060408385031215610f7e57610f7d610e72565b5b6000610f8c85828601610f26565b9250506020610f9d85828601610f52565b9150509250929050565b610fb081610e30565b8114610fbb57600080fd5b50565b600081359050610fcd81610fa7565b92915050565b600060208284031215610fe957610fe8610e72565b5b6000610ff784828501610fbe565b91505092915050565b60006020820190506110156000830184610e21565b92915050565b60006020828403121561103157611030610e72565b5b600061103f84828501610f52565b91505092915050565b60006020828403121561105e5761105d610e72565b5b600061106c84828501610f26565b91505092915050565b600082825260208201905092915050565b7f5061796d656e7453706c69747465723a206163636f756e7420686173206e6f2060008201527f7368617265730000000000000000000000000000000000000000000000000000602082015250565b60006110e2602683611075565b91506110ed82611086565b604082019050919050565b60006020820190508181036000830152611111816110d5565b9050919050565b7f5061796d656e7453706c69747465723a206163636f756e74206973206e6f742060008201527f647565207061796d656e74000000000000000000000000000000000000000000602082015250565b6000611174602b83611075565b915061117f82611118565b604082019050919050565b600060208201905081810360008301526111a381611167565b9050919050565b7f4e487b7100000000000000000000000000000000000000000000000000000000600052601160045260246000fd5b60006111e482610e30565b91506111ef83610e30565b9250827fffffffffffffffffffffffffffffffffffffffffffffffffffffffffffffffff03821115611224576112236111aa565b5b828201905092915050565b6000819050919050565b600061125461124f61124a84610def565b61122f565b610def565b9050919050565b600061126682611239565b9050919050565b60006112788261125b565b9050919050565b6112888161126d565b82525050565b60006040820190506112a3600083018561127f565b6112b06020830184610e3a565b9392505050565b7f4e487b7100000000000000000000000000000000000000000000000000000000600052603260045260246000fd5b6000815190506112f581610fa7565b92915050565b60006020828403121561131157611310610e72565b5b600061131f848285016112e6565b91505092915050565b7f416464726573733a20696e73756666696369656e742062616c616e6365000000600082015250565b600061135e601d83611075565b915061136982611328565b602082019050919050565b6000602082019050818103600083015261138d81611351565b9050919050565b600081905092915050565b50565b60006113af600083611394565b91506113ba8261139f565b600082019050919050565b60006113d0826113a2565b9150819050919050565b7f416464726573733a20756e61626c6520746f2073656e642076616c75652c207260008201527f6563697069656e74206d61792068617665207265766572746564000000000000602082015250565b6000611436603a83611075565b9150611441826113da565b604082019050919050565b6000602082019050818103600083015261146581611429565b9050919050565b600061147782610e30565b915061148283610e30565b9250817fffffffffffffffffffffffffffffffffffffffffffffffffffffffffffffffff04831182151516156114bb576114ba6111aa565b5b828202905092915050565b7f4e487b7100000000000000000000000000000000000000000000000000000000600052601260045260246000fd5b600061150082610e30565b915061150b83610e30565b92508261151b5761151a6114c6565b5b828204905092915050565b600061153182610e30565b915061153c83610e30565b92508282101561154f5761154e6111aa565b5b828203905092915050565b60008115159050919050565b61156f8161155a565b811461157a57600080fd5b50565b60008151905061158c81611566565b92915050565b6000602082840312156115a8576115a7610e72565b5b60006115b68482850161157d565b91505092915050565b7f5361666545524332303a204552433230206f7065726174696f6e20646964206e60008201527f6f74207375636365656400000000000000000000000000000000000000000000602082015250565b600061161b602a83611075565b9150611626826115bf565b604082019050919050565b6000602082019050818103600083015261164a8161160e565b9050919050565b7f416464726573733a20696e73756666696369656e742062616c616e636520666f60008201527f722063616c6c0000000000000000000000000000000000000000000000000000602082015250565b60006116ad602683611075565b91506116b882611651565b604082019050919050565b600060208201905081810360008301526116dc816116a0565b9050919050565b7f416464726573733a2063616c6c20746f206e6f6e2d636f6e7472616374000000600082015250565b6000611719601d83611075565b9150611724826116e3565b602082019050919050565b600060208201905081810360008301526117488161170c565b9050919050565b600081519050919050565b60005b8381101561177857808201518184015260208101905061175d565b83811115611787576000848401525b50505050565b60006117988261174f565b6117a28185611394565b93506117b281856020860161175a565b80840191505092915050565b60006117ca828461178d565b915081905092915050565b600081519050919050565b6000601f19601f8301169050919050565b60006117fc826117d5565b6118068185611075565b935061181681856020860161175a565b61181f816117e0565b840191505092915050565b6000602082019050818103600083015261184481846117f1565b90509291505056fea2646970667358221220c66c175cf679ab0d7f6bf66acaf472f51ce3cb4fa0e0209d392bee06a4ea504164736f6c634300080f0033",
  "linkReferences": {},
  "deployedLinkReferences": {}
}